{
	"array.sol": {
		"array": {
			"abi": [
				{
					"inputs": [],
					"name": "get",
					"outputs": [
						{
							"internalType": "uint256",
							"name": "",
							"type": "uint256"
						}
					],
					"stateMutability": "view",
					"type": "function"
				},
				{
					"inputs": [
						{
							"internalType": "uint256",
							"name": "",
							"type": "uint256"
						}
					],
					"name": "numbers",
					"outputs": [
						{
							"internalType": "uint256",
							"name": "",
							"type": "uint256"
						}
					],
					"stateMutability": "view",
					"type": "function"
				}
			],
			"devdoc": {
				"kind": "dev",
				"methods": {},
				"version": 1
			},
			"evm": {
				"assembly": "    /* \"array.sol\":65:230  contract array{\r... */\n  mstore(0x40, 0x80)\n    /* \"array.sol\":96:125  uint[] public numbers=[1,2,3] */\n  mload(0x40)\n  dup1\n  0x60\n  add\n  0x40\n  mstore\n  dup1\n    /* \"array.sol\":119:120  1 */\n  0x01\n    /* \"array.sol\":96:125  uint[] public numbers=[1,2,3] */\n  0xff\n  and\n  dup2\n  mstore\n  0x20\n  add\n    /* \"array.sol\":121:122  2 */\n  0x02\n    /* \"array.sol\":96:125  uint[] public numbers=[1,2,3] */\n  0xff\n  and\n  dup2\n  mstore\n  0x20\n  add\n    /* \"array.sol\":123:124  3 */\n  0x03\n    /* \"array.sol\":96:125  uint[] public numbers=[1,2,3] */\n  0xff\n  and\n  dup2\n  mstore\n  pop\n  0x00\n  swap1\n  0x03\n  tag_1\n  swap3\n  swap2\n  swap1\n  tag_2\n  jump\t// in\ntag_1:\n  pop\n    /* \"array.sol\":65:230  contract array{\r... */\n  callvalue\n  dup1\n  iszero\n  tag_3\n  jumpi\n  0x00\n  dup1\n  revert\ntag_3:\n  pop\n  jump(tag_4)\ntag_2:\n  dup3\n  dup1\n  sload\n  dup3\n  dup3\n  sstore\n  swap1\n  0x00\n  mstore\n  keccak256(0x00, 0x20)\n  swap1\n  dup2\n  add\n  swap3\n  dup3\n  iszero\n  tag_5\n  jumpi\n  swap2\n  0x20\n  mul\n  dup3\n  add\ntag_6:\n  dup3\n  dup2\n  gt\n  iszero\n  tag_7\n  jumpi\n  dup3\n  mload\n  dup3\n  swap1\n  0xff\n  and\n  swap1\n  sstore\n  swap2\n  0x20\n  add\n  swap2\n  swap1\n  0x01\n  add\n  swap1\n  jump(tag_6)\ntag_7:\ntag_5:\n  pop\n  swap1\n  pop\n  tag_8\n  swap2\n  swap1\n  tag_9\n  jump\t// in\ntag_8:\n  pop\n  swap1\n  jump\t// out\ntag_9:\ntag_10:\n  dup1\n  dup3\n  gt\n  iszero\n  tag_11\n  jumpi\n  0x00\n  dup2\n  0x00\n  swap1\n  sstore\n  pop\n  0x01\n  add\n  jump(tag_10)\ntag_11:\n  pop\n  swap1\n  jump\t// out\ntag_4:\n  dataSize(sub_0)\n  dup1\n  dataOffset(sub_0)\n  0x00\n  codecopy\n  0x00\n  return\nstop\n\nsub_0: assembly {\n        /* \"array.sol\":65:230  contract array{\r... */\n      mstore(0x40, 0x80)\n      callvalue\n      dup1\n      iszero\n      tag_1\n      jumpi\n      0x00\n      dup1\n      revert\n    tag_1:\n      pop\n      jumpi(tag_2, lt(calldatasize, 0x04))\n      shr(0xe0, calldataload(0x00))\n      dup1\n      0x6d4ce63c\n      eq\n      tag_3\n      jumpi\n      dup1\n      0xd39fa233\n      eq\n      tag_4\n      jumpi\n    tag_2:\n      0x00\n      dup1\n      revert\n        /* \"array.sol\":134:225  function get() public view returns (uint) { \r... */\n    tag_3:\n      tag_5\n      tag_6\n      jump\t// in\n    tag_5:\n      mload(0x40)\n      dup1\n      dup3\n      dup2\n      mstore\n      0x20\n      add\n      swap2\n      pop\n      pop\n      mload(0x40)\n      dup1\n      swap2\n      sub\n      swap1\n      return\n        /* \"array.sol\":96:125  uint[] public numbers=[1,2,3] */\n    tag_4:\n      tag_7\n      0x04\n      dup1\n      calldatasize\n      sub\n      0x20\n      dup2\n      lt\n      iszero\n      tag_8\n      jumpi\n      0x00\n      dup1\n      revert\n    tag_8:\n      dup2\n      add\n      swap1\n      dup1\n      dup1\n      calldataload\n      swap1\n      0x20\n      add\n      swap1\n      swap3\n      swap2\n      swap1\n      pop\n      pop\n      pop\n      tag_9\n      jump\t// in\n    tag_7:\n      mload(0x40)\n      dup1\n      dup3\n      dup2\n      mstore\n      0x20\n      add\n      swap2\n      pop\n      pop\n      mload(0x40)\n      dup1\n      swap2\n      sub\n      swap1\n      return\n        /* \"array.sol\":134:225  function get() public view returns (uint) { \r... */\n    tag_6:\n        /* \"array.sol\":170:174  uint */\n      0x00\n        /* \"array.sol\":205:212  numbers */\n      dup1\n        /* \"array.sol\":213:214  0 */\n      0x00\n        /* \"array.sol\":205:215  numbers[0] */\n      dup2\n      sload\n      dup2\n      lt\n      tag_11\n      jumpi\n      invalid\n    tag_11:\n      swap1\n      0x00\n      mstore\n      keccak256(0x00, 0x20)\n      add\n      sload\n        /* \"array.sol\":198:215  return numbers[0] */\n      swap1\n      pop\n        /* \"array.sol\":134:225  function get() public view returns (uint) { \r... */\n      swap1\n      jump\t// out\n        /* \"array.sol\":96:125  uint[] public numbers=[1,2,3] */\n    tag_9:\n      0x00\n      dup2\n      dup2\n      sload\n      dup2\n      lt\n      tag_13\n      jumpi\n      invalid\n    tag_13:\n      swap1\n      0x00\n      mstore\n      keccak256(0x00, 0x20)\n      add\n      0x00\n      swap2\n      pop\n      swap1\n      pop\n      sload\n      dup2\n      jump\t// out\n\n    auxdata: 0xa2646970667358221220f849293fde69abcf9b678d61a4520e1a0c45d83588582b958cb746e4ac1c372664736f6c63430007000033\n}\n",
				"bytecode": {
					"linkReferences": {},
					"object": "60806040526040518060600160405280600160ff168152602001600260ff168152602001600360ff16815250600090600361003b92919061004e565b5034801561004857600080fd5b506100bd565b82805482825590600052602060002090810192821561008f579160200282015b8281111561008e578251829060ff1690559160200191906001019061006e565b5b50905061009c91906100a0565b5090565b5b808211156100b95760008160009055506001016100a1565b5090565b610106806100cc6000396000f3fe6080604052348015600f57600080fd5b506004361060325760003560e01c80636d4ce63c146037578063d39fa233146053575b600080fd5b603d6092565b6040518082815260200191505060405180910390f35b607c60048036036020811015606757600080fd5b810190808035906020019092919050505060b0565b6040518082815260200191505060405180910390f35b60008060008154811060a057fe5b9060005260206000200154905090565b6000818154811060bc57fe5b90600052602060002001600091509050548156fea2646970667358221220f849293fde69abcf9b678d61a4520e1a0c45d83588582b958cb746e4ac1c372664736f6c63430007000033",
					"opcodes": "PUSH1 0x80 PUSH1 0x40 MSTORE PUSH1 0x40 MLOAD DUP1 PUSH1 0x60 ADD PUSH1 0x40 MSTORE DUP1 PUSH1 0x1 PUSH1 0xFF AND DUP2 MSTORE PUSH1 0x20 ADD PUSH1 0x2 PUSH1 0xFF AND DUP2 MSTORE PUSH1 0x20 ADD PUSH1 0x3 PUSH1 0xFF AND DUP2 MSTORE POP PUSH1 0x0 SWAP1 PUSH1 0x3 PUSH2 0x3B SWAP3 SWAP2 SWAP1 PUSH2 0x4E JUMP JUMPDEST POP CALLVALUE DUP1 ISZERO PUSH2 0x48 JUMPI PUSH1 0x0 DUP1 REVERT JUMPDEST POP PUSH2 0xBD JUMP JUMPDEST DUP3 DUP1 SLOAD DUP3 DUP3 SSTORE SWAP1 PUSH1 0x0 MSTORE PUSH1 0x20 PUSH1 0x0 KECCAK256 SWAP1 DUP2 ADD SWAP3 DUP3 ISZERO PUSH2 0x8F JUMPI SWAP2 PUSH1 0x20 MUL DUP3 ADD JUMPDEST DUP3 DUP2 GT ISZERO PUSH2 0x8E JUMPI DUP3 MLOAD DUP3 SWAP1 PUSH1 0xFF AND SWAP1 SSTORE SWAP2 PUSH1 0x20 ADD SWAP2 SWAP1 PUSH1 0x1 ADD SWAP1 PUSH2 0x6E JUMP JUMPDEST JUMPDEST POP SWAP1 POP PUSH2 0x9C SWAP2 SWAP1 PUSH2 0xA0 JUMP JUMPDEST POP SWAP1 JUMP JUMPDEST JUMPDEST DUP1 DUP3 GT ISZERO PUSH2 0xB9 JUMPI PUSH1 0x0 DUP2 PUSH1 0x0 SWAP1 SSTORE POP PUSH1 0x1 ADD PUSH2 0xA1 JUMP JUMPDEST POP SWAP1 JUMP JUMPDEST PUSH2 0x106 DUP1 PUSH2 0xCC PUSH1 0x0 CODECOPY PUSH1 0x0 RETURN INVALID PUSH1 0x80 PUSH1 0x40 MSTORE CALLVALUE DUP1 ISZERO PUSH1 0xF JUMPI PUSH1 0x0 DUP1 REVERT JUMPDEST POP PUSH1 0x4 CALLDATASIZE LT PUSH1 0x32 JUMPI PUSH1 0x0 CALLDATALOAD PUSH1 0xE0 SHR DUP1 PUSH4 0x6D4CE63C EQ PUSH1 0x37 JUMPI DUP1 PUSH4 0xD39FA233 EQ PUSH1 0x53 JUMPI JUMPDEST PUSH1 0x0 DUP1 REVERT JUMPDEST PUSH1 0x3D PUSH1 0x92 JUMP JUMPDEST PUSH1 0x40 MLOAD DUP1 DUP3 DUP2 MSTORE PUSH1 0x20 ADD SWAP2 POP POP PUSH1 0x40 MLOAD DUP1 SWAP2 SUB SWAP1 RETURN JUMPDEST PUSH1 0x7C PUSH1 0x4 DUP1 CALLDATASIZE SUB PUSH1 0x20 DUP2 LT ISZERO PUSH1 0x67 JUMPI PUSH1 0x0 DUP1 REVERT JUMPDEST DUP2 ADD SWAP1 DUP1 DUP1 CALLDATALOAD SWAP1 PUSH1 0x20 ADD SWAP1 SWAP3 SWAP2 SWAP1 POP POP POP PUSH1 0xB0 JUMP JUMPDEST PUSH1 0x40 MLOAD DUP1 DUP3 DUP2 MSTORE PUSH1 0x20 ADD SWAP2 POP POP PUSH1 0x40 MLOAD DUP1 SWAP2 SUB SWAP1 RETURN JUMPDEST PUSH1 0x0 DUP1 PUSH1 0x0 DUP2 SLOAD DUP2 LT PUSH1 0xA0 JUMPI INVALID JUMPDEST SWAP1 PUSH1 0x0 MSTORE PUSH1 0x20 PUSH1 0x0 KECCAK256 ADD SLOAD SWAP1 POP SWAP1 JUMP JUMPDEST PUSH1 0x0 DUP2 DUP2 SLOAD DUP2 LT PUSH1 0xBC JUMPI INVALID JUMPDEST SWAP1 PUSH1 0x0 MSTORE PUSH1 0x20 PUSH1 0x0 KECCAK256 ADD PUSH1 0x0 SWAP2 POP SWAP1 POP SLOAD DUP2 JUMP INVALID LOG2 PUSH5 0x6970667358 0x22 SLT KECCAK256 0xF8 0x49 0x29 EXTCODEHASH 0xDE PUSH10 0xABCF9B678D61A4520E1A 0xC GASLIMIT 0xD8 CALLDATALOAD DUP9 PC 0x2B SWAP6 DUP13 0xB7 CHAINID 0xE4 0xAC SHR CALLDATACOPY 0x26 PUSH5 0x736F6C6343 STOP SMOD STOP STOP CALLER "
				},
				"gasEstimates": {
					"creation": {
						"codeDepositCost": "52400",
						"executionCost": "infinite",
						"totalCost": "infinite"
					},
					"external": {
						"get()": "1871",
						"numbers(uint256)": "1980"
					}
				},
				"methodIdentifiers": {
					"get()": "6d4ce63c",
					"numbers(uint256)": "d39fa233"
				}
			},
			"storageLayout": {
				"storage": [
					{
						"astId": 8,
						"contract": "array.sol:array",
						"label": "numbers",
						"offset": 0,
						"slot": "0",
						"type": "t_array(t_uint256)dyn_storage"
					}
				],
				"types": {
					"t_array(t_uint256)dyn_storage": {
						"base": "t_uint256",
						"encoding": "dynamic_array",
						"label": "uint256[]",
						"numberOfBytes": "32"
					},
					"t_uint256": {
						"encoding": "inplace",
						"label": "uint256",
						"numberOfBytes": "32"
					}
				}
			},
			"userdoc": {
				"kind": "user",
				"methods": {},
				"version": 1
			}
		}
	}
}