{
	"Tracking.sol": {
		"Tracking": {
			"abi": [
				{
					"inputs": [],
					"stateMutability": "nonpayable",
					"type": "constructor"
				},
				{
					"anonymous": false,
					"inputs": [
						{
							"indexed": true,
							"internalType": "address",
							"name": "sender",
							"type": "address"
						},
						{
							"indexed": true,
							"internalType": "address",
							"name": "receiver",
							"type": "address"
						},
						{
							"indexed": false,
							"internalType": "uint256",
							"name": "pickupTime",
							"type": "uint256"
						},
						{
							"indexed": false,
							"internalType": "uint256",
							"name": "distance",
							"type": "uint256"
						},
						{
							"indexed": false,
							"internalType": "uint256",
							"name": "price",
							"type": "uint256"
						}
					],
					"name": "ShipmentCreated",
					"type": "event"
				},
				{
					"anonymous": false,
					"inputs": [
						{
							"indexed": true,
							"internalType": "address",
							"name": "sender",
							"type": "address"
						},
						{
							"indexed": true,
							"internalType": "address",
							"name": "reciever",
							"type": "address"
						},
						{
							"indexed": false,
							"internalType": "uint256",
							"name": "deliveryTime",
							"type": "uint256"
						}
					],
					"name": "ShipmentDelivered",
					"type": "event"
				},
				{
					"anonymous": false,
					"inputs": [
						{
							"indexed": true,
							"internalType": "address",
							"name": "sebder",
							"type": "address"
						},
						{
							"indexed": true,
							"internalType": "address",
							"name": "receiver",
							"type": "address"
						},
						{
							"indexed": false,
							"internalType": "uint256",
							"name": "pickupTime",
							"type": "uint256"
						}
					],
					"name": "ShipmentInTransit",
					"type": "event"
				},
				{
					"anonymous": false,
					"inputs": [
						{
							"indexed": true,
							"internalType": "address",
							"name": "sender",
							"type": "address"
						},
						{
							"indexed": true,
							"internalType": "address",
							"name": "reciever",
							"type": "address"
						},
						{
							"indexed": false,
							"internalType": "uint256",
							"name": "amount",
							"type": "uint256"
						}
					],
					"name": "ShipmentPaid",
					"type": "event"
				},
				{
					"inputs": [
						{
							"internalType": "address",
							"name": "_sender",
							"type": "address"
						},
						{
							"internalType": "address",
							"name": "_receiver",
							"type": "address"
						},
						{
							"internalType": "uint256",
							"name": "_index",
							"type": "uint256"
						}
					],
					"name": "completeShipment",
					"outputs": [],
					"stateMutability": "nonpayable",
					"type": "function"
				},
				{
					"inputs": [
						{
							"internalType": "address",
							"name": "_receiver",
							"type": "address"
						},
						{
							"internalType": "uint256",
							"name": "_pickupTime",
							"type": "uint256"
						},
						{
							"internalType": "uint256",
							"name": "_distance",
							"type": "uint256"
						},
						{
							"internalType": "uint256",
							"name": "_price",
							"type": "uint256"
						}
					],
					"name": "createShipment",
					"outputs": [],
					"stateMutability": "payable",
					"type": "function"
				},
				{
					"inputs": [],
					"name": "getAllTransactions",
					"outputs": [
						{
							"components": [
								{
									"internalType": "address",
									"name": "sender",
									"type": "address"
								},
								{
									"internalType": "address",
									"name": "receiver",
									"type": "address"
								},
								{
									"internalType": "uint256",
									"name": "pickupTime",
									"type": "uint256"
								},
								{
									"internalType": "uint256",
									"name": "deliveryTime",
									"type": "uint256"
								},
								{
									"internalType": "uint256",
									"name": "distance",
									"type": "uint256"
								},
								{
									"internalType": "uint256",
									"name": "price",
									"type": "uint256"
								},
								{
									"internalType": "enum Tracking.ShipmentStatus",
									"name": "status",
									"type": "uint8"
								},
								{
									"internalType": "bool",
									"name": "isPaid",
									"type": "bool"
								}
							],
							"internalType": "struct Tracking.TyepShipment[]",
							"name": "",
							"type": "tuple[]"
						}
					],
					"stateMutability": "view",
					"type": "function"
				},
				{
					"inputs": [
						{
							"internalType": "address",
							"name": "_sender",
							"type": "address"
						},
						{
							"internalType": "uint256",
							"name": "_index",
							"type": "uint256"
						}
					],
					"name": "getShipment",
					"outputs": [
						{
							"internalType": "address",
							"name": "",
							"type": "address"
						},
						{
							"internalType": "address",
							"name": "",
							"type": "address"
						},
						{
							"internalType": "uint256",
							"name": "",
							"type": "uint256"
						},
						{
							"internalType": "uint256",
							"name": "",
							"type": "uint256"
						},
						{
							"internalType": "uint256",
							"name": "",
							"type": "uint256"
						},
						{
							"internalType": "uint256",
							"name": "",
							"type": "uint256"
						},
						{
							"internalType": "enum Tracking.ShipmentStatus",
							"name": "",
							"type": "uint8"
						},
						{
							"internalType": "bool",
							"name": "",
							"type": "bool"
						}
					],
					"stateMutability": "view",
					"type": "function"
				},
				{
					"inputs": [
						{
							"internalType": "address",
							"name": "_sender",
							"type": "address"
						}
					],
					"name": "getShipmentCount",
					"outputs": [
						{
							"internalType": "uint256",
							"name": "",
							"type": "uint256"
						}
					],
					"stateMutability": "view",
					"type": "function"
				},
				{
					"inputs": [],
					"name": "shipmentCount",
					"outputs": [
						{
							"internalType": "uint256",
							"name": "",
							"type": "uint256"
						}
					],
					"stateMutability": "view",
					"type": "function"
				},
				{
					"inputs": [
						{
							"internalType": "address",
							"name": "",
							"type": "address"
						},
						{
							"internalType": "uint256",
							"name": "",
							"type": "uint256"
						}
					],
					"name": "shipments",
					"outputs": [
						{
							"internalType": "address",
							"name": "sender",
							"type": "address"
						},
						{
							"internalType": "address",
							"name": "receiver",
							"type": "address"
						},
						{
							"internalType": "uint256",
							"name": "pickupTime",
							"type": "uint256"
						},
						{
							"internalType": "uint256",
							"name": "deliveryTime",
							"type": "uint256"
						},
						{
							"internalType": "uint256",
							"name": "distance",
							"type": "uint256"
						},
						{
							"internalType": "uint256",
							"name": "price",
							"type": "uint256"
						},
						{
							"internalType": "enum Tracking.ShipmentStatus",
							"name": "status",
							"type": "uint8"
						},
						{
							"internalType": "bool",
							"name": "isPaid",
							"type": "bool"
						}
					],
					"stateMutability": "view",
					"type": "function"
				},
				{
					"inputs": [
						{
							"internalType": "address",
							"name": "_sender",
							"type": "address"
						},
						{
							"internalType": "address",
							"name": "_receiver",
							"type": "address"
						},
						{
							"internalType": "uint256",
							"name": "_index",
							"type": "uint256"
						}
					],
					"name": "startShipment",
					"outputs": [],
					"stateMutability": "nonpayable",
					"type": "function"
				}
			],
			"devdoc": {
				"kind": "dev",
				"methods": {},
				"version": 1
			},
			"evm": {
				"assembly": "    /* \"Tracking.sol\":58:4496  contract Tracking{... */\n  mstore(0x40, 0x80)\n    /* \"Tracking.sol\":1198:1251  constructor(){... */\n  callvalue\n  dup1\n  iszero\n  tag_1\n  jumpi\n  0x00\n  dup1\n  revert\ntag_1:\n  pop\n    /* \"Tracking.sol\":1238:1239  0 */\n  0x00\n    /* \"Tracking.sol\":1222:1235  shipmentCount */\n  0x01\n    /* \"Tracking.sol\":1222:1239  shipmentCount = 0 */\n  dup2\n  swap1\n  sstore\n  pop\n    /* \"Tracking.sol\":58:4496  contract Tracking{... */\n  dataSize(sub_0)\n  dup1\n  dataOffset(sub_0)\n  0x00\n  codecopy\n  0x00\n  return\nstop\n\nsub_0: assembly {\n        /* \"Tracking.sol\":58:4496  contract Tracking{... */\n      mstore(0x40, 0x80)\n      jumpi(tag_1, lt(calldatasize, 0x04))\n      shr(0xe0, calldataload(0x00))\n      dup1\n      0x8365da54\n      gt\n      tag_10\n      jumpi\n      dup1\n      0x8365da54\n      eq\n      tag_6\n      jumpi\n      dup1\n      0xaace20b7\n      eq\n      tag_7\n      jumpi\n      dup1\n      0xb7dfd93d\n      eq\n      tag_8\n      jumpi\n      dup1\n      0xcbc4b181\n      eq\n      tag_9\n      jumpi\n      jump(tag_1)\n    tag_10:\n      dup1\n      0x179a878c\n      eq\n      tag_2\n      jumpi\n      dup1\n      0x27506f53\n      eq\n      tag_3\n      jumpi\n      dup1\n      0x5667e02f\n      eq\n      tag_4\n      jumpi\n      dup1\n      0x7ff5265d\n      eq\n      tag_5\n      jumpi\n    tag_1:\n      0x00\n      dup1\n      revert\n        /* \"Tracking.sol\":2668:3647  function completeShipment(address _sender, address _receiver, uint256 _index)... */\n    tag_2:\n      callvalue\n      dup1\n      iszero\n      tag_11\n      jumpi\n      0x00\n      dup1\n      revert\n    tag_11:\n      pop\n      tag_12\n      0x04\n      dup1\n      calldatasize\n      sub\n      dup2\n      add\n      swap1\n      tag_13\n      swap2\n      swap1\n      tag_14\n      jump\t// in\n    tag_13:\n      tag_15\n      jump\t// in\n    tag_12:\n      stop\n        /* \"Tracking.sol\":4290:4489  function getAllTransactions()... */\n    tag_3:\n      callvalue\n      dup1\n      iszero\n      tag_16\n      jumpi\n      0x00\n      dup1\n      revert\n    tag_16:\n      pop\n      tag_17\n      tag_18\n      jump\t// in\n    tag_17:\n      mload(0x40)\n      tag_19\n      swap2\n      swap1\n      tag_20\n      jump\t// in\n    tag_19:\n      mload(0x40)\n      dup1\n      swap2\n      sub\n      swap1\n      return\n        /* \"Tracking.sol\":388:434  mapping(address=> Shipment[]) public shipments */\n    tag_4:\n      callvalue\n      dup1\n      iszero\n      tag_21\n      jumpi\n      0x00\n      dup1\n      revert\n    tag_21:\n      pop\n      tag_22\n      0x04\n      dup1\n      calldatasize\n      sub\n      dup2\n      add\n      swap1\n      tag_23\n      swap2\n      swap1\n      tag_24\n      jump\t// in\n    tag_23:\n      tag_25\n      jump\t// in\n    tag_22:\n      mload(0x40)\n      tag_26\n      swap9\n      swap8\n      swap7\n      swap6\n      swap5\n      swap4\n      swap3\n      swap2\n      swap1\n      tag_27\n      jump\t// in\n    tag_26:\n      mload(0x40)\n      dup1\n      swap2\n      sub\n      swap1\n      return\n        /* \"Tracking.sol\":2082:2662  function startShipment(address _sender, address _receiver, uint256 _index) public{... */\n    tag_5:\n      callvalue\n      dup1\n      iszero\n      tag_28\n      jumpi\n      0x00\n      dup1\n      revert\n    tag_28:\n      pop\n      tag_29\n      0x04\n      dup1\n      calldatasize\n      sub\n      dup2\n      add\n      swap1\n      tag_30\n      swap2\n      swap1\n      tag_14\n      jump\t// in\n    tag_30:\n      tag_31\n      jump\t// in\n    tag_29:\n      stop\n        /* \"Tracking.sol\":3655:4149  function getShipment(address _sender, uint256 _index) public view returns... */\n    tag_6:\n      callvalue\n      dup1\n      iszero\n      tag_32\n      jumpi\n      0x00\n      dup1\n      revert\n    tag_32:\n      pop\n      tag_33\n      0x04\n      dup1\n      calldatasize\n      sub\n      dup2\n      add\n      swap1\n      tag_34\n      swap2\n      swap1\n      tag_24\n      jump\t// in\n    tag_34:\n      tag_35\n      jump\t// in\n    tag_33:\n      mload(0x40)\n      tag_36\n      swap9\n      swap8\n      swap7\n      swap6\n      swap5\n      swap4\n      swap3\n      swap2\n      swap1\n      tag_27\n      jump\t// in\n    tag_36:\n      mload(0x40)\n      dup1\n      swap2\n      sub\n      swap1\n      return\n        /* \"Tracking.sol\":441:469  uint256 public shipmentCount */\n    tag_7:\n      callvalue\n      dup1\n      iszero\n      tag_37\n      jumpi\n      0x00\n      dup1\n      revert\n    tag_37:\n      pop\n      tag_38\n      tag_39\n      jump\t// in\n    tag_38:\n      mload(0x40)\n      tag_40\n      swap2\n      swap1\n      tag_41\n      jump\t// in\n    tag_40:\n      mload(0x40)\n      dup1\n      swap2\n      sub\n      swap1\n      return\n        /* \"Tracking.sol\":4157:4282  function getShipmentCount(address _sender) public view returns (uint256){... */\n    tag_8:\n      callvalue\n      dup1\n      iszero\n      tag_42\n      jumpi\n      0x00\n      dup1\n      revert\n    tag_42:\n      pop\n      tag_43\n      0x04\n      dup1\n      calldatasize\n      sub\n      dup2\n      add\n      swap1\n      tag_44\n      swap2\n      swap1\n      tag_45\n      jump\t// in\n    tag_44:\n      tag_46\n      jump\t// in\n    tag_43:\n      mload(0x40)\n      tag_47\n      swap2\n      swap1\n      tag_41\n      jump\t// in\n    tag_47:\n      mload(0x40)\n      dup1\n      swap2\n      sub\n      swap1\n      return\n        /* \"Tracking.sol\":1259:2074  function  createShipment(address _receiver, uint256 _pickupTime, uint256 _distance, uint256 _price)... */\n    tag_9:\n      tag_48\n      0x04\n      dup1\n      calldatasize\n      sub\n      dup2\n      add\n      swap1\n      tag_49\n      swap2\n      swap1\n      tag_50\n      jump\t// in\n    tag_49:\n      tag_51\n      jump\t// in\n    tag_48:\n      stop\n        /* \"Tracking.sol\":2668:3647  function completeShipment(address _sender, address _receiver, uint256 _index)... */\n    tag_15:\n        /* \"Tracking.sol\":2768:2793  Shipment storage shipment */\n      0x00\n        /* \"Tracking.sol\":2796:2805  shipments */\n      dup1\n        /* \"Tracking.sol\":2796:2814  shipments[_sender] */\n      0x00\n        /* \"Tracking.sol\":2806:2813  _sender */\n      dup6\n        /* \"Tracking.sol\":2796:2814  shipments[_sender] */\n      0xffffffffffffffffffffffffffffffffffffffff\n      and\n      0xffffffffffffffffffffffffffffffffffffffff\n      and\n      dup2\n      mstore\n      0x20\n      add\n      swap1\n      dup2\n      mstore\n      0x20\n      add\n      0x00\n      keccak256\n        /* \"Tracking.sol\":2815:2821  _index */\n      dup3\n        /* \"Tracking.sol\":2796:2822  shipments[_sender][_index] */\n      dup2\n      sload\n      dup2\n      lt\n      tag_53\n      jumpi\n      tag_54\n      tag_55\n      jump\t// in\n    tag_54:\n    tag_53:\n      swap1\n      0x00\n      mstore\n      keccak256(0x00, 0x20)\n      swap1\n      0x07\n      mul\n      add\n        /* \"Tracking.sol\":2768:2822  Shipment storage shipment = shipments[_sender][_index] */\n      swap1\n      pop\n        /* \"Tracking.sol\":2833:2866  TyepShipment storage tyepShipment */\n      0x00\n        /* \"Tracking.sol\":2869:2882  tyepShipments */\n      0x02\n        /* \"Tracking.sol\":2883:2889  _index */\n      dup4\n        /* \"Tracking.sol\":2869:2890  tyepShipments[_index] */\n      dup2\n      sload\n      dup2\n      lt\n      tag_57\n      jumpi\n      tag_58\n      tag_55\n      jump\t// in\n    tag_58:\n    tag_57:\n      swap1\n      0x00\n      mstore\n      keccak256(0x00, 0x20)\n      swap1\n      0x07\n      mul\n      add\n        /* \"Tracking.sol\":2833:2890  TyepShipment storage tyepShipment = tyepShipments[_index] */\n      swap1\n      pop\n        /* \"Tracking.sol\":2932:2941  _receiver */\n      dup4\n        /* \"Tracking.sol\":2911:2941  shipment.receiver == _receiver */\n      0xffffffffffffffffffffffffffffffffffffffff\n      and\n        /* \"Tracking.sol\":2911:2919  shipment */\n      dup3\n        /* \"Tracking.sol\":2911:2928  shipment.receiver */\n      0x01\n      add\n      0x00\n      swap1\n      sload\n      swap1\n      0x0100\n      exp\n      swap1\n      div\n      0xffffffffffffffffffffffffffffffffffffffff\n      and\n        /* \"Tracking.sol\":2911:2941  shipment.receiver == _receiver */\n      0xffffffffffffffffffffffffffffffffffffffff\n      and\n      eq\n        /* \"Tracking.sol\":2903:2963  require(shipment.receiver == _receiver, \"Invalid receiver.\") */\n      tag_60\n      jumpi\n      mload(0x40)\n      0x08c379a000000000000000000000000000000000000000000000000000000000\n      dup2\n      mstore\n      0x04\n      add\n      tag_61\n      swap1\n      tag_62\n      jump\t// in\n    tag_61:\n      mload(0x40)\n      dup1\n      swap2\n      sub\n      swap1\n      revert\n    tag_60:\n        /* \"Tracking.sol\":3001:3026  ShipmentStatus.IN_TRANSIT */\n      0x01\n        /* \"Tracking.sol\":2982:3026  shipment.status == ShipmentStatus.IN_TRANSIT */\n      0x02\n      dup2\n      gt\n      iszero\n      tag_63\n      jumpi\n      tag_64\n      tag_65\n      jump\t// in\n    tag_64:\n    tag_63:\n        /* \"Tracking.sol\":2982:2990  shipment */\n      dup3\n        /* \"Tracking.sol\":2982:2997  shipment.status */\n      0x06\n      add\n      0x00\n      swap1\n      sload\n      swap1\n      0x0100\n      exp\n      swap1\n      div\n      0xff\n      and\n        /* \"Tracking.sol\":2982:3026  shipment.status == ShipmentStatus.IN_TRANSIT */\n      0x02\n      dup2\n      gt\n      iszero\n      tag_66\n      jumpi\n      tag_67\n      tag_65\n      jump\t// in\n    tag_67:\n    tag_66:\n      eq\n        /* \"Tracking.sol\":2974:3055  require(shipment.status == ShipmentStatus.IN_TRANSIT, \"Shipment not in transit.\") */\n      tag_68\n      jumpi\n      mload(0x40)\n      0x08c379a000000000000000000000000000000000000000000000000000000000\n      dup2\n      mstore\n      0x04\n      add\n      tag_69\n      swap1\n      tag_70\n      jump\t// in\n    tag_69:\n      mload(0x40)\n      dup1\n      swap2\n      sub\n      swap1\n      revert\n    tag_68:\n        /* \"Tracking.sol\":3075:3083  shipment */\n      dup2\n        /* \"Tracking.sol\":3075:3090  shipment.isPaid */\n      0x06\n      add\n      0x01\n      swap1\n      sload\n      swap1\n      0x0100\n      exp\n      swap1\n      div\n      0xff\n      and\n        /* \"Tracking.sol\":3074:3090  !shipment.isPaid */\n      iszero\n        /* \"Tracking.sol\":3066:3117  require(!shipment.isPaid, \"Shipment already paid.\") */\n      tag_71\n      jumpi\n      mload(0x40)\n      0x08c379a000000000000000000000000000000000000000000000000000000000\n      dup2\n      mstore\n      0x04\n      add\n      tag_72\n      swap1\n      tag_73\n      jump\t// in\n    tag_72:\n      mload(0x40)\n      dup1\n      swap2\n      sub\n      swap1\n      revert\n    tag_71:\n        /* \"Tracking.sol\":3148:3172  ShipmentStatus.DELIVERED */\n      0x02\n        /* \"Tracking.sol\":3130:3138  shipment */\n      dup3\n        /* \"Tracking.sol\":3130:3145  shipment.status */\n      0x06\n      add\n      0x00\n        /* \"Tracking.sol\":3130:3172  shipment.status = ShipmentStatus.DELIVERED */\n      0x0100\n      exp\n      dup2\n      sload\n      dup2\n      0xff\n      mul\n      not\n      and\n      swap1\n      dup4\n      0x02\n      dup2\n      gt\n      iszero\n      tag_74\n      jumpi\n      tag_75\n      tag_65\n      jump\t// in\n    tag_75:\n    tag_74:\n      mul\n      or\n      swap1\n      sstore\n      pop\n        /* \"Tracking.sol\":3205:3229  ShipmentStatus.DELIVERED */\n      0x02\n        /* \"Tracking.sol\":3183:3195  tyepShipment */\n      dup2\n        /* \"Tracking.sol\":3183:3202  tyepShipment.status */\n      0x06\n      add\n      0x00\n        /* \"Tracking.sol\":3183:3229  tyepShipment.status = ShipmentStatus.DELIVERED */\n      0x0100\n      exp\n      dup2\n      sload\n      dup2\n      0xff\n      mul\n      not\n      and\n      swap1\n      dup4\n      0x02\n      dup2\n      gt\n      iszero\n      tag_76\n      jumpi\n      tag_77\n      tag_65\n      jump\t// in\n    tag_77:\n    tag_76:\n      mul\n      or\n      swap1\n      sstore\n      pop\n        /* \"Tracking.sol\":3268:3283  block.timestamp */\n      timestamp\n        /* \"Tracking.sol\":3240:3252  tyepShipment */\n      dup2\n        /* \"Tracking.sol\":3240:3265  tyepShipment.deliveryTime */\n      0x03\n      add\n        /* \"Tracking.sol\":3240:3283  tyepShipment.deliveryTime = block.timestamp */\n      dup2\n      swap1\n      sstore\n      pop\n        /* \"Tracking.sol\":3318:3333  block.timestamp */\n      timestamp\n        /* \"Tracking.sol\":3294:3302  shipment */\n      dup3\n        /* \"Tracking.sol\":3294:3315  shipment.deliveryTime */\n      0x03\n      add\n        /* \"Tracking.sol\":3294:3333  shipment.deliveryTime = block.timestamp */\n      dup2\n      swap1\n      sstore\n      pop\n        /* \"Tracking.sol\":3346:3360  uint256 amount */\n      0x00\n        /* \"Tracking.sol\":3363:3371  shipment */\n      dup3\n        /* \"Tracking.sol\":3363:3377  shipment.price */\n      0x05\n      add\n      sload\n        /* \"Tracking.sol\":3346:3377  uint256 amount = shipment.price */\n      swap1\n      pop\n        /* \"Tracking.sol\":3398:3406  shipment */\n      dup3\n        /* \"Tracking.sol\":3398:3413  shipment.sender */\n      0x00\n      add\n      0x00\n      swap1\n      sload\n      swap1\n      0x0100\n      exp\n      swap1\n      div\n      0xffffffffffffffffffffffffffffffffffffffff\n      and\n        /* \"Tracking.sol\":3390:3423  payable(shipment.sender).transfer */\n      0xffffffffffffffffffffffffffffffffffffffff\n      and\n        /* \"Tracking.sol\":3390:3431  payable(shipment.sender).transfer(amount) */\n      0x08fc\n        /* \"Tracking.sol\":3424:3430  amount */\n      dup3\n        /* \"Tracking.sol\":3390:3431  payable(shipment.sender).transfer(amount) */\n      swap1\n      dup2\n      iszero\n      mul\n      swap1\n      mload(0x40)\n      0x00\n      mload(0x40)\n      dup1\n      dup4\n      sub\n      dup2\n      dup6\n      dup9\n      dup9\n      call\n      swap4\n      pop\n      pop\n      pop\n      pop\n      iszero\n      dup1\n      iszero\n      tag_79\n      jumpi\n      returndatasize\n      0x00\n      dup1\n      returndatacopy\n      revert(0x00, returndatasize)\n    tag_79:\n      pop\n        /* \"Tracking.sol\":3460:3464  true */\n      0x01\n        /* \"Tracking.sol\":3442:3450  shipment */\n      dup4\n        /* \"Tracking.sol\":3442:3457  shipment.isPaid */\n      0x06\n      add\n      0x01\n        /* \"Tracking.sol\":3442:3464  shipment.isPaid = true */\n      0x0100\n      exp\n      dup2\n      sload\n      dup2\n      0xff\n      mul\n      not\n      and\n      swap1\n      dup4\n      iszero\n      iszero\n      mul\n      or\n      swap1\n      sstore\n      pop\n        /* \"Tracking.sol\":3497:3501  true */\n      0x01\n        /* \"Tracking.sol\":3475:3487  tyepShipment */\n      dup3\n        /* \"Tracking.sol\":3475:3494  tyepShipment.isPaid */\n      0x06\n      add\n      0x01\n        /* \"Tracking.sol\":3475:3501  tyepShipment.isPaid = true */\n      0x0100\n      exp\n      dup2\n      sload\n      dup2\n      0xff\n      mul\n      not\n      and\n      swap1\n      dup4\n      iszero\n      iszero\n      mul\n      or\n      swap1\n      sstore\n      pop\n        /* \"Tracking.sol\":3546:3555  _receiver */\n      dup5\n        /* \"Tracking.sol\":3519:3579  ShipmentDelivered(_sender, _receiver, shipment.deliveryTime) */\n      0xffffffffffffffffffffffffffffffffffffffff\n      and\n        /* \"Tracking.sol\":3537:3544  _sender */\n      dup7\n        /* \"Tracking.sol\":3519:3579  ShipmentDelivered(_sender, _receiver, shipment.deliveryTime) */\n      0xffffffffffffffffffffffffffffffffffffffff\n      and\n      0x3746ccceb54f44c9b0ee0120e596168d07ec9f6ca303cfdd9810d3b2e2686a2e\n        /* \"Tracking.sol\":3557:3565  shipment */\n      dup6\n        /* \"Tracking.sol\":3557:3578  shipment.deliveryTime */\n      0x03\n      add\n      sload\n        /* \"Tracking.sol\":3519:3579  ShipmentDelivered(_sender, _receiver, shipment.deliveryTime) */\n      mload(0x40)\n      tag_80\n      swap2\n      swap1\n      tag_41\n      jump\t// in\n    tag_80:\n      mload(0x40)\n      dup1\n      swap2\n      sub\n      swap1\n      log3\n        /* \"Tracking.sol\":3617:3626  _receiver */\n      dup5\n        /* \"Tracking.sol\":3595:3635  ShipmentPaid(_sender, _receiver, amount) */\n      0xffffffffffffffffffffffffffffffffffffffff\n      and\n        /* \"Tracking.sol\":3608:3615  _sender */\n      dup7\n        /* \"Tracking.sol\":3595:3635  ShipmentPaid(_sender, _receiver, amount) */\n      0xffffffffffffffffffffffffffffffffffffffff\n      and\n      0x2b6f2473aebafaf8d0889669490135928ec4454d2e29a103fd39693bbca6aef1\n        /* \"Tracking.sol\":3628:3634  amount */\n      dup4\n        /* \"Tracking.sol\":3595:3635  ShipmentPaid(_sender, _receiver, amount) */\n      mload(0x40)\n      tag_81\n      swap2\n      swap1\n      tag_41\n      jump\t// in\n    tag_81:\n      mload(0x40)\n      dup1\n      swap2\n      sub\n      swap1\n      log3\n        /* \"Tracking.sol\":2757:3647  {... */\n      pop\n      pop\n      pop\n        /* \"Tracking.sol\":2668:3647  function completeShipment(address _sender, address _receiver, uint256 _index)... */\n      pop\n      pop\n      pop\n      jump\t// out\n        /* \"Tracking.sol\":4290:4489  function getAllTransactions()... */\n    tag_18:\n        /* \"Tracking.sol\":4389:4410  TyepShipment[] memory */\n      0x60\n        /* \"Tracking.sol\":4457:4470  tyepShipments */\n      0x02\n        /* \"Tracking.sol\":4450:4470  return tyepShipments */\n      dup1\n      sload\n      dup1\n      0x20\n      mul\n      0x20\n      add\n      mload(0x40)\n      swap1\n      dup2\n      add\n      0x40\n      mstore\n      dup1\n      swap3\n      swap2\n      swap1\n      dup2\n      dup2\n      mstore\n      0x20\n      add\n      0x00\n      swap1\n    tag_83:\n      dup3\n      dup3\n      lt\n      iszero\n      tag_84\n      jumpi\n      dup4\n      dup3\n      swap1\n      0x00\n      mstore\n      keccak256(0x00, 0x20)\n      swap1\n      0x07\n      mul\n      add\n      mload(0x40)\n      dup1\n      0x0100\n      add\n      0x40\n      mstore\n      swap1\n      dup2\n      0x00\n      dup3\n      add\n      0x00\n      swap1\n      sload\n      swap1\n      0x0100\n      exp\n      swap1\n      div\n      0xffffffffffffffffffffffffffffffffffffffff\n      and\n      0xffffffffffffffffffffffffffffffffffffffff\n      and\n      0xffffffffffffffffffffffffffffffffffffffff\n      and\n      dup2\n      mstore\n      0x20\n      add\n      0x01\n      dup3\n      add\n      0x00\n      swap1\n      sload\n      swap1\n      0x0100\n      exp\n      swap1\n      div\n      0xffffffffffffffffffffffffffffffffffffffff\n      and\n      0xffffffffffffffffffffffffffffffffffffffff\n      and\n      0xffffffffffffffffffffffffffffffffffffffff\n      and\n      dup2\n      mstore\n      0x20\n      add\n      0x02\n      dup3\n      add\n      sload\n      dup2\n      mstore\n      0x20\n      add\n      0x03\n      dup3\n      add\n      sload\n      dup2\n      mstore\n      0x20\n      add\n      0x04\n      dup3\n      add\n      sload\n      dup2\n      mstore\n      0x20\n      add\n      0x05\n      dup3\n      add\n      sload\n      dup2\n      mstore\n      0x20\n      add\n      0x06\n      dup3\n      add\n      0x00\n      swap1\n      sload\n      swap1\n      0x0100\n      exp\n      swap1\n      div\n      0xff\n      and\n      0x02\n      dup2\n      gt\n      iszero\n      tag_86\n      jumpi\n      tag_87\n      tag_65\n      jump\t// in\n    tag_87:\n    tag_86:\n      0x02\n      dup2\n      gt\n      iszero\n      tag_88\n      jumpi\n      tag_89\n      tag_65\n      jump\t// in\n    tag_89:\n    tag_88:\n      dup2\n      mstore\n      0x20\n      add\n      0x06\n      dup3\n      add\n      0x01\n      swap1\n      sload\n      swap1\n      0x0100\n      exp\n      swap1\n      div\n      0xff\n      and\n      iszero\n      iszero\n      iszero\n      iszero\n      dup2\n      mstore\n      pop\n      pop\n      dup2\n      mstore\n      0x20\n      add\n      swap1\n      0x01\n      add\n      swap1\n      jump(tag_83)\n    tag_84:\n      pop\n      pop\n      pop\n      pop\n      swap1\n      pop\n        /* \"Tracking.sol\":4290:4489  function getAllTransactions()... */\n      swap1\n      jump\t// out\n        /* \"Tracking.sol\":388:434  mapping(address=> Shipment[]) public shipments */\n    tag_25:\n      mstore(0x20, 0x00)\n      dup2\n      0x00\n      mstore\n      keccak256(0x00, 0x40)\n      dup2\n      dup2\n      sload\n      dup2\n      lt\n      tag_90\n      jumpi\n      0x00\n      dup1\n      revert\n    tag_90:\n      swap1\n      0x00\n      mstore\n      keccak256(0x00, 0x20)\n      swap1\n      0x07\n      mul\n      add\n      0x00\n      swap2\n      pop\n      swap2\n      pop\n      pop\n      dup1\n      0x00\n      add\n      0x00\n      swap1\n      sload\n      swap1\n      0x0100\n      exp\n      swap1\n      div\n      0xffffffffffffffffffffffffffffffffffffffff\n      and\n      swap1\n      dup1\n      0x01\n      add\n      0x00\n      swap1\n      sload\n      swap1\n      0x0100\n      exp\n      swap1\n      div\n      0xffffffffffffffffffffffffffffffffffffffff\n      and\n      swap1\n      dup1\n      0x02\n      add\n      sload\n      swap1\n      dup1\n      0x03\n      add\n      sload\n      swap1\n      dup1\n      0x04\n      add\n      sload\n      swap1\n      dup1\n      0x05\n      add\n      sload\n      swap1\n      dup1\n      0x06\n      add\n      0x00\n      swap1\n      sload\n      swap1\n      0x0100\n      exp\n      swap1\n      div\n      0xff\n      and\n      swap1\n      dup1\n      0x06\n      add\n      0x01\n      swap1\n      sload\n      swap1\n      0x0100\n      exp\n      swap1\n      div\n      0xff\n      and\n      swap1\n      pop\n      dup9\n      jump\t// out\n        /* \"Tracking.sol\":2082:2662  function startShipment(address _sender, address _receiver, uint256 _index) public{... */\n    tag_31:\n        /* \"Tracking.sol\":2174:2199  Shipment storage shipment */\n      0x00\n        /* \"Tracking.sol\":2202:2211  shipments */\n      dup1\n        /* \"Tracking.sol\":2202:2220  shipments[_sender] */\n      0x00\n        /* \"Tracking.sol\":2212:2219  _sender */\n      dup6\n        /* \"Tracking.sol\":2202:2220  shipments[_sender] */\n      0xffffffffffffffffffffffffffffffffffffffff\n      and\n      0xffffffffffffffffffffffffffffffffffffffff\n      and\n      dup2\n      mstore\n      0x20\n      add\n      swap1\n      dup2\n      mstore\n      0x20\n      add\n      0x00\n      keccak256\n        /* \"Tracking.sol\":2221:2227  _index */\n      dup3\n        /* \"Tracking.sol\":2202:2228  shipments[_sender][_index] */\n      dup2\n      sload\n      dup2\n      lt\n      tag_93\n      jumpi\n      tag_94\n      tag_55\n      jump\t// in\n    tag_94:\n    tag_93:\n      swap1\n      0x00\n      mstore\n      keccak256(0x00, 0x20)\n      swap1\n      0x07\n      mul\n      add\n        /* \"Tracking.sol\":2174:2228  Shipment storage shipment = shipments[_sender][_index] */\n      swap1\n      pop\n        /* \"Tracking.sol\":2239:2272  TyepShipment storage tyepShipment */\n      0x00\n        /* \"Tracking.sol\":2275:2288  tyepShipments */\n      0x02\n        /* \"Tracking.sol\":2289:2295  _index */\n      dup4\n        /* \"Tracking.sol\":2275:2296  tyepShipments[_index] */\n      dup2\n      sload\n      dup2\n      lt\n      tag_96\n      jumpi\n      tag_97\n      tag_55\n      jump\t// in\n    tag_97:\n    tag_96:\n      swap1\n      0x00\n      mstore\n      keccak256(0x00, 0x20)\n      swap1\n      0x07\n      mul\n      add\n        /* \"Tracking.sol\":2239:2296  TyepShipment storage tyepShipment = tyepShipments[_index] */\n      swap1\n      pop\n        /* \"Tracking.sol\":2336:2345  _receiver */\n      dup4\n        /* \"Tracking.sol\":2315:2345  shipment.receiver == _receiver */\n      0xffffffffffffffffffffffffffffffffffffffff\n      and\n        /* \"Tracking.sol\":2315:2323  shipment */\n      dup3\n        /* \"Tracking.sol\":2315:2332  shipment.receiver */\n      0x01\n      add\n      0x00\n      swap1\n      sload\n      swap1\n      0x0100\n      exp\n      swap1\n      div\n      0xffffffffffffffffffffffffffffffffffffffff\n      and\n        /* \"Tracking.sol\":2315:2345  shipment.receiver == _receiver */\n      0xffffffffffffffffffffffffffffffffffffffff\n      and\n      eq\n        /* \"Tracking.sol\":2307:2367  require(shipment.receiver == _receiver, \"Invalid receiver.\") */\n      tag_99\n      jumpi\n      mload(0x40)\n      0x08c379a000000000000000000000000000000000000000000000000000000000\n      dup2\n      mstore\n      0x04\n      add\n      tag_100\n      swap1\n      tag_62\n      jump\t// in\n    tag_100:\n      mload(0x40)\n      dup1\n      swap2\n      sub\n      swap1\n      revert\n    tag_99:\n        /* \"Tracking.sol\":2405:2427  ShipmentStatus.PENDING */\n      0x00\n        /* \"Tracking.sol\":2386:2427  shipment.status == ShipmentStatus.PENDING */\n      0x02\n      dup2\n      gt\n      iszero\n      tag_101\n      jumpi\n      tag_102\n      tag_65\n      jump\t// in\n    tag_102:\n    tag_101:\n        /* \"Tracking.sol\":2386:2394  shipment */\n      dup3\n        /* \"Tracking.sol\":2386:2401  shipment.status */\n      0x06\n      add\n      0x00\n      swap1\n      sload\n      swap1\n      0x0100\n      exp\n      swap1\n      div\n      0xff\n      and\n        /* \"Tracking.sol\":2386:2427  shipment.status == ShipmentStatus.PENDING */\n      0x02\n      dup2\n      gt\n      iszero\n      tag_103\n      jumpi\n      tag_104\n      tag_65\n      jump\t// in\n    tag_104:\n    tag_103:\n      eq\n        /* \"Tracking.sol\":2378:2460  require(shipment.status == ShipmentStatus.PENDING, \"Shipment already in transit.\") */\n      tag_105\n      jumpi\n      mload(0x40)\n      0x08c379a000000000000000000000000000000000000000000000000000000000\n      dup2\n      mstore\n      0x04\n      add\n      tag_106\n      swap1\n      tag_107\n      jump\t// in\n    tag_106:\n      mload(0x40)\n      dup1\n      swap2\n      sub\n      swap1\n      revert\n    tag_105:\n        /* \"Tracking.sol\":2489:2514  ShipmentStatus.IN_TRANSIT */\n      0x01\n        /* \"Tracking.sol\":2471:2479  shipment */\n      dup3\n        /* \"Tracking.sol\":2471:2486  shipment.status */\n      0x06\n      add\n      0x00\n        /* \"Tracking.sol\":2471:2514  shipment.status = ShipmentStatus.IN_TRANSIT */\n      0x0100\n      exp\n      dup2\n      sload\n      dup2\n      0xff\n      mul\n      not\n      and\n      swap1\n      dup4\n      0x02\n      dup2\n      gt\n      iszero\n      tag_108\n      jumpi\n      tag_109\n      tag_65\n      jump\t// in\n    tag_109:\n    tag_108:\n      mul\n      or\n      swap1\n      sstore\n      pop\n        /* \"Tracking.sol\":2547:2572  ShipmentStatus.IN_TRANSIT */\n      0x01\n        /* \"Tracking.sol\":2525:2537  tyepShipment */\n      dup2\n        /* \"Tracking.sol\":2525:2544  tyepShipment.status */\n      0x06\n      add\n      0x00\n        /* \"Tracking.sol\":2525:2572  tyepShipment.status = ShipmentStatus.IN_TRANSIT */\n      0x0100\n      exp\n      dup2\n      sload\n      dup2\n      0xff\n      mul\n      not\n      and\n      swap1\n      dup4\n      0x02\n      dup2\n      gt\n      iszero\n      tag_110\n      jumpi\n      tag_111\n      tag_65\n      jump\t// in\n    tag_111:\n    tag_110:\n      mul\n      or\n      swap1\n      sstore\n      pop\n        /* \"Tracking.sol\":2617:2626  _receiver */\n      dup4\n        /* \"Tracking.sol\":2590:2648  ShipmentInTransit(_sender, _receiver, shipment.pickupTime) */\n      0xffffffffffffffffffffffffffffffffffffffff\n      and\n        /* \"Tracking.sol\":2608:2615  _sender */\n      dup6\n        /* \"Tracking.sol\":2590:2648  ShipmentInTransit(_sender, _receiver, shipment.pickupTime) */\n      0xffffffffffffffffffffffffffffffffffffffff\n      and\n      0xaafab9f94340179ff9cefd29621e1772a4b8efab8023163838f1b0a8f6ce5df5\n        /* \"Tracking.sol\":2628:2636  shipment */\n      dup5\n        /* \"Tracking.sol\":2628:2647  shipment.pickupTime */\n      0x02\n      add\n      sload\n        /* \"Tracking.sol\":2590:2648  ShipmentInTransit(_sender, _receiver, shipment.pickupTime) */\n      mload(0x40)\n      tag_112\n      swap2\n      swap1\n      tag_41\n      jump\t// in\n    tag_112:\n      mload(0x40)\n      dup1\n      swap2\n      sub\n      swap1\n      log3\n        /* \"Tracking.sol\":2163:2662  {... */\n      pop\n      pop\n        /* \"Tracking.sol\":2082:2662  function startShipment(address _sender, address _receiver, uint256 _index) public{... */\n      pop\n      pop\n      pop\n      jump\t// out\n        /* \"Tracking.sol\":3655:4149  function getShipment(address _sender, uint256 _index) public view returns... */\n    tag_35:\n        /* \"Tracking.sol\":3745:3752  address */\n      0x00\n        /* \"Tracking.sol\":3763:3770  address */\n      dup1\n        /* \"Tracking.sol\":3781:3788  uint256 */\n      0x00\n        /* \"Tracking.sol\":3800:3807  uint256 */\n      dup1\n        /* \"Tracking.sol\":3818:3825  uint256 */\n      0x00\n        /* \"Tracking.sol\":3836:3843  uint256 */\n      dup1\n        /* \"Tracking.sol\":3854:3868  ShipmentStatus */\n      0x00\n        /* \"Tracking.sol\":3879:3883  bool */\n      dup1\n        /* \"Tracking.sol\":3909:3933  Shipment memory shipment */\n      0x00\n        /* \"Tracking.sol\":3936:3945  shipments */\n      dup1\n        /* \"Tracking.sol\":3936:3954  shipments[_sender] */\n      0x00\n        /* \"Tracking.sol\":3946:3953  _sender */\n      dup13\n        /* \"Tracking.sol\":3936:3954  shipments[_sender] */\n      0xffffffffffffffffffffffffffffffffffffffff\n      and\n      0xffffffffffffffffffffffffffffffffffffffff\n      and\n      dup2\n      mstore\n      0x20\n      add\n      swap1\n      dup2\n      mstore\n      0x20\n      add\n      0x00\n      keccak256\n        /* \"Tracking.sol\":3955:3961  _index */\n      dup11\n        /* \"Tracking.sol\":3936:3962  shipments[_sender][_index] */\n      dup2\n      sload\n      dup2\n      lt\n      tag_114\n      jumpi\n      tag_115\n      tag_55\n      jump\t// in\n    tag_115:\n    tag_114:\n      swap1\n      0x00\n      mstore\n      keccak256(0x00, 0x20)\n      swap1\n      0x07\n      mul\n      add\n        /* \"Tracking.sol\":3909:3962  Shipment memory shipment = shipments[_sender][_index] */\n      mload(0x40)\n      dup1\n      0x0100\n      add\n      0x40\n      mstore\n      swap1\n      dup2\n      0x00\n      dup3\n      add\n      0x00\n      swap1\n      sload\n      swap1\n      0x0100\n      exp\n      swap1\n      div\n      0xffffffffffffffffffffffffffffffffffffffff\n      and\n      0xffffffffffffffffffffffffffffffffffffffff\n      and\n      0xffffffffffffffffffffffffffffffffffffffff\n      and\n      dup2\n      mstore\n      0x20\n      add\n      0x01\n      dup3\n      add\n      0x00\n      swap1\n      sload\n      swap1\n      0x0100\n      exp\n      swap1\n      div\n      0xffffffffffffffffffffffffffffffffffffffff\n      and\n      0xffffffffffffffffffffffffffffffffffffffff\n      and\n      0xffffffffffffffffffffffffffffffffffffffff\n      and\n      dup2\n      mstore\n      0x20\n      add\n      0x02\n      dup3\n      add\n      sload\n      dup2\n      mstore\n      0x20\n      add\n      0x03\n      dup3\n      add\n      sload\n      dup2\n      mstore\n      0x20\n      add\n      0x04\n      dup3\n      add\n      sload\n      dup2\n      mstore\n      0x20\n      add\n      0x05\n      dup3\n      add\n      sload\n      dup2\n      mstore\n      0x20\n      add\n      0x06\n      dup3\n      add\n      0x00\n      swap1\n      sload\n      swap1\n      0x0100\n      exp\n      swap1\n      div\n      0xff\n      and\n      0x02\n      dup2\n      gt\n      iszero\n      tag_117\n      jumpi\n      tag_118\n      tag_65\n      jump\t// in\n    tag_118:\n    tag_117:\n      0x02\n      dup2\n      gt\n      iszero\n      tag_119\n      jumpi\n      tag_120\n      tag_65\n      jump\t// in\n    tag_120:\n    tag_119:\n      dup2\n      mstore\n      0x20\n      add\n      0x06\n      dup3\n      add\n      0x01\n      swap1\n      sload\n      swap1\n      0x0100\n      exp\n      swap1\n      div\n      0xff\n      and\n      iszero\n      iszero\n      iszero\n      iszero\n      dup2\n      mstore\n      pop\n      pop\n      swap1\n      pop\n        /* \"Tracking.sol\":3981:3989  shipment */\n      dup1\n        /* \"Tracking.sol\":3981:3996  shipment.sender */\n      0x00\n      add\n      mload\n        /* \"Tracking.sol\":3998:4006  shipment */\n      dup2\n        /* \"Tracking.sol\":3998:4015  shipment.receiver */\n      0x20\n      add\n      mload\n        /* \"Tracking.sol\":4017:4025  shipment */\n      dup3\n        /* \"Tracking.sol\":4017:4036  shipment.pickupTime */\n      0x40\n      add\n      mload\n        /* \"Tracking.sol\":4038:4046  shipment */\n      dup4\n        /* \"Tracking.sol\":4038:4059  shipment.deliveryTime */\n      0x60\n      add\n      mload\n        /* \"Tracking.sol\":4061:4069  shipment */\n      dup5\n        /* \"Tracking.sol\":4061:4078  shipment.distance */\n      0x80\n      add\n      mload\n        /* \"Tracking.sol\":4080:4088  shipment */\n      dup6\n        /* \"Tracking.sol\":4080:4094  shipment.price */\n      0xa0\n      add\n      mload\n        /* \"Tracking.sol\":4096:4104  shipment */\n      dup7\n        /* \"Tracking.sol\":4096:4111  shipment.status */\n      0xc0\n      add\n      mload\n        /* \"Tracking.sol\":4113:4121  shipment */\n      dup8\n        /* \"Tracking.sol\":4113:4128  shipment.isPaid */\n      0xe0\n      add\n      mload\n        /* \"Tracking.sol\":3973:4129  return (shipment.sender, shipment.receiver, shipment.pickupTime, shipment.deliveryTime, shipment.distance, shipment.price, shipment.status, shipment.isPaid) */\n      swap9\n      pop\n      swap9\n      pop\n      swap9\n      pop\n      swap9\n      pop\n      swap9\n      pop\n      swap9\n      pop\n      swap9\n      pop\n      swap9\n      pop\n      pop\n        /* \"Tracking.sol\":3655:4149  function getShipment(address _sender, uint256 _index) public view returns... */\n      swap3\n      swap6\n      swap9\n      pop\n      swap3\n      swap6\n      swap9\n      swap1\n      swap4\n      swap7\n      pop\n      jump\t// out\n        /* \"Tracking.sol\":441:469  uint256 public shipmentCount */\n    tag_39:\n      sload(0x01)\n      dup2\n      jump\t// out\n        /* \"Tracking.sol\":4157:4282  function getShipmentCount(address _sender) public view returns (uint256){... */\n    tag_46:\n        /* \"Tracking.sol\":4221:4228  uint256 */\n      0x00\n        /* \"Tracking.sol\":4247:4256  shipments */\n      dup1\n        /* \"Tracking.sol\":4247:4265  shipments[_sender] */\n      0x00\n        /* \"Tracking.sol\":4257:4264  _sender */\n      dup4\n        /* \"Tracking.sol\":4247:4265  shipments[_sender] */\n      0xffffffffffffffffffffffffffffffffffffffff\n      and\n      0xffffffffffffffffffffffffffffffffffffffff\n      and\n      dup2\n      mstore\n      0x20\n      add\n      swap1\n      dup2\n      mstore\n      0x20\n      add\n      0x00\n      keccak256\n        /* \"Tracking.sol\":4247:4272  shipments[_sender].length */\n      dup1\n      sload\n      swap1\n      pop\n        /* \"Tracking.sol\":4240:4272  return shipments[_sender].length */\n      swap1\n      pop\n        /* \"Tracking.sol\":4157:4282  function getShipmentCount(address _sender) public view returns (uint256){... */\n      swap2\n      swap1\n      pop\n      jump\t// out\n        /* \"Tracking.sol\":1259:2074  function  createShipment(address _receiver, uint256 _pickupTime, uint256 _distance, uint256 _price)... */\n    tag_51:\n        /* \"Tracking.sol\":1409:1415  _price */\n      dup1\n        /* \"Tracking.sol\":1397:1406  msg.value */\n      callvalue\n        /* \"Tracking.sol\":1397:1415  msg.value== _price */\n      eq\n        /* \"Tracking.sol\":1389:1457  require(msg.value== _price, \"Payment amount must match the price. \") */\n      tag_123\n      jumpi\n      mload(0x40)\n      0x08c379a000000000000000000000000000000000000000000000000000000000\n      dup2\n      mstore\n      0x04\n      add\n      tag_124\n      swap1\n      tag_125\n      jump\t// in\n    tag_124:\n      mload(0x40)\n      dup1\n      swap2\n      sub\n      swap1\n      revert\n    tag_123:\n        /* \"Tracking.sol\":1468:1492  Shipment memory shipment */\n      0x00\n        /* \"Tracking.sol\":1493:1590  Shipment(msg.sender, _receiver, _pickupTime, 0, _distance, _price, ShipmentStatus.PENDING, false) */\n      mload(0x40)\n      dup1\n      0x0100\n      add\n      0x40\n      mstore\n      dup1\n        /* \"Tracking.sol\":1502:1512  msg.sender */\n      caller\n        /* \"Tracking.sol\":1493:1590  Shipment(msg.sender, _receiver, _pickupTime, 0, _distance, _price, ShipmentStatus.PENDING, false) */\n      0xffffffffffffffffffffffffffffffffffffffff\n      and\n      dup2\n      mstore\n      0x20\n      add\n        /* \"Tracking.sol\":1514:1523  _receiver */\n      dup7\n        /* \"Tracking.sol\":1493:1590  Shipment(msg.sender, _receiver, _pickupTime, 0, _distance, _price, ShipmentStatus.PENDING, false) */\n      0xffffffffffffffffffffffffffffffffffffffff\n      and\n      dup2\n      mstore\n      0x20\n      add\n        /* \"Tracking.sol\":1525:1536  _pickupTime */\n      dup6\n        /* \"Tracking.sol\":1493:1590  Shipment(msg.sender, _receiver, _pickupTime, 0, _distance, _price, ShipmentStatus.PENDING, false) */\n      dup2\n      mstore\n      0x20\n      add\n        /* \"Tracking.sol\":1538:1539  0 */\n      0x00\n        /* \"Tracking.sol\":1493:1590  Shipment(msg.sender, _receiver, _pickupTime, 0, _distance, _price, ShipmentStatus.PENDING, false) */\n      dup2\n      mstore\n      0x20\n      add\n        /* \"Tracking.sol\":1541:1550  _distance */\n      dup5\n        /* \"Tracking.sol\":1493:1590  Shipment(msg.sender, _receiver, _pickupTime, 0, _distance, _price, ShipmentStatus.PENDING, false) */\n      dup2\n      mstore\n      0x20\n      add\n        /* \"Tracking.sol\":1552:1558  _price */\n      dup4\n        /* \"Tracking.sol\":1493:1590  Shipment(msg.sender, _receiver, _pickupTime, 0, _distance, _price, ShipmentStatus.PENDING, false) */\n      dup2\n      mstore\n      0x20\n      add\n        /* \"Tracking.sol\":1560:1582  ShipmentStatus.PENDING */\n      0x00\n        /* \"Tracking.sol\":1493:1590  Shipment(msg.sender, _receiver, _pickupTime, 0, _distance, _price, ShipmentStatus.PENDING, false) */\n      0x02\n      dup2\n      gt\n      iszero\n      tag_126\n      jumpi\n      tag_127\n      tag_65\n      jump\t// in\n    tag_127:\n    tag_126:\n      dup2\n      mstore\n      0x20\n      add\n        /* \"Tracking.sol\":1584:1589  false */\n      0x00\n        /* \"Tracking.sol\":1493:1590  Shipment(msg.sender, _receiver, _pickupTime, 0, _distance, _price, ShipmentStatus.PENDING, false) */\n      iszero\n      iszero\n      dup2\n      mstore\n      pop\n        /* \"Tracking.sol\":1468:1590  Shipment memory shipment=Shipment(msg.sender, _receiver, _pickupTime, 0, _distance, _price, ShipmentStatus.PENDING, false) */\n      swap1\n      pop\n        /* \"Tracking.sol\":1601:1610  shipments */\n      0x00\n        /* \"Tracking.sol\":1601:1622  shipments[msg.sender] */\n      dup1\n        /* \"Tracking.sol\":1611:1621  msg.sender */\n      caller\n        /* \"Tracking.sol\":1601:1622  shipments[msg.sender] */\n      0xffffffffffffffffffffffffffffffffffffffff\n      and\n      0xffffffffffffffffffffffffffffffffffffffff\n      and\n      dup2\n      mstore\n      0x20\n      add\n      swap1\n      dup2\n      mstore\n      0x20\n      add\n      0x00\n      keccak256\n        /* \"Tracking.sol\":1628:1636  shipment */\n      dup2\n        /* \"Tracking.sol\":1601:1637  shipments[msg.sender].push(shipment) */\n      swap1\n      dup1\n      0x01\n      dup2\n      sload\n      add\n      dup1\n      dup3\n      sstore\n      dup1\n      swap2\n      pop\n      pop\n      0x01\n      swap1\n      sub\n      swap1\n      0x00\n      mstore\n      keccak256(0x00, 0x20)\n      swap1\n      0x07\n      mul\n      add\n      0x00\n      swap1\n      swap2\n      swap1\n      swap2\n      swap1\n      swap2\n      pop\n      0x00\n      dup3\n      add\n      mload\n      dup2\n      0x00\n      add\n      exp(0x0100, 0x00)\n      dup2\n      sload\n      dup2\n      0xffffffffffffffffffffffffffffffffffffffff\n      mul\n      not\n      and\n      swap1\n      dup4\n      0xffffffffffffffffffffffffffffffffffffffff\n      and\n      mul\n      or\n      swap1\n      sstore\n      pop\n      0x20\n      dup3\n      add\n      mload\n      dup2\n      0x01\n      add\n      exp(0x0100, 0x00)\n      dup2\n      sload\n      dup2\n      0xffffffffffffffffffffffffffffffffffffffff\n      mul\n      not\n      and\n      swap1\n      dup4\n      0xffffffffffffffffffffffffffffffffffffffff\n      and\n      mul\n      or\n      swap1\n      sstore\n      pop\n      0x40\n      dup3\n      add\n      mload\n      dup2\n      0x02\n      add\n      sstore\n      0x60\n      dup3\n      add\n      mload\n      dup2\n      0x03\n      add\n      sstore\n      0x80\n      dup3\n      add\n      mload\n      dup2\n      0x04\n      add\n      sstore\n      0xa0\n      dup3\n      add\n      mload\n      dup2\n      0x05\n      add\n      sstore\n      0xc0\n      dup3\n      add\n      mload\n      dup2\n      0x06\n      add\n      exp(0x0100, 0x00)\n      dup2\n      sload\n      dup2\n      0xff\n      mul\n      not\n      and\n      swap1\n      dup4\n      0x02\n      dup2\n      gt\n      iszero\n      tag_129\n      jumpi\n      tag_130\n      tag_65\n      jump\t// in\n    tag_130:\n    tag_129:\n      mul\n      or\n      swap1\n      sstore\n      pop\n      0xe0\n      dup3\n      add\n      mload\n      dup2\n      0x06\n      add\n      exp(0x0100, 0x01)\n      dup2\n      sload\n      dup2\n      0xff\n      mul\n      not\n      and\n      swap1\n      dup4\n      iszero\n      iszero\n      mul\n      or\n      swap1\n      sstore\n      pop\n      pop\n      pop\n        /* \"Tracking.sol\":1648:1661  shipmentCount */\n      0x01\n      0x00\n        /* \"Tracking.sol\":1648:1663  shipmentCount++ */\n      dup2\n      sload\n      dup1\n      swap3\n      swap2\n      swap1\n      tag_131\n      swap1\n      tag_132\n      jump\t// in\n    tag_131:\n      swap2\n      swap1\n      pop\n      sstore\n      pop\n        /* \"Tracking.sol\":1676:1689  tyepShipments */\n      0x02\n        /* \"Tracking.sol\":1709:1963  TyepShipment(... */\n      mload(0x40)\n      dup1\n      0x0100\n      add\n      0x40\n      mstore\n      dup1\n        /* \"Tracking.sol\":1740:1750  msg.sender */\n      caller\n        /* \"Tracking.sol\":1709:1963  TyepShipment(... */\n      0xffffffffffffffffffffffffffffffffffffffff\n      and\n      dup2\n      mstore\n      0x20\n      add\n        /* \"Tracking.sol\":1769:1778  _receiver */\n      dup8\n        /* \"Tracking.sol\":1709:1963  TyepShipment(... */\n      0xffffffffffffffffffffffffffffffffffffffff\n      and\n      dup2\n      mstore\n      0x20\n      add\n        /* \"Tracking.sol\":1797:1808  _pickupTime */\n      dup7\n        /* \"Tracking.sol\":1709:1963  TyepShipment(... */\n      dup2\n      mstore\n      0x20\n      add\n        /* \"Tracking.sol\":1827:1828  0 */\n      0x00\n        /* \"Tracking.sol\":1709:1963  TyepShipment(... */\n      dup2\n      mstore\n      0x20\n      add\n        /* \"Tracking.sol\":1847:1856  _distance */\n      dup6\n        /* \"Tracking.sol\":1709:1963  TyepShipment(... */\n      dup2\n      mstore\n      0x20\n      add\n        /* \"Tracking.sol\":1875:1881  _price */\n      dup5\n        /* \"Tracking.sol\":1709:1963  TyepShipment(... */\n      dup2\n      mstore\n      0x20\n      add\n        /* \"Tracking.sol\":1900:1922  ShipmentStatus.PENDING */\n      0x00\n        /* \"Tracking.sol\":1709:1963  TyepShipment(... */\n      0x02\n      dup2\n      gt\n      iszero\n      tag_133\n      jumpi\n      tag_134\n      tag_65\n      jump\t// in\n    tag_134:\n    tag_133:\n      dup2\n      mstore\n      0x20\n      add\n        /* \"Tracking.sol\":1941:1946  false */\n      0x00\n        /* \"Tracking.sol\":1709:1963  TyepShipment(... */\n      iszero\n      iszero\n      dup2\n      mstore\n      pop\n        /* \"Tracking.sol\":1676:1974  tyepShipments.push(... */\n      swap1\n      dup1\n      0x01\n      dup2\n      sload\n      add\n      dup1\n      dup3\n      sstore\n      dup1\n      swap2\n      pop\n      pop\n      0x01\n      swap1\n      sub\n      swap1\n      0x00\n      mstore\n      keccak256(0x00, 0x20)\n      swap1\n      0x07\n      mul\n      add\n      0x00\n      swap1\n      swap2\n      swap1\n      swap2\n      swap1\n      swap2\n      pop\n      0x00\n      dup3\n      add\n      mload\n      dup2\n      0x00\n      add\n      exp(0x0100, 0x00)\n      dup2\n      sload\n      dup2\n      0xffffffffffffffffffffffffffffffffffffffff\n      mul\n      not\n      and\n      swap1\n      dup4\n      0xffffffffffffffffffffffffffffffffffffffff\n      and\n      mul\n      or\n      swap1\n      sstore\n      pop\n      0x20\n      dup3\n      add\n      mload\n      dup2\n      0x01\n      add\n      exp(0x0100, 0x00)\n      dup2\n      sload\n      dup2\n      0xffffffffffffffffffffffffffffffffffffffff\n      mul\n      not\n      and\n      swap1\n      dup4\n      0xffffffffffffffffffffffffffffffffffffffff\n      and\n      mul\n      or\n      swap1\n      sstore\n      pop\n      0x40\n      dup3\n      add\n      mload\n      dup2\n      0x02\n      add\n      sstore\n      0x60\n      dup3\n      add\n      mload\n      dup2\n      0x03\n      add\n      sstore\n      0x80\n      dup3\n      add\n      mload\n      dup2\n      0x04\n      add\n      sstore\n      0xa0\n      dup3\n      add\n      mload\n      dup2\n      0x05\n      add\n      sstore\n      0xc0\n      dup3\n      add\n      mload\n      dup2\n      0x06\n      add\n      exp(0x0100, 0x00)\n      dup2\n      sload\n      dup2\n      0xff\n      mul\n      not\n      and\n      swap1\n      dup4\n      0x02\n      dup2\n      gt\n      iszero\n      tag_136\n      jumpi\n      tag_137\n      tag_65\n      jump\t// in\n    tag_137:\n    tag_136:\n      mul\n      or\n      swap1\n      sstore\n      pop\n      0xe0\n      dup3\n      add\n      mload\n      dup2\n      0x06\n      add\n      exp(0x0100, 0x01)\n      dup2\n      sload\n      dup2\n      0xff\n      mul\n      not\n      and\n      swap1\n      dup4\n      iszero\n      iszero\n      mul\n      or\n      swap1\n      sstore\n      pop\n      pop\n      pop\n        /* \"Tracking.sol\":2020:2029  _receiver */\n      dup5\n        /* \"Tracking.sol\":1992:2062  ShipmentCreated(msg.sender, _receiver, _pickupTime, _distance, _price) */\n      0xffffffffffffffffffffffffffffffffffffffff\n      and\n        /* \"Tracking.sol\":2008:2018  msg.sender */\n      caller\n        /* \"Tracking.sol\":1992:2062  ShipmentCreated(msg.sender, _receiver, _pickupTime, _distance, _price) */\n      0xffffffffffffffffffffffffffffffffffffffff\n      and\n      0x5001b34ecf2db5b7bbeddcbbe761ec9ecadcc7638018b98ce3e24995b0e946b6\n        /* \"Tracking.sol\":2031:2042  _pickupTime */\n      dup7\n        /* \"Tracking.sol\":2044:2053  _distance */\n      dup7\n        /* \"Tracking.sol\":2055:2061  _price */\n      dup7\n        /* \"Tracking.sol\":1992:2062  ShipmentCreated(msg.sender, _receiver, _pickupTime, _distance, _price) */\n      mload(0x40)\n      tag_138\n      swap4\n      swap3\n      swap2\n      swap1\n      tag_139\n      jump\t// in\n    tag_138:\n      mload(0x40)\n      dup1\n      swap2\n      sub\n      swap1\n      log3\n        /* \"Tracking.sol\":1378:2074  {... */\n      pop\n        /* \"Tracking.sol\":1259:2074  function  createShipment(address _receiver, uint256 _pickupTime, uint256 _distance, uint256 _price)... */\n      pop\n      pop\n      pop\n      pop\n      jump\t// out\n        /* \"#utility.yul\":88:205   */\n    tag_141:\n        /* \"#utility.yul\":197:198   */\n      0x00\n        /* \"#utility.yul\":194:195   */\n      dup1\n        /* \"#utility.yul\":187:199   */\n      revert\n        /* \"#utility.yul\":334:460   */\n    tag_143:\n        /* \"#utility.yul\":371:378   */\n      0x00\n        /* \"#utility.yul\":411:453   */\n      0xffffffffffffffffffffffffffffffffffffffff\n        /* \"#utility.yul\":404:409   */\n      dup3\n        /* \"#utility.yul\":400:454   */\n      and\n        /* \"#utility.yul\":389:454   */\n      swap1\n      pop\n        /* \"#utility.yul\":334:460   */\n      swap2\n      swap1\n      pop\n      jump\t// out\n        /* \"#utility.yul\":466:562   */\n    tag_144:\n        /* \"#utility.yul\":503:510   */\n      0x00\n        /* \"#utility.yul\":532:556   */\n      tag_187\n        /* \"#utility.yul\":550:555   */\n      dup3\n        /* \"#utility.yul\":532:556   */\n      tag_143\n      jump\t// in\n    tag_187:\n        /* \"#utility.yul\":521:556   */\n      swap1\n      pop\n        /* \"#utility.yul\":466:562   */\n      swap2\n      swap1\n      pop\n      jump\t// out\n        /* \"#utility.yul\":568:690   */\n    tag_145:\n        /* \"#utility.yul\":641:665   */\n      tag_189\n        /* \"#utility.yul\":659:664   */\n      dup2\n        /* \"#utility.yul\":641:665   */\n      tag_144\n      jump\t// in\n    tag_189:\n        /* \"#utility.yul\":634:639   */\n      dup2\n        /* \"#utility.yul\":631:666   */\n      eq\n        /* \"#utility.yul\":621:684   */\n      tag_190\n      jumpi\n        /* \"#utility.yul\":680:681   */\n      0x00\n        /* \"#utility.yul\":677:678   */\n      dup1\n        /* \"#utility.yul\":670:682   */\n      revert\n        /* \"#utility.yul\":621:684   */\n    tag_190:\n        /* \"#utility.yul\":568:690   */\n      pop\n      jump\t// out\n        /* \"#utility.yul\":696:835   */\n    tag_146:\n        /* \"#utility.yul\":742:747   */\n      0x00\n        /* \"#utility.yul\":780:786   */\n      dup2\n        /* \"#utility.yul\":767:787   */\n      calldataload\n        /* \"#utility.yul\":758:787   */\n      swap1\n      pop\n        /* \"#utility.yul\":796:829   */\n      tag_192\n        /* \"#utility.yul\":823:828   */\n      dup2\n        /* \"#utility.yul\":796:829   */\n      tag_145\n      jump\t// in\n    tag_192:\n        /* \"#utility.yul\":696:835   */\n      swap3\n      swap2\n      pop\n      pop\n      jump\t// out\n        /* \"#utility.yul\":841:918   */\n    tag_147:\n        /* \"#utility.yul\":878:885   */\n      0x00\n        /* \"#utility.yul\":907:912   */\n      dup2\n        /* \"#utility.yul\":896:912   */\n      swap1\n      pop\n        /* \"#utility.yul\":841:918   */\n      swap2\n      swap1\n      pop\n      jump\t// out\n        /* \"#utility.yul\":924:1046   */\n    tag_148:\n        /* \"#utility.yul\":997:1021   */\n      tag_195\n        /* \"#utility.yul\":1015:1020   */\n      dup2\n        /* \"#utility.yul\":997:1021   */\n      tag_147\n      jump\t// in\n    tag_195:\n        /* \"#utility.yul\":990:995   */\n      dup2\n        /* \"#utility.yul\":987:1022   */\n      eq\n        /* \"#utility.yul\":977:1040   */\n      tag_196\n      jumpi\n        /* \"#utility.yul\":1036:1037   */\n      0x00\n        /* \"#utility.yul\":1033:1034   */\n      dup1\n        /* \"#utility.yul\":1026:1038   */\n      revert\n        /* \"#utility.yul\":977:1040   */\n    tag_196:\n        /* \"#utility.yul\":924:1046   */\n      pop\n      jump\t// out\n        /* \"#utility.yul\":1052:1191   */\n    tag_149:\n        /* \"#utility.yul\":1098:1103   */\n      0x00\n        /* \"#utility.yul\":1136:1142   */\n      dup2\n        /* \"#utility.yul\":1123:1143   */\n      calldataload\n        /* \"#utility.yul\":1114:1143   */\n      swap1\n      pop\n        /* \"#utility.yul\":1152:1185   */\n      tag_198\n        /* \"#utility.yul\":1179:1184   */\n      dup2\n        /* \"#utility.yul\":1152:1185   */\n      tag_148\n      jump\t// in\n    tag_198:\n        /* \"#utility.yul\":1052:1191   */\n      swap3\n      swap2\n      pop\n      pop\n      jump\t// out\n        /* \"#utility.yul\":1197:1816   */\n    tag_14:\n        /* \"#utility.yul\":1274:1280   */\n      0x00\n        /* \"#utility.yul\":1282:1288   */\n      dup1\n        /* \"#utility.yul\":1290:1296   */\n      0x00\n        /* \"#utility.yul\":1339:1341   */\n      0x60\n        /* \"#utility.yul\":1327:1336   */\n      dup5\n        /* \"#utility.yul\":1318:1325   */\n      dup7\n        /* \"#utility.yul\":1314:1337   */\n      sub\n        /* \"#utility.yul\":1310:1342   */\n      slt\n        /* \"#utility.yul\":1307:1426   */\n      iszero\n      tag_200\n      jumpi\n        /* \"#utility.yul\":1345:1424   */\n      tag_201\n      tag_141\n      jump\t// in\n    tag_201:\n        /* \"#utility.yul\":1307:1426   */\n    tag_200:\n        /* \"#utility.yul\":1465:1466   */\n      0x00\n        /* \"#utility.yul\":1490:1543   */\n      tag_202\n        /* \"#utility.yul\":1535:1542   */\n      dup7\n        /* \"#utility.yul\":1526:1532   */\n      dup3\n        /* \"#utility.yul\":1515:1524   */\n      dup8\n        /* \"#utility.yul\":1511:1533   */\n      add\n        /* \"#utility.yul\":1490:1543   */\n      tag_146\n      jump\t// in\n    tag_202:\n        /* \"#utility.yul\":1480:1543   */\n      swap4\n      pop\n        /* \"#utility.yul\":1436:1553   */\n      pop\n        /* \"#utility.yul\":1592:1594   */\n      0x20\n        /* \"#utility.yul\":1618:1671   */\n      tag_203\n        /* \"#utility.yul\":1663:1670   */\n      dup7\n        /* \"#utility.yul\":1654:1660   */\n      dup3\n        /* \"#utility.yul\":1643:1652   */\n      dup8\n        /* \"#utility.yul\":1639:1661   */\n      add\n        /* \"#utility.yul\":1618:1671   */\n      tag_146\n      jump\t// in\n    tag_203:\n        /* \"#utility.yul\":1608:1671   */\n      swap3\n      pop\n        /* \"#utility.yul\":1563:1681   */\n      pop\n        /* \"#utility.yul\":1720:1722   */\n      0x40\n        /* \"#utility.yul\":1746:1799   */\n      tag_204\n        /* \"#utility.yul\":1791:1798   */\n      dup7\n        /* \"#utility.yul\":1782:1788   */\n      dup3\n        /* \"#utility.yul\":1771:1780   */\n      dup8\n        /* \"#utility.yul\":1767:1789   */\n      add\n        /* \"#utility.yul\":1746:1799   */\n      tag_149\n      jump\t// in\n    tag_204:\n        /* \"#utility.yul\":1736:1799   */\n      swap2\n      pop\n        /* \"#utility.yul\":1691:1809   */\n      pop\n        /* \"#utility.yul\":1197:1816   */\n      swap3\n      pop\n      swap3\n      pop\n      swap3\n      jump\t// out\n        /* \"#utility.yul\":1822:1964   */\n    tag_150:\n        /* \"#utility.yul\":1917:1923   */\n      0x00\n        /* \"#utility.yul\":1951:1956   */\n      dup2\n        /* \"#utility.yul\":1945:1957   */\n      mload\n        /* \"#utility.yul\":1935:1957   */\n      swap1\n      pop\n        /* \"#utility.yul\":1822:1964   */\n      swap2\n      swap1\n      pop\n      jump\t// out\n        /* \"#utility.yul\":1970:2182   */\n    tag_151:\n        /* \"#utility.yul\":2097:2108   */\n      0x00\n        /* \"#utility.yul\":2131:2137   */\n      dup3\n        /* \"#utility.yul\":2126:2129   */\n      dup3\n        /* \"#utility.yul\":2119:2138   */\n      mstore\n        /* \"#utility.yul\":2171:2175   */\n      0x20\n        /* \"#utility.yul\":2166:2169   */\n      dup3\n        /* \"#utility.yul\":2162:2176   */\n      add\n        /* \"#utility.yul\":2147:2176   */\n      swap1\n      pop\n        /* \"#utility.yul\":1970:2182   */\n      swap3\n      swap2\n      pop\n      pop\n      jump\t// out\n        /* \"#utility.yul\":2188:2348   */\n    tag_152:\n        /* \"#utility.yul\":2283:2287   */\n      0x00\n        /* \"#utility.yul\":2306:2309   */\n      dup2\n        /* \"#utility.yul\":2298:2309   */\n      swap1\n      pop\n        /* \"#utility.yul\":2336:2340   */\n      0x20\n        /* \"#utility.yul\":2331:2334   */\n      dup3\n        /* \"#utility.yul\":2327:2341   */\n      add\n        /* \"#utility.yul\":2319:2341   */\n      swap1\n      pop\n        /* \"#utility.yul\":2188:2348   */\n      swap2\n      swap1\n      pop\n      jump\t// out\n        /* \"#utility.yul\":2354:2462   */\n    tag_153:\n        /* \"#utility.yul\":2431:2455   */\n      tag_209\n        /* \"#utility.yul\":2449:2454   */\n      dup2\n        /* \"#utility.yul\":2431:2455   */\n      tag_144\n      jump\t// in\n    tag_209:\n        /* \"#utility.yul\":2426:2429   */\n      dup3\n        /* \"#utility.yul\":2419:2456   */\n      mstore\n        /* \"#utility.yul\":2354:2462   */\n      pop\n      pop\n      jump\t// out\n        /* \"#utility.yul\":2468:2576   */\n    tag_154:\n        /* \"#utility.yul\":2545:2569   */\n      tag_211\n        /* \"#utility.yul\":2563:2568   */\n      dup2\n        /* \"#utility.yul\":2545:2569   */\n      tag_147\n      jump\t// in\n    tag_211:\n        /* \"#utility.yul\":2540:2543   */\n      dup3\n        /* \"#utility.yul\":2533:2570   */\n      mstore\n        /* \"#utility.yul\":2468:2576   */\n      pop\n      pop\n      jump\t// out\n        /* \"#utility.yul\":2582:2762   */\n    tag_65:\n        /* \"#utility.yul\":2630:2707   */\n      0x4e487b7100000000000000000000000000000000000000000000000000000000\n        /* \"#utility.yul\":2627:2628   */\n      0x00\n        /* \"#utility.yul\":2620:2708   */\n      mstore\n        /* \"#utility.yul\":2727:2731   */\n      0x21\n        /* \"#utility.yul\":2724:2725   */\n      0x04\n        /* \"#utility.yul\":2717:2732   */\n      mstore\n        /* \"#utility.yul\":2751:2755   */\n      0x24\n        /* \"#utility.yul\":2748:2749   */\n      0x00\n        /* \"#utility.yul\":2741:2756   */\n      revert\n        /* \"#utility.yul\":2768:2889   */\n    tag_155:\n        /* \"#utility.yul\":2857:2858   */\n      0x03\n        /* \"#utility.yul\":2850:2855   */\n      dup2\n        /* \"#utility.yul\":2847:2859   */\n      lt\n        /* \"#utility.yul\":2837:2883   */\n      tag_214\n      jumpi\n        /* \"#utility.yul\":2863:2881   */\n      tag_215\n      tag_65\n      jump\t// in\n    tag_215:\n        /* \"#utility.yul\":2837:2883   */\n    tag_214:\n        /* \"#utility.yul\":2768:2889   */\n      pop\n      jump\t// out\n        /* \"#utility.yul\":2895:3038   */\n    tag_156:\n        /* \"#utility.yul\":2948:2955   */\n      0x00\n        /* \"#utility.yul\":2977:2982   */\n      dup2\n        /* \"#utility.yul\":2966:2982   */\n      swap1\n      pop\n        /* \"#utility.yul\":2983:3032   */\n      tag_217\n        /* \"#utility.yul\":3026:3031   */\n      dup3\n        /* \"#utility.yul\":2983:3032   */\n      tag_155\n      jump\t// in\n    tag_217:\n        /* \"#utility.yul\":2895:3038   */\n      swap2\n      swap1\n      pop\n      jump\t// out\n        /* \"#utility.yul\":3044:3187   */\n    tag_157:\n        /* \"#utility.yul\":3108:3117   */\n      0x00\n        /* \"#utility.yul\":3141:3181   */\n      tag_219\n        /* \"#utility.yul\":3175:3180   */\n      dup3\n        /* \"#utility.yul\":3141:3181   */\n      tag_156\n      jump\t// in\n    tag_219:\n        /* \"#utility.yul\":3128:3181   */\n      swap1\n      pop\n        /* \"#utility.yul\":3044:3187   */\n      swap2\n      swap1\n      pop\n      jump\t// out\n        /* \"#utility.yul\":3193:3342   */\n    tag_158:\n        /* \"#utility.yul\":3284:3335   */\n      tag_221\n        /* \"#utility.yul\":3329:3334   */\n      dup2\n        /* \"#utility.yul\":3284:3335   */\n      tag_157\n      jump\t// in\n    tag_221:\n        /* \"#utility.yul\":3279:3282   */\n      dup3\n        /* \"#utility.yul\":3272:3336   */\n      mstore\n        /* \"#utility.yul\":3193:3342   */\n      pop\n      pop\n      jump\t// out\n        /* \"#utility.yul\":3348:3438   */\n    tag_159:\n        /* \"#utility.yul\":3382:3389   */\n      0x00\n        /* \"#utility.yul\":3425:3430   */\n      dup2\n        /* \"#utility.yul\":3418:3431   */\n      iszero\n        /* \"#utility.yul\":3411:3432   */\n      iszero\n        /* \"#utility.yul\":3400:3432   */\n      swap1\n      pop\n        /* \"#utility.yul\":3348:3438   */\n      swap2\n      swap1\n      pop\n      jump\t// out\n        /* \"#utility.yul\":3444:3543   */\n    tag_160:\n        /* \"#utility.yul\":3515:3536   */\n      tag_224\n        /* \"#utility.yul\":3530:3535   */\n      dup2\n        /* \"#utility.yul\":3515:3536   */\n      tag_159\n      jump\t// in\n    tag_224:\n        /* \"#utility.yul\":3510:3513   */\n      dup3\n        /* \"#utility.yul\":3503:3537   */\n      mstore\n        /* \"#utility.yul\":3444:3543   */\n      pop\n      pop\n      jump\t// out\n        /* \"#utility.yul\":3617:5203   */\n    tag_161:\n        /* \"#utility.yul\":3760:3766   */\n      0x0100\n        /* \"#utility.yul\":3755:3758   */\n      dup3\n        /* \"#utility.yul\":3751:3767   */\n      add\n        /* \"#utility.yul\":3851:3855   */\n      0x00\n        /* \"#utility.yul\":3844:3849   */\n      dup3\n        /* \"#utility.yul\":3840:3856   */\n      add\n        /* \"#utility.yul\":3834:3857   */\n      mload\n        /* \"#utility.yul\":3870:3933   */\n      tag_226\n        /* \"#utility.yul\":3927:3931   */\n      0x00\n        /* \"#utility.yul\":3922:3925   */\n      dup6\n        /* \"#utility.yul\":3918:3932   */\n      add\n        /* \"#utility.yul\":3904:3916   */\n      dup3\n        /* \"#utility.yul\":3870:3933   */\n      tag_153\n      jump\t// in\n    tag_226:\n        /* \"#utility.yul\":3777:3943   */\n      pop\n        /* \"#utility.yul\":4029:4033   */\n      0x20\n        /* \"#utility.yul\":4022:4027   */\n      dup3\n        /* \"#utility.yul\":4018:4034   */\n      add\n        /* \"#utility.yul\":4012:4035   */\n      mload\n        /* \"#utility.yul\":4048:4111   */\n      tag_227\n        /* \"#utility.yul\":4105:4109   */\n      0x20\n        /* \"#utility.yul\":4100:4103   */\n      dup6\n        /* \"#utility.yul\":4096:4110   */\n      add\n        /* \"#utility.yul\":4082:4094   */\n      dup3\n        /* \"#utility.yul\":4048:4111   */\n      tag_153\n      jump\t// in\n    tag_227:\n        /* \"#utility.yul\":3953:4121   */\n      pop\n        /* \"#utility.yul\":4209:4213   */\n      0x40\n        /* \"#utility.yul\":4202:4207   */\n      dup3\n        /* \"#utility.yul\":4198:4214   */\n      add\n        /* \"#utility.yul\":4192:4215   */\n      mload\n        /* \"#utility.yul\":4228:4291   */\n      tag_228\n        /* \"#utility.yul\":4285:4289   */\n      0x40\n        /* \"#utility.yul\":4280:4283   */\n      dup6\n        /* \"#utility.yul\":4276:4290   */\n      add\n        /* \"#utility.yul\":4262:4274   */\n      dup3\n        /* \"#utility.yul\":4228:4291   */\n      tag_154\n      jump\t// in\n    tag_228:\n        /* \"#utility.yul\":4131:4301   */\n      pop\n        /* \"#utility.yul\":4391:4395   */\n      0x60\n        /* \"#utility.yul\":4384:4389   */\n      dup3\n        /* \"#utility.yul\":4380:4396   */\n      add\n        /* \"#utility.yul\":4374:4397   */\n      mload\n        /* \"#utility.yul\":4410:4473   */\n      tag_229\n        /* \"#utility.yul\":4467:4471   */\n      0x60\n        /* \"#utility.yul\":4462:4465   */\n      dup6\n        /* \"#utility.yul\":4458:4472   */\n      add\n        /* \"#utility.yul\":4444:4456   */\n      dup3\n        /* \"#utility.yul\":4410:4473   */\n      tag_154\n      jump\t// in\n    tag_229:\n        /* \"#utility.yul\":4311:4483   */\n      pop\n        /* \"#utility.yul\":4569:4573   */\n      0x80\n        /* \"#utility.yul\":4562:4567   */\n      dup3\n        /* \"#utility.yul\":4558:4574   */\n      add\n        /* \"#utility.yul\":4552:4575   */\n      mload\n        /* \"#utility.yul\":4588:4651   */\n      tag_230\n        /* \"#utility.yul\":4645:4649   */\n      0x80\n        /* \"#utility.yul\":4640:4643   */\n      dup6\n        /* \"#utility.yul\":4636:4650   */\n      add\n        /* \"#utility.yul\":4622:4634   */\n      dup3\n        /* \"#utility.yul\":4588:4651   */\n      tag_154\n      jump\t// in\n    tag_230:\n        /* \"#utility.yul\":4493:4661   */\n      pop\n        /* \"#utility.yul\":4744:4748   */\n      0xa0\n        /* \"#utility.yul\":4737:4742   */\n      dup3\n        /* \"#utility.yul\":4733:4749   */\n      add\n        /* \"#utility.yul\":4727:4750   */\n      mload\n        /* \"#utility.yul\":4763:4826   */\n      tag_231\n        /* \"#utility.yul\":4820:4824   */\n      0xa0\n        /* \"#utility.yul\":4815:4818   */\n      dup6\n        /* \"#utility.yul\":4811:4825   */\n      add\n        /* \"#utility.yul\":4797:4809   */\n      dup3\n        /* \"#utility.yul\":4763:4826   */\n      tag_154\n      jump\t// in\n    tag_231:\n        /* \"#utility.yul\":4671:4836   */\n      pop\n        /* \"#utility.yul\":4920:4924   */\n      0xc0\n        /* \"#utility.yul\":4913:4918   */\n      dup3\n        /* \"#utility.yul\":4909:4925   */\n      add\n        /* \"#utility.yul\":4903:4926   */\n      mload\n        /* \"#utility.yul\":4939:5016   */\n      tag_232\n        /* \"#utility.yul\":5010:5014   */\n      0xc0\n        /* \"#utility.yul\":5005:5008   */\n      dup6\n        /* \"#utility.yul\":5001:5015   */\n      add\n        /* \"#utility.yul\":4987:4999   */\n      dup3\n        /* \"#utility.yul\":4939:5016   */\n      tag_158\n      jump\t// in\n    tag_232:\n        /* \"#utility.yul\":4846:5026   */\n      pop\n        /* \"#utility.yul\":5110:5114   */\n      0xe0\n        /* \"#utility.yul\":5103:5108   */\n      dup3\n        /* \"#utility.yul\":5099:5115   */\n      add\n        /* \"#utility.yul\":5093:5116   */\n      mload\n        /* \"#utility.yul\":5129:5186   */\n      tag_233\n        /* \"#utility.yul\":5180:5184   */\n      0xe0\n        /* \"#utility.yul\":5175:5178   */\n      dup6\n        /* \"#utility.yul\":5171:5185   */\n      add\n        /* \"#utility.yul\":5157:5169   */\n      dup3\n        /* \"#utility.yul\":5129:5186   */\n      tag_160\n      jump\t// in\n    tag_233:\n        /* \"#utility.yul\":5036:5196   */\n      pop\n        /* \"#utility.yul\":3729:5203   */\n      pop\n        /* \"#utility.yul\":3617:5203   */\n      pop\n      pop\n      jump\t// out\n        /* \"#utility.yul\":5209:5502   */\n    tag_162:\n        /* \"#utility.yul\":5334:5344   */\n      0x00\n        /* \"#utility.yul\":5355:5457   */\n      tag_235\n        /* \"#utility.yul\":5453:5456   */\n      dup4\n        /* \"#utility.yul\":5445:5451   */\n      dup4\n        /* \"#utility.yul\":5355:5457   */\n      tag_161\n      jump\t// in\n    tag_235:\n        /* \"#utility.yul\":5489:5495   */\n      0x0100\n        /* \"#utility.yul\":5484:5487   */\n      dup4\n        /* \"#utility.yul\":5480:5496   */\n      add\n        /* \"#utility.yul\":5466:5496   */\n      swap1\n      pop\n        /* \"#utility.yul\":5209:5502   */\n      swap3\n      swap2\n      pop\n      pop\n      jump\t// out\n        /* \"#utility.yul\":5508:5649   */\n    tag_163:\n        /* \"#utility.yul\":5606:5610   */\n      0x00\n        /* \"#utility.yul\":5638:5642   */\n      0x20\n        /* \"#utility.yul\":5633:5636   */\n      dup3\n        /* \"#utility.yul\":5629:5643   */\n      add\n        /* \"#utility.yul\":5621:5643   */\n      swap1\n      pop\n        /* \"#utility.yul\":5508:5649   */\n      swap2\n      swap1\n      pop\n      jump\t// out\n        /* \"#utility.yul\":5727:6683   */\n    tag_164:\n        /* \"#utility.yul\":5902:5905   */\n      0x00\n        /* \"#utility.yul\":5931:6013   */\n      tag_238\n        /* \"#utility.yul\":6007:6012   */\n      dup3\n        /* \"#utility.yul\":5931:6013   */\n      tag_150\n      jump\t// in\n    tag_238:\n        /* \"#utility.yul\":6029:6143   */\n      tag_239\n        /* \"#utility.yul\":6136:6142   */\n      dup2\n        /* \"#utility.yul\":6131:6134   */\n      dup6\n        /* \"#utility.yul\":6029:6143   */\n      tag_151\n      jump\t// in\n    tag_239:\n        /* \"#utility.yul\":6022:6143   */\n      swap4\n      pop\n        /* \"#utility.yul\":6167:6251   */\n      tag_240\n        /* \"#utility.yul\":6245:6250   */\n      dup4\n        /* \"#utility.yul\":6167:6251   */\n      tag_152\n      jump\t// in\n    tag_240:\n        /* \"#utility.yul\":6274:6281   */\n      dup1\n        /* \"#utility.yul\":6305:6306   */\n      0x00\n        /* \"#utility.yul\":6290:6658   */\n    tag_241:\n        /* \"#utility.yul\":6315:6321   */\n      dup4\n        /* \"#utility.yul\":6312:6313   */\n      dup2\n        /* \"#utility.yul\":6309:6322   */\n      lt\n        /* \"#utility.yul\":6290:6658   */\n      iszero\n      tag_243\n      jumpi\n        /* \"#utility.yul\":6391:6397   */\n      dup2\n        /* \"#utility.yul\":6385:6398   */\n      mload\n        /* \"#utility.yul\":6418:6537   */\n      tag_244\n        /* \"#utility.yul\":6533:6536   */\n      dup9\n        /* \"#utility.yul\":6518:6531   */\n      dup3\n        /* \"#utility.yul\":6418:6537   */\n      tag_162\n      jump\t// in\n    tag_244:\n        /* \"#utility.yul\":6411:6537   */\n      swap8\n      pop\n        /* \"#utility.yul\":6560:6648   */\n      tag_245\n        /* \"#utility.yul\":6641:6647   */\n      dup4\n        /* \"#utility.yul\":6560:6648   */\n      tag_163\n      jump\t// in\n    tag_245:\n        /* \"#utility.yul\":6550:6648   */\n      swap3\n      pop\n        /* \"#utility.yul\":6350:6658   */\n      pop\n        /* \"#utility.yul\":6337:6338   */\n      0x01\n        /* \"#utility.yul\":6334:6335   */\n      dup2\n        /* \"#utility.yul\":6330:6339   */\n      add\n        /* \"#utility.yul\":6325:6339   */\n      swap1\n      pop\n        /* \"#utility.yul\":6290:6658   */\n      jump(tag_241)\n    tag_243:\n        /* \"#utility.yul\":6294:6308   */\n      pop\n        /* \"#utility.yul\":6674:6677   */\n      dup6\n        /* \"#utility.yul\":6667:6677   */\n      swap4\n      pop\n        /* \"#utility.yul\":5907:6683   */\n      pop\n      pop\n      pop\n        /* \"#utility.yul\":5727:6683   */\n      swap3\n      swap2\n      pop\n      pop\n      jump\t// out\n        /* \"#utility.yul\":6689:7174   */\n    tag_20:\n        /* \"#utility.yul\":6888:6892   */\n      0x00\n        /* \"#utility.yul\":6926:6928   */\n      0x20\n        /* \"#utility.yul\":6915:6924   */\n      dup3\n        /* \"#utility.yul\":6911:6929   */\n      add\n        /* \"#utility.yul\":6903:6929   */\n      swap1\n      pop\n        /* \"#utility.yul\":6975:6984   */\n      dup2\n        /* \"#utility.yul\":6969:6973   */\n      dup2\n        /* \"#utility.yul\":6965:6985   */\n      sub\n        /* \"#utility.yul\":6961:6962   */\n      0x00\n        /* \"#utility.yul\":6950:6959   */\n      dup4\n        /* \"#utility.yul\":6946:6963   */\n      add\n        /* \"#utility.yul\":6939:6986   */\n      mstore\n        /* \"#utility.yul\":7003:7167   */\n      tag_247\n        /* \"#utility.yul\":7162:7166   */\n      dup2\n        /* \"#utility.yul\":7153:7159   */\n      dup5\n        /* \"#utility.yul\":7003:7167   */\n      tag_164\n      jump\t// in\n    tag_247:\n        /* \"#utility.yul\":6995:7167   */\n      swap1\n      pop\n        /* \"#utility.yul\":6689:7174   */\n      swap3\n      swap2\n      pop\n      pop\n      jump\t// out\n        /* \"#utility.yul\":7180:7654   */\n    tag_24:\n        /* \"#utility.yul\":7248:7254   */\n      0x00\n        /* \"#utility.yul\":7256:7262   */\n      dup1\n        /* \"#utility.yul\":7305:7307   */\n      0x40\n        /* \"#utility.yul\":7293:7302   */\n      dup4\n        /* \"#utility.yul\":7284:7291   */\n      dup6\n        /* \"#utility.yul\":7280:7303   */\n      sub\n        /* \"#utility.yul\":7276:7308   */\n      slt\n        /* \"#utility.yul\":7273:7392   */\n      iszero\n      tag_249\n      jumpi\n        /* \"#utility.yul\":7311:7390   */\n      tag_250\n      tag_141\n      jump\t// in\n    tag_250:\n        /* \"#utility.yul\":7273:7392   */\n    tag_249:\n        /* \"#utility.yul\":7431:7432   */\n      0x00\n        /* \"#utility.yul\":7456:7509   */\n      tag_251\n        /* \"#utility.yul\":7501:7508   */\n      dup6\n        /* \"#utility.yul\":7492:7498   */\n      dup3\n        /* \"#utility.yul\":7481:7490   */\n      dup7\n        /* \"#utility.yul\":7477:7499   */\n      add\n        /* \"#utility.yul\":7456:7509   */\n      tag_146\n      jump\t// in\n    tag_251:\n        /* \"#utility.yul\":7446:7509   */\n      swap3\n      pop\n        /* \"#utility.yul\":7402:7519   */\n      pop\n        /* \"#utility.yul\":7558:7560   */\n      0x20\n        /* \"#utility.yul\":7584:7637   */\n      tag_252\n        /* \"#utility.yul\":7629:7636   */\n      dup6\n        /* \"#utility.yul\":7620:7626   */\n      dup3\n        /* \"#utility.yul\":7609:7618   */\n      dup7\n        /* \"#utility.yul\":7605:7627   */\n      add\n        /* \"#utility.yul\":7584:7637   */\n      tag_149\n      jump\t// in\n    tag_252:\n        /* \"#utility.yul\":7574:7637   */\n      swap2\n      pop\n        /* \"#utility.yul\":7529:7647   */\n      pop\n        /* \"#utility.yul\":7180:7654   */\n      swap3\n      pop\n      swap3\n      swap1\n      pop\n      jump\t// out\n        /* \"#utility.yul\":7660:7778   */\n    tag_165:\n        /* \"#utility.yul\":7747:7771   */\n      tag_254\n        /* \"#utility.yul\":7765:7770   */\n      dup2\n        /* \"#utility.yul\":7747:7771   */\n      tag_144\n      jump\t// in\n    tag_254:\n        /* \"#utility.yul\":7742:7745   */\n      dup3\n        /* \"#utility.yul\":7735:7772   */\n      mstore\n        /* \"#utility.yul\":7660:7778   */\n      pop\n      pop\n      jump\t// out\n        /* \"#utility.yul\":7784:7902   */\n    tag_166:\n        /* \"#utility.yul\":7871:7895   */\n      tag_256\n        /* \"#utility.yul\":7889:7894   */\n      dup2\n        /* \"#utility.yul\":7871:7895   */\n      tag_147\n      jump\t// in\n    tag_256:\n        /* \"#utility.yul\":7866:7869   */\n      dup3\n        /* \"#utility.yul\":7859:7896   */\n      mstore\n        /* \"#utility.yul\":7784:7902   */\n      pop\n      pop\n      jump\t// out\n        /* \"#utility.yul\":7908:8067   */\n    tag_167:\n        /* \"#utility.yul\":8009:8060   */\n      tag_258\n        /* \"#utility.yul\":8054:8059   */\n      dup2\n        /* \"#utility.yul\":8009:8060   */\n      tag_157\n      jump\t// in\n    tag_258:\n        /* \"#utility.yul\":8004:8007   */\n      dup3\n        /* \"#utility.yul\":7997:8061   */\n      mstore\n        /* \"#utility.yul\":7908:8067   */\n      pop\n      pop\n      jump\t// out\n        /* \"#utility.yul\":8073:8182   */\n    tag_168:\n        /* \"#utility.yul\":8154:8175   */\n      tag_260\n        /* \"#utility.yul\":8169:8174   */\n      dup2\n        /* \"#utility.yul\":8154:8175   */\n      tag_159\n      jump\t// in\n    tag_260:\n        /* \"#utility.yul\":8149:8152   */\n      dup3\n        /* \"#utility.yul\":8142:8176   */\n      mstore\n        /* \"#utility.yul\":8073:8182   */\n      pop\n      pop\n      jump\t// out\n        /* \"#utility.yul\":8188:9201   */\n    tag_27:\n        /* \"#utility.yul\":8485:8489   */\n      0x00\n        /* \"#utility.yul\":8523:8526   */\n      0x0100\n        /* \"#utility.yul\":8512:8521   */\n      dup3\n        /* \"#utility.yul\":8508:8527   */\n      add\n        /* \"#utility.yul\":8500:8527   */\n      swap1\n      pop\n        /* \"#utility.yul\":8537:8608   */\n      tag_262\n        /* \"#utility.yul\":8605:8606   */\n      0x00\n        /* \"#utility.yul\":8594:8603   */\n      dup4\n        /* \"#utility.yul\":8590:8607   */\n      add\n        /* \"#utility.yul\":8581:8587   */\n      dup12\n        /* \"#utility.yul\":8537:8608   */\n      tag_165\n      jump\t// in\n    tag_262:\n        /* \"#utility.yul\":8618:8690   */\n      tag_263\n        /* \"#utility.yul\":8686:8688   */\n      0x20\n        /* \"#utility.yul\":8675:8684   */\n      dup4\n        /* \"#utility.yul\":8671:8689   */\n      add\n        /* \"#utility.yul\":8662:8668   */\n      dup11\n        /* \"#utility.yul\":8618:8690   */\n      tag_165\n      jump\t// in\n    tag_263:\n        /* \"#utility.yul\":8700:8772   */\n      tag_264\n        /* \"#utility.yul\":8768:8770   */\n      0x40\n        /* \"#utility.yul\":8757:8766   */\n      dup4\n        /* \"#utility.yul\":8753:8771   */\n      add\n        /* \"#utility.yul\":8744:8750   */\n      dup10\n        /* \"#utility.yul\":8700:8772   */\n      tag_166\n      jump\t// in\n    tag_264:\n        /* \"#utility.yul\":8782:8854   */\n      tag_265\n        /* \"#utility.yul\":8850:8852   */\n      0x60\n        /* \"#utility.yul\":8839:8848   */\n      dup4\n        /* \"#utility.yul\":8835:8853   */\n      add\n        /* \"#utility.yul\":8826:8832   */\n      dup9\n        /* \"#utility.yul\":8782:8854   */\n      tag_166\n      jump\t// in\n    tag_265:\n        /* \"#utility.yul\":8864:8937   */\n      tag_266\n        /* \"#utility.yul\":8932:8935   */\n      0x80\n        /* \"#utility.yul\":8921:8930   */\n      dup4\n        /* \"#utility.yul\":8917:8936   */\n      add\n        /* \"#utility.yul\":8908:8914   */\n      dup8\n        /* \"#utility.yul\":8864:8937   */\n      tag_166\n      jump\t// in\n    tag_266:\n        /* \"#utility.yul\":8947:9020   */\n      tag_267\n        /* \"#utility.yul\":9015:9018   */\n      0xa0\n        /* \"#utility.yul\":9004:9013   */\n      dup4\n        /* \"#utility.yul\":9000:9019   */\n      add\n        /* \"#utility.yul\":8991:8997   */\n      dup7\n        /* \"#utility.yul\":8947:9020   */\n      tag_166\n      jump\t// in\n    tag_267:\n        /* \"#utility.yul\":9030:9117   */\n      tag_268\n        /* \"#utility.yul\":9112:9115   */\n      0xc0\n        /* \"#utility.yul\":9101:9110   */\n      dup4\n        /* \"#utility.yul\":9097:9116   */\n      add\n        /* \"#utility.yul\":9088:9094   */\n      dup6\n        /* \"#utility.yul\":9030:9117   */\n      tag_167\n      jump\t// in\n    tag_268:\n        /* \"#utility.yul\":9127:9194   */\n      tag_269\n        /* \"#utility.yul\":9189:9192   */\n      0xe0\n        /* \"#utility.yul\":9178:9187   */\n      dup4\n        /* \"#utility.yul\":9174:9193   */\n      add\n        /* \"#utility.yul\":9165:9171   */\n      dup5\n        /* \"#utility.yul\":9127:9194   */\n      tag_168\n      jump\t// in\n    tag_269:\n        /* \"#utility.yul\":8188:9201   */\n      swap10\n      swap9\n      pop\n      pop\n      pop\n      pop\n      pop\n      pop\n      pop\n      pop\n      pop\n      jump\t// out\n        /* \"#utility.yul\":9207:9429   */\n    tag_41:\n        /* \"#utility.yul\":9300:9304   */\n      0x00\n        /* \"#utility.yul\":9338:9340   */\n      0x20\n        /* \"#utility.yul\":9327:9336   */\n      dup3\n        /* \"#utility.yul\":9323:9341   */\n      add\n        /* \"#utility.yul\":9315:9341   */\n      swap1\n      pop\n        /* \"#utility.yul\":9351:9422   */\n      tag_271\n        /* \"#utility.yul\":9419:9420   */\n      0x00\n        /* \"#utility.yul\":9408:9417   */\n      dup4\n        /* \"#utility.yul\":9404:9421   */\n      add\n        /* \"#utility.yul\":9395:9401   */\n      dup5\n        /* \"#utility.yul\":9351:9422   */\n      tag_166\n      jump\t// in\n    tag_271:\n        /* \"#utility.yul\":9207:9429   */\n      swap3\n      swap2\n      pop\n      pop\n      jump\t// out\n        /* \"#utility.yul\":9435:9764   */\n    tag_45:\n        /* \"#utility.yul\":9494:9500   */\n      0x00\n        /* \"#utility.yul\":9543:9545   */\n      0x20\n        /* \"#utility.yul\":9531:9540   */\n      dup3\n        /* \"#utility.yul\":9522:9529   */\n      dup5\n        /* \"#utility.yul\":9518:9541   */\n      sub\n        /* \"#utility.yul\":9514:9546   */\n      slt\n        /* \"#utility.yul\":9511:9630   */\n      iszero\n      tag_273\n      jumpi\n        /* \"#utility.yul\":9549:9628   */\n      tag_274\n      tag_141\n      jump\t// in\n    tag_274:\n        /* \"#utility.yul\":9511:9630   */\n    tag_273:\n        /* \"#utility.yul\":9669:9670   */\n      0x00\n        /* \"#utility.yul\":9694:9747   */\n      tag_275\n        /* \"#utility.yul\":9739:9746   */\n      dup5\n        /* \"#utility.yul\":9730:9736   */\n      dup3\n        /* \"#utility.yul\":9719:9728   */\n      dup6\n        /* \"#utility.yul\":9715:9737   */\n      add\n        /* \"#utility.yul\":9694:9747   */\n      tag_146\n      jump\t// in\n    tag_275:\n        /* \"#utility.yul\":9684:9747   */\n      swap2\n      pop\n        /* \"#utility.yul\":9640:9757   */\n      pop\n        /* \"#utility.yul\":9435:9764   */\n      swap3\n      swap2\n      pop\n      pop\n      jump\t// out\n        /* \"#utility.yul\":9770:10535   */\n    tag_50:\n        /* \"#utility.yul\":9856:9862   */\n      0x00\n        /* \"#utility.yul\":9864:9870   */\n      dup1\n        /* \"#utility.yul\":9872:9878   */\n      0x00\n        /* \"#utility.yul\":9880:9886   */\n      dup1\n        /* \"#utility.yul\":9929:9932   */\n      0x80\n        /* \"#utility.yul\":9917:9926   */\n      dup6\n        /* \"#utility.yul\":9908:9915   */\n      dup8\n        /* \"#utility.yul\":9904:9927   */\n      sub\n        /* \"#utility.yul\":9900:9933   */\n      slt\n        /* \"#utility.yul\":9897:10017   */\n      iszero\n      tag_277\n      jumpi\n        /* \"#utility.yul\":9936:10015   */\n      tag_278\n      tag_141\n      jump\t// in\n    tag_278:\n        /* \"#utility.yul\":9897:10017   */\n    tag_277:\n        /* \"#utility.yul\":10056:10057   */\n      0x00\n        /* \"#utility.yul\":10081:10134   */\n      tag_279\n        /* \"#utility.yul\":10126:10133   */\n      dup8\n        /* \"#utility.yul\":10117:10123   */\n      dup3\n        /* \"#utility.yul\":10106:10115   */\n      dup9\n        /* \"#utility.yul\":10102:10124   */\n      add\n        /* \"#utility.yul\":10081:10134   */\n      tag_146\n      jump\t// in\n    tag_279:\n        /* \"#utility.yul\":10071:10134   */\n      swap5\n      pop\n        /* \"#utility.yul\":10027:10144   */\n      pop\n        /* \"#utility.yul\":10183:10185   */\n      0x20\n        /* \"#utility.yul\":10209:10262   */\n      tag_280\n        /* \"#utility.yul\":10254:10261   */\n      dup8\n        /* \"#utility.yul\":10245:10251   */\n      dup3\n        /* \"#utility.yul\":10234:10243   */\n      dup9\n        /* \"#utility.yul\":10230:10252   */\n      add\n        /* \"#utility.yul\":10209:10262   */\n      tag_149\n      jump\t// in\n    tag_280:\n        /* \"#utility.yul\":10199:10262   */\n      swap4\n      pop\n        /* \"#utility.yul\":10154:10272   */\n      pop\n        /* \"#utility.yul\":10311:10313   */\n      0x40\n        /* \"#utility.yul\":10337:10390   */\n      tag_281\n        /* \"#utility.yul\":10382:10389   */\n      dup8\n        /* \"#utility.yul\":10373:10379   */\n      dup3\n        /* \"#utility.yul\":10362:10371   */\n      dup9\n        /* \"#utility.yul\":10358:10380   */\n      add\n        /* \"#utility.yul\":10337:10390   */\n      tag_149\n      jump\t// in\n    tag_281:\n        /* \"#utility.yul\":10327:10390   */\n      swap3\n      pop\n        /* \"#utility.yul\":10282:10400   */\n      pop\n        /* \"#utility.yul\":10439:10441   */\n      0x60\n        /* \"#utility.yul\":10465:10518   */\n      tag_282\n        /* \"#utility.yul\":10510:10517   */\n      dup8\n        /* \"#utility.yul\":10501:10507   */\n      dup3\n        /* \"#utility.yul\":10490:10499   */\n      dup9\n        /* \"#utility.yul\":10486:10508   */\n      add\n        /* \"#utility.yul\":10465:10518   */\n      tag_149\n      jump\t// in\n    tag_282:\n        /* \"#utility.yul\":10455:10518   */\n      swap2\n      pop\n        /* \"#utility.yul\":10410:10528   */\n      pop\n        /* \"#utility.yul\":9770:10535   */\n      swap3\n      swap6\n      swap2\n      swap5\n      pop\n      swap3\n      pop\n      jump\t// out\n        /* \"#utility.yul\":10541:10721   */\n    tag_55:\n        /* \"#utility.yul\":10589:10666   */\n      0x4e487b7100000000000000000000000000000000000000000000000000000000\n        /* \"#utility.yul\":10586:10587   */\n      0x00\n        /* \"#utility.yul\":10579:10667   */\n      mstore\n        /* \"#utility.yul\":10686:10690   */\n      0x32\n        /* \"#utility.yul\":10683:10684   */\n      0x04\n        /* \"#utility.yul\":10676:10691   */\n      mstore\n        /* \"#utility.yul\":10710:10714   */\n      0x24\n        /* \"#utility.yul\":10707:10708   */\n      0x00\n        /* \"#utility.yul\":10700:10715   */\n      revert\n        /* \"#utility.yul\":10727:10896   */\n    tag_169:\n        /* \"#utility.yul\":10811:10822   */\n      0x00\n        /* \"#utility.yul\":10845:10851   */\n      dup3\n        /* \"#utility.yul\":10840:10843   */\n      dup3\n        /* \"#utility.yul\":10833:10852   */\n      mstore\n        /* \"#utility.yul\":10885:10889   */\n      0x20\n        /* \"#utility.yul\":10880:10883   */\n      dup3\n        /* \"#utility.yul\":10876:10890   */\n      add\n        /* \"#utility.yul\":10861:10890   */\n      swap1\n      pop\n        /* \"#utility.yul\":10727:10896   */\n      swap3\n      swap2\n      pop\n      pop\n      jump\t// out\n        /* \"#utility.yul\":10902:11069   */\n    tag_170:\n        /* \"#utility.yul\":11042:11061   */\n      0x496e76616c69642072656365697665722e000000000000000000000000000000\n        /* \"#utility.yul\":11038:11039   */\n      0x00\n        /* \"#utility.yul\":11030:11036   */\n      dup3\n        /* \"#utility.yul\":11026:11040   */\n      add\n        /* \"#utility.yul\":11019:11062   */\n      mstore\n        /* \"#utility.yul\":10902:11069   */\n      pop\n      jump\t// out\n        /* \"#utility.yul\":11075:11441   */\n    tag_171:\n        /* \"#utility.yul\":11217:11220   */\n      0x00\n        /* \"#utility.yul\":11238:11305   */\n      tag_287\n        /* \"#utility.yul\":11302:11304   */\n      0x11\n        /* \"#utility.yul\":11297:11300   */\n      dup4\n        /* \"#utility.yul\":11238:11305   */\n      tag_169\n      jump\t// in\n    tag_287:\n        /* \"#utility.yul\":11231:11305   */\n      swap2\n      pop\n        /* \"#utility.yul\":11314:11407   */\n      tag_288\n        /* \"#utility.yul\":11403:11406   */\n      dup3\n        /* \"#utility.yul\":11314:11407   */\n      tag_170\n      jump\t// in\n    tag_288:\n        /* \"#utility.yul\":11432:11434   */\n      0x20\n        /* \"#utility.yul\":11427:11430   */\n      dup3\n        /* \"#utility.yul\":11423:11435   */\n      add\n        /* \"#utility.yul\":11416:11435   */\n      swap1\n      pop\n        /* \"#utility.yul\":11075:11441   */\n      swap2\n      swap1\n      pop\n      jump\t// out\n        /* \"#utility.yul\":11447:11866   */\n    tag_62:\n        /* \"#utility.yul\":11613:11617   */\n      0x00\n        /* \"#utility.yul\":11651:11653   */\n      0x20\n        /* \"#utility.yul\":11640:11649   */\n      dup3\n        /* \"#utility.yul\":11636:11654   */\n      add\n        /* \"#utility.yul\":11628:11654   */\n      swap1\n      pop\n        /* \"#utility.yul\":11700:11709   */\n      dup2\n        /* \"#utility.yul\":11694:11698   */\n      dup2\n        /* \"#utility.yul\":11690:11710   */\n      sub\n        /* \"#utility.yul\":11686:11687   */\n      0x00\n        /* \"#utility.yul\":11675:11684   */\n      dup4\n        /* \"#utility.yul\":11671:11688   */\n      add\n        /* \"#utility.yul\":11664:11711   */\n      mstore\n        /* \"#utility.yul\":11728:11859   */\n      tag_290\n        /* \"#utility.yul\":11854:11858   */\n      dup2\n        /* \"#utility.yul\":11728:11859   */\n      tag_171\n      jump\t// in\n    tag_290:\n        /* \"#utility.yul\":11720:11859   */\n      swap1\n      pop\n        /* \"#utility.yul\":11447:11866   */\n      swap2\n      swap1\n      pop\n      jump\t// out\n        /* \"#utility.yul\":11872:12046   */\n    tag_172:\n        /* \"#utility.yul\":12012:12038   */\n      0x536869706d656e74206e6f7420696e207472616e7369742e0000000000000000\n        /* \"#utility.yul\":12008:12009   */\n      0x00\n        /* \"#utility.yul\":12000:12006   */\n      dup3\n        /* \"#utility.yul\":11996:12010   */\n      add\n        /* \"#utility.yul\":11989:12039   */\n      mstore\n        /* \"#utility.yul\":11872:12046   */\n      pop\n      jump\t// out\n        /* \"#utility.yul\":12052:12418   */\n    tag_173:\n        /* \"#utility.yul\":12194:12197   */\n      0x00\n        /* \"#utility.yul\":12215:12282   */\n      tag_293\n        /* \"#utility.yul\":12279:12281   */\n      0x18\n        /* \"#utility.yul\":12274:12277   */\n      dup4\n        /* \"#utility.yul\":12215:12282   */\n      tag_169\n      jump\t// in\n    tag_293:\n        /* \"#utility.yul\":12208:12282   */\n      swap2\n      pop\n        /* \"#utility.yul\":12291:12384   */\n      tag_294\n        /* \"#utility.yul\":12380:12383   */\n      dup3\n        /* \"#utility.yul\":12291:12384   */\n      tag_172\n      jump\t// in\n    tag_294:\n        /* \"#utility.yul\":12409:12411   */\n      0x20\n        /* \"#utility.yul\":12404:12407   */\n      dup3\n        /* \"#utility.yul\":12400:12412   */\n      add\n        /* \"#utility.yul\":12393:12412   */\n      swap1\n      pop\n        /* \"#utility.yul\":12052:12418   */\n      swap2\n      swap1\n      pop\n      jump\t// out\n        /* \"#utility.yul\":12424:12843   */\n    tag_70:\n        /* \"#utility.yul\":12590:12594   */\n      0x00\n        /* \"#utility.yul\":12628:12630   */\n      0x20\n        /* \"#utility.yul\":12617:12626   */\n      dup3\n        /* \"#utility.yul\":12613:12631   */\n      add\n        /* \"#utility.yul\":12605:12631   */\n      swap1\n      pop\n        /* \"#utility.yul\":12677:12686   */\n      dup2\n        /* \"#utility.yul\":12671:12675   */\n      dup2\n        /* \"#utility.yul\":12667:12687   */\n      sub\n        /* \"#utility.yul\":12663:12664   */\n      0x00\n        /* \"#utility.yul\":12652:12661   */\n      dup4\n        /* \"#utility.yul\":12648:12665   */\n      add\n        /* \"#utility.yul\":12641:12688   */\n      mstore\n        /* \"#utility.yul\":12705:12836   */\n      tag_296\n        /* \"#utility.yul\":12831:12835   */\n      dup2\n        /* \"#utility.yul\":12705:12836   */\n      tag_173\n      jump\t// in\n    tag_296:\n        /* \"#utility.yul\":12697:12836   */\n      swap1\n      pop\n        /* \"#utility.yul\":12424:12843   */\n      swap2\n      swap1\n      pop\n      jump\t// out\n        /* \"#utility.yul\":12849:13021   */\n    tag_174:\n        /* \"#utility.yul\":12989:13013   */\n      0x536869706d656e7420616c726561647920706169642e00000000000000000000\n        /* \"#utility.yul\":12985:12986   */\n      0x00\n        /* \"#utility.yul\":12977:12983   */\n      dup3\n        /* \"#utility.yul\":12973:12987   */\n      add\n        /* \"#utility.yul\":12966:13014   */\n      mstore\n        /* \"#utility.yul\":12849:13021   */\n      pop\n      jump\t// out\n        /* \"#utility.yul\":13027:13393   */\n    tag_175:\n        /* \"#utility.yul\":13169:13172   */\n      0x00\n        /* \"#utility.yul\":13190:13257   */\n      tag_299\n        /* \"#utility.yul\":13254:13256   */\n      0x16\n        /* \"#utility.yul\":13249:13252   */\n      dup4\n        /* \"#utility.yul\":13190:13257   */\n      tag_169\n      jump\t// in\n    tag_299:\n        /* \"#utility.yul\":13183:13257   */\n      swap2\n      pop\n        /* \"#utility.yul\":13266:13359   */\n      tag_300\n        /* \"#utility.yul\":13355:13358   */\n      dup3\n        /* \"#utility.yul\":13266:13359   */\n      tag_174\n      jump\t// in\n    tag_300:\n        /* \"#utility.yul\":13384:13386   */\n      0x20\n        /* \"#utility.yul\":13379:13382   */\n      dup3\n        /* \"#utility.yul\":13375:13387   */\n      add\n        /* \"#utility.yul\":13368:13387   */\n      swap1\n      pop\n        /* \"#utility.yul\":13027:13393   */\n      swap2\n      swap1\n      pop\n      jump\t// out\n        /* \"#utility.yul\":13399:13818   */\n    tag_73:\n        /* \"#utility.yul\":13565:13569   */\n      0x00\n        /* \"#utility.yul\":13603:13605   */\n      0x20\n        /* \"#utility.yul\":13592:13601   */\n      dup3\n        /* \"#utility.yul\":13588:13606   */\n      add\n        /* \"#utility.yul\":13580:13606   */\n      swap1\n      pop\n        /* \"#utility.yul\":13652:13661   */\n      dup2\n        /* \"#utility.yul\":13646:13650   */\n      dup2\n        /* \"#utility.yul\":13642:13662   */\n      sub\n        /* \"#utility.yul\":13638:13639   */\n      0x00\n        /* \"#utility.yul\":13627:13636   */\n      dup4\n        /* \"#utility.yul\":13623:13640   */\n      add\n        /* \"#utility.yul\":13616:13663   */\n      mstore\n        /* \"#utility.yul\":13680:13811   */\n      tag_302\n        /* \"#utility.yul\":13806:13810   */\n      dup2\n        /* \"#utility.yul\":13680:13811   */\n      tag_175\n      jump\t// in\n    tag_302:\n        /* \"#utility.yul\":13672:13811   */\n      swap1\n      pop\n        /* \"#utility.yul\":13399:13818   */\n      swap2\n      swap1\n      pop\n      jump\t// out\n        /* \"#utility.yul\":13824:14002   */\n    tag_176:\n        /* \"#utility.yul\":13964:13994   */\n      0x536869706d656e7420616c726561647920696e207472616e7369742e00000000\n        /* \"#utility.yul\":13960:13961   */\n      0x00\n        /* \"#utility.yul\":13952:13958   */\n      dup3\n        /* \"#utility.yul\":13948:13962   */\n      add\n        /* \"#utility.yul\":13941:13995   */\n      mstore\n        /* \"#utility.yul\":13824:14002   */\n      pop\n      jump\t// out\n        /* \"#utility.yul\":14008:14374   */\n    tag_177:\n        /* \"#utility.yul\":14150:14153   */\n      0x00\n        /* \"#utility.yul\":14171:14238   */\n      tag_305\n        /* \"#utility.yul\":14235:14237   */\n      0x1c\n        /* \"#utility.yul\":14230:14233   */\n      dup4\n        /* \"#utility.yul\":14171:14238   */\n      tag_169\n      jump\t// in\n    tag_305:\n        /* \"#utility.yul\":14164:14238   */\n      swap2\n      pop\n        /* \"#utility.yul\":14247:14340   */\n      tag_306\n        /* \"#utility.yul\":14336:14339   */\n      dup3\n        /* \"#utility.yul\":14247:14340   */\n      tag_176\n      jump\t// in\n    tag_306:\n        /* \"#utility.yul\":14365:14367   */\n      0x20\n        /* \"#utility.yul\":14360:14363   */\n      dup3\n        /* \"#utility.yul\":14356:14368   */\n      add\n        /* \"#utility.yul\":14349:14368   */\n      swap1\n      pop\n        /* \"#utility.yul\":14008:14374   */\n      swap2\n      swap1\n      pop\n      jump\t// out\n        /* \"#utility.yul\":14380:14799   */\n    tag_107:\n        /* \"#utility.yul\":14546:14550   */\n      0x00\n        /* \"#utility.yul\":14584:14586   */\n      0x20\n        /* \"#utility.yul\":14573:14582   */\n      dup3\n        /* \"#utility.yul\":14569:14587   */\n      add\n        /* \"#utility.yul\":14561:14587   */\n      swap1\n      pop\n        /* \"#utility.yul\":14633:14642   */\n      dup2\n        /* \"#utility.yul\":14627:14631   */\n      dup2\n        /* \"#utility.yul\":14623:14643   */\n      sub\n        /* \"#utility.yul\":14619:14620   */\n      0x00\n        /* \"#utility.yul\":14608:14617   */\n      dup4\n        /* \"#utility.yul\":14604:14621   */\n      add\n        /* \"#utility.yul\":14597:14644   */\n      mstore\n        /* \"#utility.yul\":14661:14792   */\n      tag_308\n        /* \"#utility.yul\":14787:14791   */\n      dup2\n        /* \"#utility.yul\":14661:14792   */\n      tag_177\n      jump\t// in\n    tag_308:\n        /* \"#utility.yul\":14653:14792   */\n      swap1\n      pop\n        /* \"#utility.yul\":14380:14799   */\n      swap2\n      swap1\n      pop\n      jump\t// out\n        /* \"#utility.yul\":14805:15029   */\n    tag_178:\n        /* \"#utility.yul\":14945:14979   */\n      0x5061796d656e7420616d6f756e74206d757374206d6174636820746865207072\n        /* \"#utility.yul\":14941:14942   */\n      0x00\n        /* \"#utility.yul\":14933:14939   */\n      dup3\n        /* \"#utility.yul\":14929:14943   */\n      add\n        /* \"#utility.yul\":14922:14980   */\n      mstore\n        /* \"#utility.yul\":15014:15021   */\n      0x6963652e20000000000000000000000000000000000000000000000000000000\n        /* \"#utility.yul\":15009:15011   */\n      0x20\n        /* \"#utility.yul\":15001:15007   */\n      dup3\n        /* \"#utility.yul\":14997:15012   */\n      add\n        /* \"#utility.yul\":14990:15022   */\n      mstore\n        /* \"#utility.yul\":14805:15029   */\n      pop\n      jump\t// out\n        /* \"#utility.yul\":15035:15401   */\n    tag_179:\n        /* \"#utility.yul\":15177:15180   */\n      0x00\n        /* \"#utility.yul\":15198:15265   */\n      tag_311\n        /* \"#utility.yul\":15262:15264   */\n      0x25\n        /* \"#utility.yul\":15257:15260   */\n      dup4\n        /* \"#utility.yul\":15198:15265   */\n      tag_169\n      jump\t// in\n    tag_311:\n        /* \"#utility.yul\":15191:15265   */\n      swap2\n      pop\n        /* \"#utility.yul\":15274:15367   */\n      tag_312\n        /* \"#utility.yul\":15363:15366   */\n      dup3\n        /* \"#utility.yul\":15274:15367   */\n      tag_178\n      jump\t// in\n    tag_312:\n        /* \"#utility.yul\":15392:15394   */\n      0x40\n        /* \"#utility.yul\":15387:15390   */\n      dup3\n        /* \"#utility.yul\":15383:15395   */\n      add\n        /* \"#utility.yul\":15376:15395   */\n      swap1\n      pop\n        /* \"#utility.yul\":15035:15401   */\n      swap2\n      swap1\n      pop\n      jump\t// out\n        /* \"#utility.yul\":15407:15826   */\n    tag_125:\n        /* \"#utility.yul\":15573:15577   */\n      0x00\n        /* \"#utility.yul\":15611:15613   */\n      0x20\n        /* \"#utility.yul\":15600:15609   */\n      dup3\n        /* \"#utility.yul\":15596:15614   */\n      add\n        /* \"#utility.yul\":15588:15614   */\n      swap1\n      pop\n        /* \"#utility.yul\":15660:15669   */\n      dup2\n        /* \"#utility.yul\":15654:15658   */\n      dup2\n        /* \"#utility.yul\":15650:15670   */\n      sub\n        /* \"#utility.yul\":15646:15647   */\n      0x00\n        /* \"#utility.yul\":15635:15644   */\n      dup4\n        /* \"#utility.yul\":15631:15648   */\n      add\n        /* \"#utility.yul\":15624:15671   */\n      mstore\n        /* \"#utility.yul\":15688:15819   */\n      tag_314\n        /* \"#utility.yul\":15814:15818   */\n      dup2\n        /* \"#utility.yul\":15688:15819   */\n      tag_179\n      jump\t// in\n    tag_314:\n        /* \"#utility.yul\":15680:15819   */\n      swap1\n      pop\n        /* \"#utility.yul\":15407:15826   */\n      swap2\n      swap1\n      pop\n      jump\t// out\n        /* \"#utility.yul\":15832:16012   */\n    tag_180:\n        /* \"#utility.yul\":15880:15957   */\n      0x4e487b7100000000000000000000000000000000000000000000000000000000\n        /* \"#utility.yul\":15877:15878   */\n      0x00\n        /* \"#utility.yul\":15870:15958   */\n      mstore\n        /* \"#utility.yul\":15977:15981   */\n      0x11\n        /* \"#utility.yul\":15974:15975   */\n      0x04\n        /* \"#utility.yul\":15967:15982   */\n      mstore\n        /* \"#utility.yul\":16001:16005   */\n      0x24\n        /* \"#utility.yul\":15998:15999   */\n      0x00\n        /* \"#utility.yul\":15991:16006   */\n      revert\n        /* \"#utility.yul\":16018:16251   */\n    tag_132:\n        /* \"#utility.yul\":16057:16060   */\n      0x00\n        /* \"#utility.yul\":16080:16104   */\n      tag_317\n        /* \"#utility.yul\":16098:16103   */\n      dup3\n        /* \"#utility.yul\":16080:16104   */\n      tag_147\n      jump\t// in\n    tag_317:\n        /* \"#utility.yul\":16071:16104   */\n      swap2\n      pop\n        /* \"#utility.yul\":16126:16192   */\n      0xffffffffffffffffffffffffffffffffffffffffffffffffffffffffffffffff\n        /* \"#utility.yul\":16119:16124   */\n      dup3\n        /* \"#utility.yul\":16116:16193   */\n      sub\n        /* \"#utility.yul\":16113:16216   */\n      tag_318\n      jumpi\n        /* \"#utility.yul\":16196:16214   */\n      tag_319\n      tag_180\n      jump\t// in\n    tag_319:\n        /* \"#utility.yul\":16113:16216   */\n    tag_318:\n        /* \"#utility.yul\":16243:16244   */\n      0x01\n        /* \"#utility.yul\":16236:16241   */\n      dup3\n        /* \"#utility.yul\":16232:16245   */\n      add\n        /* \"#utility.yul\":16225:16245   */\n      swap1\n      pop\n        /* \"#utility.yul\":16018:16251   */\n      swap2\n      swap1\n      pop\n      jump\t// out\n        /* \"#utility.yul\":16257:16699   */\n    tag_139:\n        /* \"#utility.yul\":16406:16410   */\n      0x00\n        /* \"#utility.yul\":16444:16446   */\n      0x60\n        /* \"#utility.yul\":16433:16442   */\n      dup3\n        /* \"#utility.yul\":16429:16447   */\n      add\n        /* \"#utility.yul\":16421:16447   */\n      swap1\n      pop\n        /* \"#utility.yul\":16457:16528   */\n      tag_321\n        /* \"#utility.yul\":16525:16526   */\n      0x00\n        /* \"#utility.yul\":16514:16523   */\n      dup4\n        /* \"#utility.yul\":16510:16527   */\n      add\n        /* \"#utility.yul\":16501:16507   */\n      dup7\n        /* \"#utility.yul\":16457:16528   */\n      tag_166\n      jump\t// in\n    tag_321:\n        /* \"#utility.yul\":16538:16610   */\n      tag_322\n        /* \"#utility.yul\":16606:16608   */\n      0x20\n        /* \"#utility.yul\":16595:16604   */\n      dup4\n        /* \"#utility.yul\":16591:16609   */\n      add\n        /* \"#utility.yul\":16582:16588   */\n      dup6\n        /* \"#utility.yul\":16538:16610   */\n      tag_166\n      jump\t// in\n    tag_322:\n        /* \"#utility.yul\":16620:16692   */\n      tag_323\n        /* \"#utility.yul\":16688:16690   */\n      0x40\n        /* \"#utility.yul\":16677:16686   */\n      dup4\n        /* \"#utility.yul\":16673:16691   */\n      add\n        /* \"#utility.yul\":16664:16670   */\n      dup5\n        /* \"#utility.yul\":16620:16692   */\n      tag_166\n      jump\t// in\n    tag_323:\n        /* \"#utility.yul\":16257:16699   */\n      swap5\n      swap4\n      pop\n      pop\n      pop\n      pop\n      jump\t// out\n\n    auxdata: 0xa2646970667358221220bef509466cf78a4b87486cdf5fc2877448989f1b3586956905ec6f7cb0d1f2d864736f6c63430008120033\n}\n",
				"bytecode": {
					"linkReferences": {},
					"object": "608060405234801561001057600080fd5b506000600181905550611947806100286000396000f3fe60806040526004361061007b5760003560e01c80638365da541161004e5780638365da5414610141578063aace20b714610185578063b7dfd93d146101b0578063cbc4b181146101ed5761007b565b8063179a878c1461008057806327506f53146100a95780635667e02f146100d45780637ff5265d14610118575b600080fd5b34801561008c57600080fd5b506100a760048036038101906100a291906111c1565b610209565b005b3480156100b557600080fd5b506100be6105dd565b6040516100cb9190611416565b60405180910390f35b3480156100e057600080fd5b506100fb60048036038101906100f69190611438565b610767565b60405161010f9897969594939291906114b4565b60405180910390f35b34801561012457600080fd5b5061013f600480360381019061013a91906111c1565b610826565b005b34801561014d57600080fd5b5061016860048036038101906101639190611438565b610a82565b60405161017c9897969594939291906114b4565b60405180910390f35b34801561019157600080fd5b5061019a610c6c565b6040516101a79190611532565b60405180910390f35b3480156101bc57600080fd5b506101d760048036038101906101d2919061154d565b610c72565b6040516101e49190611532565b60405180910390f35b6102076004803603810190610202919061157a565b610cbd565b005b60008060008573ffffffffffffffffffffffffffffffffffffffff1673ffffffffffffffffffffffffffffffffffffffff168152602001908152602001600020828154811061025b5761025a6115e1565b5b90600052602060002090600702019050600060028381548110610281576102806115e1565b5b906000526020600020906007020190508373ffffffffffffffffffffffffffffffffffffffff168260010160009054906101000a900473ffffffffffffffffffffffffffffffffffffffff1673ffffffffffffffffffffffffffffffffffffffff1614610323576040517f08c379a000000000000000000000000000000000000000000000000000000000815260040161031a9061166d565b60405180910390fd5b600160028111156103375761033661125e565b5b8260060160009054906101000a900460ff16600281111561035b5761035a61125e565b5b1461039b576040517f08c379a0000000000000000000000000000000000000000000000000000000008152600401610392906116d9565b60405180910390fd5b8160060160019054906101000a900460ff16156103ed576040517f08c379a00000000000000000000000000000000000000000000000000000000081526004016103e490611745565b60405180910390fd5b60028260060160006101000a81548160ff021916908360028111156104155761041461125e565b5b021790555060028160060160006101000a81548160ff021916908360028111156104425761044161125e565b5b02179055504281600301819055504282600301819055506000826005015490508260000160009054906101000a900473ffffffffffffffffffffffffffffffffffffffff1673ffffffffffffffffffffffffffffffffffffffff166108fc829081150290604051600060405180830381858888f193505050501580156104cc573d6000803e3d6000fd5b5060018360060160016101000a81548160ff02191690831515021790555060018260060160016101000a81548160ff0219169083151502179055508473ffffffffffffffffffffffffffffffffffffffff168673ffffffffffffffffffffffffffffffffffffffff167f3746ccceb54f44c9b0ee0120e596168d07ec9f6ca303cfdd9810d3b2e2686a2e85600301546040516105689190611532565b60405180910390a38473ffffffffffffffffffffffffffffffffffffffff168673ffffffffffffffffffffffffffffffffffffffff167f2b6f2473aebafaf8d0889669490135928ec4454d2e29a103fd39693bbca6aef1836040516105cd9190611532565b60405180910390a3505050505050565b60606002805480602002602001604051908101604052809291908181526020016000905b8282101561075e5783829060005260206000209060070201604051806101000160405290816000820160009054906101000a900473ffffffffffffffffffffffffffffffffffffffff1673ffffffffffffffffffffffffffffffffffffffff1673ffffffffffffffffffffffffffffffffffffffff1681526020016001820160009054906101000a900473ffffffffffffffffffffffffffffffffffffffff1673ffffffffffffffffffffffffffffffffffffffff1673ffffffffffffffffffffffffffffffffffffffff168152602001600282015481526020016003820154815260200160048201548152602001600582015481526020016006820160009054906101000a900460ff16600281111561071e5761071d61125e565b5b60028111156107305761072f61125e565b5b81526020016006820160019054906101000a900460ff16151515158152505081526020019060010190610601565b50505050905090565b6000602052816000526040600020818154811061078357600080fd5b9060005260206000209060070201600091509150508060000160009054906101000a900473ffffffffffffffffffffffffffffffffffffffff16908060010160009054906101000a900473ffffffffffffffffffffffffffffffffffffffff16908060020154908060030154908060040154908060050154908060060160009054906101000a900460ff16908060060160019054906101000a900460ff16905088565b60008060008573ffffffffffffffffffffffffffffffffffffffff1673ffffffffffffffffffffffffffffffffffffffff1681526020019081526020016000208281548110610878576108776115e1565b5b9060005260206000209060070201905060006002838154811061089e5761089d6115e1565b5b906000526020600020906007020190508373ffffffffffffffffffffffffffffffffffffffff168260010160009054906101000a900473ffffffffffffffffffffffffffffffffffffffff1673ffffffffffffffffffffffffffffffffffffffff1614610940576040517f08c379a00000000000000000000000000000000000000000000000000000000081526004016109379061166d565b60405180910390fd5b600060028111156109545761095361125e565b5b8260060160009054906101000a900460ff1660028111156109785761097761125e565b5b146109b8576040517f08c379a00000000000000000000000000000000000000000000000000000000081526004016109af906117b1565b60405180910390fd5b60018260060160006101000a81548160ff021916908360028111156109e0576109df61125e565b5b021790555060018160060160006101000a81548160ff02191690836002811115610a0d57610a0c61125e565b5b02179055508373ffffffffffffffffffffffffffffffffffffffff168573ffffffffffffffffffffffffffffffffffffffff167faafab9f94340179ff9cefd29621e1772a4b8efab8023163838f1b0a8f6ce5df58460020154604051610a739190611532565b60405180910390a35050505050565b60008060008060008060008060008060008c73ffffffffffffffffffffffffffffffffffffffff1673ffffffffffffffffffffffffffffffffffffffff1681526020019081526020016000208a81548110610ae057610adf6115e1565b5b9060005260206000209060070201604051806101000160405290816000820160009054906101000a900473ffffffffffffffffffffffffffffffffffffffff1673ffffffffffffffffffffffffffffffffffffffff1673ffffffffffffffffffffffffffffffffffffffff1681526020016001820160009054906101000a900473ffffffffffffffffffffffffffffffffffffffff1673ffffffffffffffffffffffffffffffffffffffff1673ffffffffffffffffffffffffffffffffffffffff168152602001600282015481526020016003820154815260200160048201548152602001600582015481526020016006820160009054906101000a900460ff166002811115610bf357610bf261125e565b5b6002811115610c0557610c0461125e565b5b81526020016006820160019054906101000a900460ff1615151515815250509050806000015181602001518260400151836060015184608001518560a001518660c001518760e0015198509850985098509850985098509850509295985092959890939650565b60015481565b60008060008373ffffffffffffffffffffffffffffffffffffffff1673ffffffffffffffffffffffffffffffffffffffff168152602001908152602001600020805490509050919050565b803414610cff576040517f08c379a0000000000000000000000000000000000000000000000000000000008152600401610cf690611843565b60405180910390fd5b60006040518061010001604052803373ffffffffffffffffffffffffffffffffffffffff1681526020018673ffffffffffffffffffffffffffffffffffffffff1681526020018581526020016000815260200184815260200183815260200160006002811115610d7257610d7161125e565b5b81526020016000151581525090506000803373ffffffffffffffffffffffffffffffffffffffff1673ffffffffffffffffffffffffffffffffffffffff16815260200190815260200160002081908060018154018082558091505060019003906000526020600020906007020160009091909190915060008201518160000160006101000a81548173ffffffffffffffffffffffffffffffffffffffff021916908373ffffffffffffffffffffffffffffffffffffffff16021790555060208201518160010160006101000a81548173ffffffffffffffffffffffffffffffffffffffff021916908373ffffffffffffffffffffffffffffffffffffffff16021790555060408201518160020155606082015181600301556080820151816004015560a0820151816005015560c08201518160060160006101000a81548160ff02191690836002811115610ec957610ec861125e565b5b021790555060e08201518160060160016101000a81548160ff021916908315150217905550505060016000815480929190610f0390611892565b919050555060026040518061010001604052803373ffffffffffffffffffffffffffffffffffffffff1681526020018773ffffffffffffffffffffffffffffffffffffffff1681526020018681526020016000815260200185815260200184815260200160006002811115610f7b57610f7a61125e565b5b815260200160001515815250908060018154018082558091505060019003906000526020600020906007020160009091909190915060008201518160000160006101000a81548173ffffffffffffffffffffffffffffffffffffffff021916908373ffffffffffffffffffffffffffffffffffffffff16021790555060208201518160010160006101000a81548173ffffffffffffffffffffffffffffffffffffffff021916908373ffffffffffffffffffffffffffffffffffffffff16021790555060408201518160020155606082015181600301556080820151816004015560a0820151816005015560c08201518160060160006101000a81548160ff021916908360028111156110915761109061125e565b5b021790555060e08201518160060160016101000a81548160ff02191690831515021790555050508473ffffffffffffffffffffffffffffffffffffffff163373ffffffffffffffffffffffffffffffffffffffff167f5001b34ecf2db5b7bbeddcbbe761ec9ecadcc7638018b98ce3e24995b0e946b6868686604051611119939291906118da565b60405180910390a35050505050565b600080fd5b600073ffffffffffffffffffffffffffffffffffffffff82169050919050565b60006111588261112d565b9050919050565b6111688161114d565b811461117357600080fd5b50565b6000813590506111858161115f565b92915050565b6000819050919050565b61119e8161118b565b81146111a957600080fd5b50565b6000813590506111bb81611195565b92915050565b6000806000606084860312156111da576111d9611128565b5b60006111e886828701611176565b93505060206111f986828701611176565b925050604061120a868287016111ac565b9150509250925092565b600081519050919050565b600082825260208201905092915050565b6000819050602082019050919050565b6112498161114d565b82525050565b6112588161118b565b82525050565b7f4e487b7100000000000000000000000000000000000000000000000000000000600052602160045260246000fd5b6003811061129e5761129d61125e565b5b50565b60008190506112af8261128d565b919050565b60006112bf826112a1565b9050919050565b6112cf816112b4565b82525050565b60008115159050919050565b6112ea816112d5565b82525050565b610100820160008201516113076000850182611240565b50602082015161131a6020850182611240565b50604082015161132d604085018261124f565b506060820151611340606085018261124f565b506080820151611353608085018261124f565b5060a082015161136660a085018261124f565b5060c082015161137960c08501826112c6565b5060e082015161138c60e08501826112e1565b50505050565b600061139e83836112f0565b6101008301905092915050565b6000602082019050919050565b60006113c382611214565b6113cd818561121f565b93506113d883611230565b8060005b838110156114095781516113f08882611392565b97506113fb836113ab565b9250506001810190506113dc565b5085935050505092915050565b6000602082019050818103600083015261143081846113b8565b905092915050565b6000806040838503121561144f5761144e611128565b5b600061145d85828601611176565b925050602061146e858286016111ac565b9150509250929050565b6114818161114d565b82525050565b6114908161118b565b82525050565b61149f816112b4565b82525050565b6114ae816112d5565b82525050565b6000610100820190506114ca600083018b611478565b6114d7602083018a611478565b6114e46040830189611487565b6114f16060830188611487565b6114fe6080830187611487565b61150b60a0830186611487565b61151860c0830185611496565b61152560e08301846114a5565b9998505050505050505050565b60006020820190506115476000830184611487565b92915050565b60006020828403121561156357611562611128565b5b600061157184828501611176565b91505092915050565b6000806000806080858703121561159457611593611128565b5b60006115a287828801611176565b94505060206115b3878288016111ac565b93505060406115c4878288016111ac565b92505060606115d5878288016111ac565b91505092959194509250565b7f4e487b7100000000000000000000000000000000000000000000000000000000600052603260045260246000fd5b600082825260208201905092915050565b7f496e76616c69642072656365697665722e000000000000000000000000000000600082015250565b6000611657601183611610565b915061166282611621565b602082019050919050565b600060208201905081810360008301526116868161164a565b9050919050565b7f536869706d656e74206e6f7420696e207472616e7369742e0000000000000000600082015250565b60006116c3601883611610565b91506116ce8261168d565b602082019050919050565b600060208201905081810360008301526116f2816116b6565b9050919050565b7f536869706d656e7420616c726561647920706169642e00000000000000000000600082015250565b600061172f601683611610565b915061173a826116f9565b602082019050919050565b6000602082019050818103600083015261175e81611722565b9050919050565b7f536869706d656e7420616c726561647920696e207472616e7369742e00000000600082015250565b600061179b601c83611610565b91506117a682611765565b602082019050919050565b600060208201905081810360008301526117ca8161178e565b9050919050565b7f5061796d656e7420616d6f756e74206d757374206d617463682074686520707260008201527f6963652e20000000000000000000000000000000000000000000000000000000602082015250565b600061182d602583611610565b9150611838826117d1565b604082019050919050565b6000602082019050818103600083015261185c81611820565b9050919050565b7f4e487b7100000000000000000000000000000000000000000000000000000000600052601160045260246000fd5b600061189d8261118b565b91507fffffffffffffffffffffffffffffffffffffffffffffffffffffffffffffffff82036118cf576118ce611863565b5b600182019050919050565b60006060820190506118ef6000830186611487565b6118fc6020830185611487565b6119096040830184611487565b94935050505056fea2646970667358221220bef509466cf78a4b87486cdf5fc2877448989f1b3586956905ec6f7cb0d1f2d864736f6c63430008120033",
					"opcodes": "PUSH1 0x80 PUSH1 0x40 MSTORE CALLVALUE DUP1 ISZERO PUSH2 0x10 JUMPI PUSH1 0x0 DUP1 REVERT JUMPDEST POP PUSH1 0x0 PUSH1 0x1 DUP2 SWAP1 SSTORE POP PUSH2 0x1947 DUP1 PUSH2 0x28 PUSH1 0x0 CODECOPY PUSH1 0x0 RETURN INVALID PUSH1 0x80 PUSH1 0x40 MSTORE PUSH1 0x4 CALLDATASIZE LT PUSH2 0x7B JUMPI PUSH1 0x0 CALLDATALOAD PUSH1 0xE0 SHR DUP1 PUSH4 0x8365DA54 GT PUSH2 0x4E JUMPI DUP1 PUSH4 0x8365DA54 EQ PUSH2 0x141 JUMPI DUP1 PUSH4 0xAACE20B7 EQ PUSH2 0x185 JUMPI DUP1 PUSH4 0xB7DFD93D EQ PUSH2 0x1B0 JUMPI DUP1 PUSH4 0xCBC4B181 EQ PUSH2 0x1ED JUMPI PUSH2 0x7B JUMP JUMPDEST DUP1 PUSH4 0x179A878C EQ PUSH2 0x80 JUMPI DUP1 PUSH4 0x27506F53 EQ PUSH2 0xA9 JUMPI DUP1 PUSH4 0x5667E02F EQ PUSH2 0xD4 JUMPI DUP1 PUSH4 0x7FF5265D EQ PUSH2 0x118 JUMPI JUMPDEST PUSH1 0x0 DUP1 REVERT JUMPDEST CALLVALUE DUP1 ISZERO PUSH2 0x8C JUMPI PUSH1 0x0 DUP1 REVERT JUMPDEST POP PUSH2 0xA7 PUSH1 0x4 DUP1 CALLDATASIZE SUB DUP2 ADD SWAP1 PUSH2 0xA2 SWAP2 SWAP1 PUSH2 0x11C1 JUMP JUMPDEST PUSH2 0x209 JUMP JUMPDEST STOP JUMPDEST CALLVALUE DUP1 ISZERO PUSH2 0xB5 JUMPI PUSH1 0x0 DUP1 REVERT JUMPDEST POP PUSH2 0xBE PUSH2 0x5DD JUMP JUMPDEST PUSH1 0x40 MLOAD PUSH2 0xCB SWAP2 SWAP1 PUSH2 0x1416 JUMP JUMPDEST PUSH1 0x40 MLOAD DUP1 SWAP2 SUB SWAP1 RETURN JUMPDEST CALLVALUE DUP1 ISZERO PUSH2 0xE0 JUMPI PUSH1 0x0 DUP1 REVERT JUMPDEST POP PUSH2 0xFB PUSH1 0x4 DUP1 CALLDATASIZE SUB DUP2 ADD SWAP1 PUSH2 0xF6 SWAP2 SWAP1 PUSH2 0x1438 JUMP JUMPDEST PUSH2 0x767 JUMP JUMPDEST PUSH1 0x40 MLOAD PUSH2 0x10F SWAP9 SWAP8 SWAP7 SWAP6 SWAP5 SWAP4 SWAP3 SWAP2 SWAP1 PUSH2 0x14B4 JUMP JUMPDEST PUSH1 0x40 MLOAD DUP1 SWAP2 SUB SWAP1 RETURN JUMPDEST CALLVALUE DUP1 ISZERO PUSH2 0x124 JUMPI PUSH1 0x0 DUP1 REVERT JUMPDEST POP PUSH2 0x13F PUSH1 0x4 DUP1 CALLDATASIZE SUB DUP2 ADD SWAP1 PUSH2 0x13A SWAP2 SWAP1 PUSH2 0x11C1 JUMP JUMPDEST PUSH2 0x826 JUMP JUMPDEST STOP JUMPDEST CALLVALUE DUP1 ISZERO PUSH2 0x14D JUMPI PUSH1 0x0 DUP1 REVERT JUMPDEST POP PUSH2 0x168 PUSH1 0x4 DUP1 CALLDATASIZE SUB DUP2 ADD SWAP1 PUSH2 0x163 SWAP2 SWAP1 PUSH2 0x1438 JUMP JUMPDEST PUSH2 0xA82 JUMP JUMPDEST PUSH1 0x40 MLOAD PUSH2 0x17C SWAP9 SWAP8 SWAP7 SWAP6 SWAP5 SWAP4 SWAP3 SWAP2 SWAP1 PUSH2 0x14B4 JUMP JUMPDEST PUSH1 0x40 MLOAD DUP1 SWAP2 SUB SWAP1 RETURN JUMPDEST CALLVALUE DUP1 ISZERO PUSH2 0x191 JUMPI PUSH1 0x0 DUP1 REVERT JUMPDEST POP PUSH2 0x19A PUSH2 0xC6C JUMP JUMPDEST PUSH1 0x40 MLOAD PUSH2 0x1A7 SWAP2 SWAP1 PUSH2 0x1532 JUMP JUMPDEST PUSH1 0x40 MLOAD DUP1 SWAP2 SUB SWAP1 RETURN JUMPDEST CALLVALUE DUP1 ISZERO PUSH2 0x1BC JUMPI PUSH1 0x0 DUP1 REVERT JUMPDEST POP PUSH2 0x1D7 PUSH1 0x4 DUP1 CALLDATASIZE SUB DUP2 ADD SWAP1 PUSH2 0x1D2 SWAP2 SWAP1 PUSH2 0x154D JUMP JUMPDEST PUSH2 0xC72 JUMP JUMPDEST PUSH1 0x40 MLOAD PUSH2 0x1E4 SWAP2 SWAP1 PUSH2 0x1532 JUMP JUMPDEST PUSH1 0x40 MLOAD DUP1 SWAP2 SUB SWAP1 RETURN JUMPDEST PUSH2 0x207 PUSH1 0x4 DUP1 CALLDATASIZE SUB DUP2 ADD SWAP1 PUSH2 0x202 SWAP2 SWAP1 PUSH2 0x157A JUMP JUMPDEST PUSH2 0xCBD JUMP JUMPDEST STOP JUMPDEST PUSH1 0x0 DUP1 PUSH1 0x0 DUP6 PUSH20 0xFFFFFFFFFFFFFFFFFFFFFFFFFFFFFFFFFFFFFFFF AND PUSH20 0xFFFFFFFFFFFFFFFFFFFFFFFFFFFFFFFFFFFFFFFF AND DUP2 MSTORE PUSH1 0x20 ADD SWAP1 DUP2 MSTORE PUSH1 0x20 ADD PUSH1 0x0 KECCAK256 DUP3 DUP2 SLOAD DUP2 LT PUSH2 0x25B JUMPI PUSH2 0x25A PUSH2 0x15E1 JUMP JUMPDEST JUMPDEST SWAP1 PUSH1 0x0 MSTORE PUSH1 0x20 PUSH1 0x0 KECCAK256 SWAP1 PUSH1 0x7 MUL ADD SWAP1 POP PUSH1 0x0 PUSH1 0x2 DUP4 DUP2 SLOAD DUP2 LT PUSH2 0x281 JUMPI PUSH2 0x280 PUSH2 0x15E1 JUMP JUMPDEST JUMPDEST SWAP1 PUSH1 0x0 MSTORE PUSH1 0x20 PUSH1 0x0 KECCAK256 SWAP1 PUSH1 0x7 MUL ADD SWAP1 POP DUP4 PUSH20 0xFFFFFFFFFFFFFFFFFFFFFFFFFFFFFFFFFFFFFFFF AND DUP3 PUSH1 0x1 ADD PUSH1 0x0 SWAP1 SLOAD SWAP1 PUSH2 0x100 EXP SWAP1 DIV PUSH20 0xFFFFFFFFFFFFFFFFFFFFFFFFFFFFFFFFFFFFFFFF AND PUSH20 0xFFFFFFFFFFFFFFFFFFFFFFFFFFFFFFFFFFFFFFFF AND EQ PUSH2 0x323 JUMPI PUSH1 0x40 MLOAD PUSH32 0x8C379A000000000000000000000000000000000000000000000000000000000 DUP2 MSTORE PUSH1 0x4 ADD PUSH2 0x31A SWAP1 PUSH2 0x166D JUMP JUMPDEST PUSH1 0x40 MLOAD DUP1 SWAP2 SUB SWAP1 REVERT JUMPDEST PUSH1 0x1 PUSH1 0x2 DUP2 GT ISZERO PUSH2 0x337 JUMPI PUSH2 0x336 PUSH2 0x125E JUMP JUMPDEST JUMPDEST DUP3 PUSH1 0x6 ADD PUSH1 0x0 SWAP1 SLOAD SWAP1 PUSH2 0x100 EXP SWAP1 DIV PUSH1 0xFF AND PUSH1 0x2 DUP2 GT ISZERO PUSH2 0x35B JUMPI PUSH2 0x35A PUSH2 0x125E JUMP JUMPDEST JUMPDEST EQ PUSH2 0x39B JUMPI PUSH1 0x40 MLOAD PUSH32 0x8C379A000000000000000000000000000000000000000000000000000000000 DUP2 MSTORE PUSH1 0x4 ADD PUSH2 0x392 SWAP1 PUSH2 0x16D9 JUMP JUMPDEST PUSH1 0x40 MLOAD DUP1 SWAP2 SUB SWAP1 REVERT JUMPDEST DUP2 PUSH1 0x6 ADD PUSH1 0x1 SWAP1 SLOAD SWAP1 PUSH2 0x100 EXP SWAP1 DIV PUSH1 0xFF AND ISZERO PUSH2 0x3ED JUMPI PUSH1 0x40 MLOAD PUSH32 0x8C379A000000000000000000000000000000000000000000000000000000000 DUP2 MSTORE PUSH1 0x4 ADD PUSH2 0x3E4 SWAP1 PUSH2 0x1745 JUMP JUMPDEST PUSH1 0x40 MLOAD DUP1 SWAP2 SUB SWAP1 REVERT JUMPDEST PUSH1 0x2 DUP3 PUSH1 0x6 ADD PUSH1 0x0 PUSH2 0x100 EXP DUP2 SLOAD DUP2 PUSH1 0xFF MUL NOT AND SWAP1 DUP4 PUSH1 0x2 DUP2 GT ISZERO PUSH2 0x415 JUMPI PUSH2 0x414 PUSH2 0x125E JUMP JUMPDEST JUMPDEST MUL OR SWAP1 SSTORE POP PUSH1 0x2 DUP2 PUSH1 0x6 ADD PUSH1 0x0 PUSH2 0x100 EXP DUP2 SLOAD DUP2 PUSH1 0xFF MUL NOT AND SWAP1 DUP4 PUSH1 0x2 DUP2 GT ISZERO PUSH2 0x442 JUMPI PUSH2 0x441 PUSH2 0x125E JUMP JUMPDEST JUMPDEST MUL OR SWAP1 SSTORE POP TIMESTAMP DUP2 PUSH1 0x3 ADD DUP2 SWAP1 SSTORE POP TIMESTAMP DUP3 PUSH1 0x3 ADD DUP2 SWAP1 SSTORE POP PUSH1 0x0 DUP3 PUSH1 0x5 ADD SLOAD SWAP1 POP DUP3 PUSH1 0x0 ADD PUSH1 0x0 SWAP1 SLOAD SWAP1 PUSH2 0x100 EXP SWAP1 DIV PUSH20 0xFFFFFFFFFFFFFFFFFFFFFFFFFFFFFFFFFFFFFFFF AND PUSH20 0xFFFFFFFFFFFFFFFFFFFFFFFFFFFFFFFFFFFFFFFF AND PUSH2 0x8FC DUP3 SWAP1 DUP2 ISZERO MUL SWAP1 PUSH1 0x40 MLOAD PUSH1 0x0 PUSH1 0x40 MLOAD DUP1 DUP4 SUB DUP2 DUP6 DUP9 DUP9 CALL SWAP4 POP POP POP POP ISZERO DUP1 ISZERO PUSH2 0x4CC JUMPI RETURNDATASIZE PUSH1 0x0 DUP1 RETURNDATACOPY RETURNDATASIZE PUSH1 0x0 REVERT JUMPDEST POP PUSH1 0x1 DUP4 PUSH1 0x6 ADD PUSH1 0x1 PUSH2 0x100 EXP DUP2 SLOAD DUP2 PUSH1 0xFF MUL NOT AND SWAP1 DUP4 ISZERO ISZERO MUL OR SWAP1 SSTORE POP PUSH1 0x1 DUP3 PUSH1 0x6 ADD PUSH1 0x1 PUSH2 0x100 EXP DUP2 SLOAD DUP2 PUSH1 0xFF MUL NOT AND SWAP1 DUP4 ISZERO ISZERO MUL OR SWAP1 SSTORE POP DUP5 PUSH20 0xFFFFFFFFFFFFFFFFFFFFFFFFFFFFFFFFFFFFFFFF AND DUP7 PUSH20 0xFFFFFFFFFFFFFFFFFFFFFFFFFFFFFFFFFFFFFFFF AND PUSH32 0x3746CCCEB54F44C9B0EE0120E596168D07EC9F6CA303CFDD9810D3B2E2686A2E DUP6 PUSH1 0x3 ADD SLOAD PUSH1 0x40 MLOAD PUSH2 0x568 SWAP2 SWAP1 PUSH2 0x1532 JUMP JUMPDEST PUSH1 0x40 MLOAD DUP1 SWAP2 SUB SWAP1 LOG3 DUP5 PUSH20 0xFFFFFFFFFFFFFFFFFFFFFFFFFFFFFFFFFFFFFFFF AND DUP7 PUSH20 0xFFFFFFFFFFFFFFFFFFFFFFFFFFFFFFFFFFFFFFFF AND PUSH32 0x2B6F2473AEBAFAF8D0889669490135928EC4454D2E29A103FD39693BBCA6AEF1 DUP4 PUSH1 0x40 MLOAD PUSH2 0x5CD SWAP2 SWAP1 PUSH2 0x1532 JUMP JUMPDEST PUSH1 0x40 MLOAD DUP1 SWAP2 SUB SWAP1 LOG3 POP POP POP POP POP POP JUMP JUMPDEST PUSH1 0x60 PUSH1 0x2 DUP1 SLOAD DUP1 PUSH1 0x20 MUL PUSH1 0x20 ADD PUSH1 0x40 MLOAD SWAP1 DUP2 ADD PUSH1 0x40 MSTORE DUP1 SWAP3 SWAP2 SWAP1 DUP2 DUP2 MSTORE PUSH1 0x20 ADD PUSH1 0x0 SWAP1 JUMPDEST DUP3 DUP3 LT ISZERO PUSH2 0x75E JUMPI DUP4 DUP3 SWAP1 PUSH1 0x0 MSTORE PUSH1 0x20 PUSH1 0x0 KECCAK256 SWAP1 PUSH1 0x7 MUL ADD PUSH1 0x40 MLOAD DUP1 PUSH2 0x100 ADD PUSH1 0x40 MSTORE SWAP1 DUP2 PUSH1 0x0 DUP3 ADD PUSH1 0x0 SWAP1 SLOAD SWAP1 PUSH2 0x100 EXP SWAP1 DIV PUSH20 0xFFFFFFFFFFFFFFFFFFFFFFFFFFFFFFFFFFFFFFFF AND PUSH20 0xFFFFFFFFFFFFFFFFFFFFFFFFFFFFFFFFFFFFFFFF AND PUSH20 0xFFFFFFFFFFFFFFFFFFFFFFFFFFFFFFFFFFFFFFFF AND DUP2 MSTORE PUSH1 0x20 ADD PUSH1 0x1 DUP3 ADD PUSH1 0x0 SWAP1 SLOAD SWAP1 PUSH2 0x100 EXP SWAP1 DIV PUSH20 0xFFFFFFFFFFFFFFFFFFFFFFFFFFFFFFFFFFFFFFFF AND PUSH20 0xFFFFFFFFFFFFFFFFFFFFFFFFFFFFFFFFFFFFFFFF AND PUSH20 0xFFFFFFFFFFFFFFFFFFFFFFFFFFFFFFFFFFFFFFFF AND DUP2 MSTORE PUSH1 0x20 ADD PUSH1 0x2 DUP3 ADD SLOAD DUP2 MSTORE PUSH1 0x20 ADD PUSH1 0x3 DUP3 ADD SLOAD DUP2 MSTORE PUSH1 0x20 ADD PUSH1 0x4 DUP3 ADD SLOAD DUP2 MSTORE PUSH1 0x20 ADD PUSH1 0x5 DUP3 ADD SLOAD DUP2 MSTORE PUSH1 0x20 ADD PUSH1 0x6 DUP3 ADD PUSH1 0x0 SWAP1 SLOAD SWAP1 PUSH2 0x100 EXP SWAP1 DIV PUSH1 0xFF AND PUSH1 0x2 DUP2 GT ISZERO PUSH2 0x71E JUMPI PUSH2 0x71D PUSH2 0x125E JUMP JUMPDEST JUMPDEST PUSH1 0x2 DUP2 GT ISZERO PUSH2 0x730 JUMPI PUSH2 0x72F PUSH2 0x125E JUMP JUMPDEST JUMPDEST DUP2 MSTORE PUSH1 0x20 ADD PUSH1 0x6 DUP3 ADD PUSH1 0x1 SWAP1 SLOAD SWAP1 PUSH2 0x100 EXP SWAP1 DIV PUSH1 0xFF AND ISZERO ISZERO ISZERO ISZERO DUP2 MSTORE POP POP DUP2 MSTORE PUSH1 0x20 ADD SWAP1 PUSH1 0x1 ADD SWAP1 PUSH2 0x601 JUMP JUMPDEST POP POP POP POP SWAP1 POP SWAP1 JUMP JUMPDEST PUSH1 0x0 PUSH1 0x20 MSTORE DUP2 PUSH1 0x0 MSTORE PUSH1 0x40 PUSH1 0x0 KECCAK256 DUP2 DUP2 SLOAD DUP2 LT PUSH2 0x783 JUMPI PUSH1 0x0 DUP1 REVERT JUMPDEST SWAP1 PUSH1 0x0 MSTORE PUSH1 0x20 PUSH1 0x0 KECCAK256 SWAP1 PUSH1 0x7 MUL ADD PUSH1 0x0 SWAP2 POP SWAP2 POP POP DUP1 PUSH1 0x0 ADD PUSH1 0x0 SWAP1 SLOAD SWAP1 PUSH2 0x100 EXP SWAP1 DIV PUSH20 0xFFFFFFFFFFFFFFFFFFFFFFFFFFFFFFFFFFFFFFFF AND SWAP1 DUP1 PUSH1 0x1 ADD PUSH1 0x0 SWAP1 SLOAD SWAP1 PUSH2 0x100 EXP SWAP1 DIV PUSH20 0xFFFFFFFFFFFFFFFFFFFFFFFFFFFFFFFFFFFFFFFF AND SWAP1 DUP1 PUSH1 0x2 ADD SLOAD SWAP1 DUP1 PUSH1 0x3 ADD SLOAD SWAP1 DUP1 PUSH1 0x4 ADD SLOAD SWAP1 DUP1 PUSH1 0x5 ADD SLOAD SWAP1 DUP1 PUSH1 0x6 ADD PUSH1 0x0 SWAP1 SLOAD SWAP1 PUSH2 0x100 EXP SWAP1 DIV PUSH1 0xFF AND SWAP1 DUP1 PUSH1 0x6 ADD PUSH1 0x1 SWAP1 SLOAD SWAP1 PUSH2 0x100 EXP SWAP1 DIV PUSH1 0xFF AND SWAP1 POP DUP9 JUMP JUMPDEST PUSH1 0x0 DUP1 PUSH1 0x0 DUP6 PUSH20 0xFFFFFFFFFFFFFFFFFFFFFFFFFFFFFFFFFFFFFFFF AND PUSH20 0xFFFFFFFFFFFFFFFFFFFFFFFFFFFFFFFFFFFFFFFF AND DUP2 MSTORE PUSH1 0x20 ADD SWAP1 DUP2 MSTORE PUSH1 0x20 ADD PUSH1 0x0 KECCAK256 DUP3 DUP2 SLOAD DUP2 LT PUSH2 0x878 JUMPI PUSH2 0x877 PUSH2 0x15E1 JUMP JUMPDEST JUMPDEST SWAP1 PUSH1 0x0 MSTORE PUSH1 0x20 PUSH1 0x0 KECCAK256 SWAP1 PUSH1 0x7 MUL ADD SWAP1 POP PUSH1 0x0 PUSH1 0x2 DUP4 DUP2 SLOAD DUP2 LT PUSH2 0x89E JUMPI PUSH2 0x89D PUSH2 0x15E1 JUMP JUMPDEST JUMPDEST SWAP1 PUSH1 0x0 MSTORE PUSH1 0x20 PUSH1 0x0 KECCAK256 SWAP1 PUSH1 0x7 MUL ADD SWAP1 POP DUP4 PUSH20 0xFFFFFFFFFFFFFFFFFFFFFFFFFFFFFFFFFFFFFFFF AND DUP3 PUSH1 0x1 ADD PUSH1 0x0 SWAP1 SLOAD SWAP1 PUSH2 0x100 EXP SWAP1 DIV PUSH20 0xFFFFFFFFFFFFFFFFFFFFFFFFFFFFFFFFFFFFFFFF AND PUSH20 0xFFFFFFFFFFFFFFFFFFFFFFFFFFFFFFFFFFFFFFFF AND EQ PUSH2 0x940 JUMPI PUSH1 0x40 MLOAD PUSH32 0x8C379A000000000000000000000000000000000000000000000000000000000 DUP2 MSTORE PUSH1 0x4 ADD PUSH2 0x937 SWAP1 PUSH2 0x166D JUMP JUMPDEST PUSH1 0x40 MLOAD DUP1 SWAP2 SUB SWAP1 REVERT JUMPDEST PUSH1 0x0 PUSH1 0x2 DUP2 GT ISZERO PUSH2 0x954 JUMPI PUSH2 0x953 PUSH2 0x125E JUMP JUMPDEST JUMPDEST DUP3 PUSH1 0x6 ADD PUSH1 0x0 SWAP1 SLOAD SWAP1 PUSH2 0x100 EXP SWAP1 DIV PUSH1 0xFF AND PUSH1 0x2 DUP2 GT ISZERO PUSH2 0x978 JUMPI PUSH2 0x977 PUSH2 0x125E JUMP JUMPDEST JUMPDEST EQ PUSH2 0x9B8 JUMPI PUSH1 0x40 MLOAD PUSH32 0x8C379A000000000000000000000000000000000000000000000000000000000 DUP2 MSTORE PUSH1 0x4 ADD PUSH2 0x9AF SWAP1 PUSH2 0x17B1 JUMP JUMPDEST PUSH1 0x40 MLOAD DUP1 SWAP2 SUB SWAP1 REVERT JUMPDEST PUSH1 0x1 DUP3 PUSH1 0x6 ADD PUSH1 0x0 PUSH2 0x100 EXP DUP2 SLOAD DUP2 PUSH1 0xFF MUL NOT AND SWAP1 DUP4 PUSH1 0x2 DUP2 GT ISZERO PUSH2 0x9E0 JUMPI PUSH2 0x9DF PUSH2 0x125E JUMP JUMPDEST JUMPDEST MUL OR SWAP1 SSTORE POP PUSH1 0x1 DUP2 PUSH1 0x6 ADD PUSH1 0x0 PUSH2 0x100 EXP DUP2 SLOAD DUP2 PUSH1 0xFF MUL NOT AND SWAP1 DUP4 PUSH1 0x2 DUP2 GT ISZERO PUSH2 0xA0D JUMPI PUSH2 0xA0C PUSH2 0x125E JUMP JUMPDEST JUMPDEST MUL OR SWAP1 SSTORE POP DUP4 PUSH20 0xFFFFFFFFFFFFFFFFFFFFFFFFFFFFFFFFFFFFFFFF AND DUP6 PUSH20 0xFFFFFFFFFFFFFFFFFFFFFFFFFFFFFFFFFFFFFFFF AND PUSH32 0xAAFAB9F94340179FF9CEFD29621E1772A4B8EFAB8023163838F1B0A8F6CE5DF5 DUP5 PUSH1 0x2 ADD SLOAD PUSH1 0x40 MLOAD PUSH2 0xA73 SWAP2 SWAP1 PUSH2 0x1532 JUMP JUMPDEST PUSH1 0x40 MLOAD DUP1 SWAP2 SUB SWAP1 LOG3 POP POP POP POP POP JUMP JUMPDEST PUSH1 0x0 DUP1 PUSH1 0x0 DUP1 PUSH1 0x0 DUP1 PUSH1 0x0 DUP1 PUSH1 0x0 DUP1 PUSH1 0x0 DUP13 PUSH20 0xFFFFFFFFFFFFFFFFFFFFFFFFFFFFFFFFFFFFFFFF AND PUSH20 0xFFFFFFFFFFFFFFFFFFFFFFFFFFFFFFFFFFFFFFFF AND DUP2 MSTORE PUSH1 0x20 ADD SWAP1 DUP2 MSTORE PUSH1 0x20 ADD PUSH1 0x0 KECCAK256 DUP11 DUP2 SLOAD DUP2 LT PUSH2 0xAE0 JUMPI PUSH2 0xADF PUSH2 0x15E1 JUMP JUMPDEST JUMPDEST SWAP1 PUSH1 0x0 MSTORE PUSH1 0x20 PUSH1 0x0 KECCAK256 SWAP1 PUSH1 0x7 MUL ADD PUSH1 0x40 MLOAD DUP1 PUSH2 0x100 ADD PUSH1 0x40 MSTORE SWAP1 DUP2 PUSH1 0x0 DUP3 ADD PUSH1 0x0 SWAP1 SLOAD SWAP1 PUSH2 0x100 EXP SWAP1 DIV PUSH20 0xFFFFFFFFFFFFFFFFFFFFFFFFFFFFFFFFFFFFFFFF AND PUSH20 0xFFFFFFFFFFFFFFFFFFFFFFFFFFFFFFFFFFFFFFFF AND PUSH20 0xFFFFFFFFFFFFFFFFFFFFFFFFFFFFFFFFFFFFFFFF AND DUP2 MSTORE PUSH1 0x20 ADD PUSH1 0x1 DUP3 ADD PUSH1 0x0 SWAP1 SLOAD SWAP1 PUSH2 0x100 EXP SWAP1 DIV PUSH20 0xFFFFFFFFFFFFFFFFFFFFFFFFFFFFFFFFFFFFFFFF AND PUSH20 0xFFFFFFFFFFFFFFFFFFFFFFFFFFFFFFFFFFFFFFFF AND PUSH20 0xFFFFFFFFFFFFFFFFFFFFFFFFFFFFFFFFFFFFFFFF AND DUP2 MSTORE PUSH1 0x20 ADD PUSH1 0x2 DUP3 ADD SLOAD DUP2 MSTORE PUSH1 0x20 ADD PUSH1 0x3 DUP3 ADD SLOAD DUP2 MSTORE PUSH1 0x20 ADD PUSH1 0x4 DUP3 ADD SLOAD DUP2 MSTORE PUSH1 0x20 ADD PUSH1 0x5 DUP3 ADD SLOAD DUP2 MSTORE PUSH1 0x20 ADD PUSH1 0x6 DUP3 ADD PUSH1 0x0 SWAP1 SLOAD SWAP1 PUSH2 0x100 EXP SWAP1 DIV PUSH1 0xFF AND PUSH1 0x2 DUP2 GT ISZERO PUSH2 0xBF3 JUMPI PUSH2 0xBF2 PUSH2 0x125E JUMP JUMPDEST JUMPDEST PUSH1 0x2 DUP2 GT ISZERO PUSH2 0xC05 JUMPI PUSH2 0xC04 PUSH2 0x125E JUMP JUMPDEST JUMPDEST DUP2 MSTORE PUSH1 0x20 ADD PUSH1 0x6 DUP3 ADD PUSH1 0x1 SWAP1 SLOAD SWAP1 PUSH2 0x100 EXP SWAP1 DIV PUSH1 0xFF AND ISZERO ISZERO ISZERO ISZERO DUP2 MSTORE POP POP SWAP1 POP DUP1 PUSH1 0x0 ADD MLOAD DUP2 PUSH1 0x20 ADD MLOAD DUP3 PUSH1 0x40 ADD MLOAD DUP4 PUSH1 0x60 ADD MLOAD DUP5 PUSH1 0x80 ADD MLOAD DUP6 PUSH1 0xA0 ADD MLOAD DUP7 PUSH1 0xC0 ADD MLOAD DUP8 PUSH1 0xE0 ADD MLOAD SWAP9 POP SWAP9 POP SWAP9 POP SWAP9 POP SWAP9 POP SWAP9 POP SWAP9 POP SWAP9 POP POP SWAP3 SWAP6 SWAP9 POP SWAP3 SWAP6 SWAP9 SWAP1 SWAP4 SWAP7 POP JUMP JUMPDEST PUSH1 0x1 SLOAD DUP2 JUMP JUMPDEST PUSH1 0x0 DUP1 PUSH1 0x0 DUP4 PUSH20 0xFFFFFFFFFFFFFFFFFFFFFFFFFFFFFFFFFFFFFFFF AND PUSH20 0xFFFFFFFFFFFFFFFFFFFFFFFFFFFFFFFFFFFFFFFF AND DUP2 MSTORE PUSH1 0x20 ADD SWAP1 DUP2 MSTORE PUSH1 0x20 ADD PUSH1 0x0 KECCAK256 DUP1 SLOAD SWAP1 POP SWAP1 POP SWAP2 SWAP1 POP JUMP JUMPDEST DUP1 CALLVALUE EQ PUSH2 0xCFF JUMPI PUSH1 0x40 MLOAD PUSH32 0x8C379A000000000000000000000000000000000000000000000000000000000 DUP2 MSTORE PUSH1 0x4 ADD PUSH2 0xCF6 SWAP1 PUSH2 0x1843 JUMP JUMPDEST PUSH1 0x40 MLOAD DUP1 SWAP2 SUB SWAP1 REVERT JUMPDEST PUSH1 0x0 PUSH1 0x40 MLOAD DUP1 PUSH2 0x100 ADD PUSH1 0x40 MSTORE DUP1 CALLER PUSH20 0xFFFFFFFFFFFFFFFFFFFFFFFFFFFFFFFFFFFFFFFF AND DUP2 MSTORE PUSH1 0x20 ADD DUP7 PUSH20 0xFFFFFFFFFFFFFFFFFFFFFFFFFFFFFFFFFFFFFFFF AND DUP2 MSTORE PUSH1 0x20 ADD DUP6 DUP2 MSTORE PUSH1 0x20 ADD PUSH1 0x0 DUP2 MSTORE PUSH1 0x20 ADD DUP5 DUP2 MSTORE PUSH1 0x20 ADD DUP4 DUP2 MSTORE PUSH1 0x20 ADD PUSH1 0x0 PUSH1 0x2 DUP2 GT ISZERO PUSH2 0xD72 JUMPI PUSH2 0xD71 PUSH2 0x125E JUMP JUMPDEST JUMPDEST DUP2 MSTORE PUSH1 0x20 ADD PUSH1 0x0 ISZERO ISZERO DUP2 MSTORE POP SWAP1 POP PUSH1 0x0 DUP1 CALLER PUSH20 0xFFFFFFFFFFFFFFFFFFFFFFFFFFFFFFFFFFFFFFFF AND PUSH20 0xFFFFFFFFFFFFFFFFFFFFFFFFFFFFFFFFFFFFFFFF AND DUP2 MSTORE PUSH1 0x20 ADD SWAP1 DUP2 MSTORE PUSH1 0x20 ADD PUSH1 0x0 KECCAK256 DUP2 SWAP1 DUP1 PUSH1 0x1 DUP2 SLOAD ADD DUP1 DUP3 SSTORE DUP1 SWAP2 POP POP PUSH1 0x1 SWAP1 SUB SWAP1 PUSH1 0x0 MSTORE PUSH1 0x20 PUSH1 0x0 KECCAK256 SWAP1 PUSH1 0x7 MUL ADD PUSH1 0x0 SWAP1 SWAP2 SWAP1 SWAP2 SWAP1 SWAP2 POP PUSH1 0x0 DUP3 ADD MLOAD DUP2 PUSH1 0x0 ADD PUSH1 0x0 PUSH2 0x100 EXP DUP2 SLOAD DUP2 PUSH20 0xFFFFFFFFFFFFFFFFFFFFFFFFFFFFFFFFFFFFFFFF MUL NOT AND SWAP1 DUP4 PUSH20 0xFFFFFFFFFFFFFFFFFFFFFFFFFFFFFFFFFFFFFFFF AND MUL OR SWAP1 SSTORE POP PUSH1 0x20 DUP3 ADD MLOAD DUP2 PUSH1 0x1 ADD PUSH1 0x0 PUSH2 0x100 EXP DUP2 SLOAD DUP2 PUSH20 0xFFFFFFFFFFFFFFFFFFFFFFFFFFFFFFFFFFFFFFFF MUL NOT AND SWAP1 DUP4 PUSH20 0xFFFFFFFFFFFFFFFFFFFFFFFFFFFFFFFFFFFFFFFF AND MUL OR SWAP1 SSTORE POP PUSH1 0x40 DUP3 ADD MLOAD DUP2 PUSH1 0x2 ADD SSTORE PUSH1 0x60 DUP3 ADD MLOAD DUP2 PUSH1 0x3 ADD SSTORE PUSH1 0x80 DUP3 ADD MLOAD DUP2 PUSH1 0x4 ADD SSTORE PUSH1 0xA0 DUP3 ADD MLOAD DUP2 PUSH1 0x5 ADD SSTORE PUSH1 0xC0 DUP3 ADD MLOAD DUP2 PUSH1 0x6 ADD PUSH1 0x0 PUSH2 0x100 EXP DUP2 SLOAD DUP2 PUSH1 0xFF MUL NOT AND SWAP1 DUP4 PUSH1 0x2 DUP2 GT ISZERO PUSH2 0xEC9 JUMPI PUSH2 0xEC8 PUSH2 0x125E JUMP JUMPDEST JUMPDEST MUL OR SWAP1 SSTORE POP PUSH1 0xE0 DUP3 ADD MLOAD DUP2 PUSH1 0x6 ADD PUSH1 0x1 PUSH2 0x100 EXP DUP2 SLOAD DUP2 PUSH1 0xFF MUL NOT AND SWAP1 DUP4 ISZERO ISZERO MUL OR SWAP1 SSTORE POP POP POP PUSH1 0x1 PUSH1 0x0 DUP2 SLOAD DUP1 SWAP3 SWAP2 SWAP1 PUSH2 0xF03 SWAP1 PUSH2 0x1892 JUMP JUMPDEST SWAP2 SWAP1 POP SSTORE POP PUSH1 0x2 PUSH1 0x40 MLOAD DUP1 PUSH2 0x100 ADD PUSH1 0x40 MSTORE DUP1 CALLER PUSH20 0xFFFFFFFFFFFFFFFFFFFFFFFFFFFFFFFFFFFFFFFF AND DUP2 MSTORE PUSH1 0x20 ADD DUP8 PUSH20 0xFFFFFFFFFFFFFFFFFFFFFFFFFFFFFFFFFFFFFFFF AND DUP2 MSTORE PUSH1 0x20 ADD DUP7 DUP2 MSTORE PUSH1 0x20 ADD PUSH1 0x0 DUP2 MSTORE PUSH1 0x20 ADD DUP6 DUP2 MSTORE PUSH1 0x20 ADD DUP5 DUP2 MSTORE PUSH1 0x20 ADD PUSH1 0x0 PUSH1 0x2 DUP2 GT ISZERO PUSH2 0xF7B JUMPI PUSH2 0xF7A PUSH2 0x125E JUMP JUMPDEST JUMPDEST DUP2 MSTORE PUSH1 0x20 ADD PUSH1 0x0 ISZERO ISZERO DUP2 MSTORE POP SWAP1 DUP1 PUSH1 0x1 DUP2 SLOAD ADD DUP1 DUP3 SSTORE DUP1 SWAP2 POP POP PUSH1 0x1 SWAP1 SUB SWAP1 PUSH1 0x0 MSTORE PUSH1 0x20 PUSH1 0x0 KECCAK256 SWAP1 PUSH1 0x7 MUL ADD PUSH1 0x0 SWAP1 SWAP2 SWAP1 SWAP2 SWAP1 SWAP2 POP PUSH1 0x0 DUP3 ADD MLOAD DUP2 PUSH1 0x0 ADD PUSH1 0x0 PUSH2 0x100 EXP DUP2 SLOAD DUP2 PUSH20 0xFFFFFFFFFFFFFFFFFFFFFFFFFFFFFFFFFFFFFFFF MUL NOT AND SWAP1 DUP4 PUSH20 0xFFFFFFFFFFFFFFFFFFFFFFFFFFFFFFFFFFFFFFFF AND MUL OR SWAP1 SSTORE POP PUSH1 0x20 DUP3 ADD MLOAD DUP2 PUSH1 0x1 ADD PUSH1 0x0 PUSH2 0x100 EXP DUP2 SLOAD DUP2 PUSH20 0xFFFFFFFFFFFFFFFFFFFFFFFFFFFFFFFFFFFFFFFF MUL NOT AND SWAP1 DUP4 PUSH20 0xFFFFFFFFFFFFFFFFFFFFFFFFFFFFFFFFFFFFFFFF AND MUL OR SWAP1 SSTORE POP PUSH1 0x40 DUP3 ADD MLOAD DUP2 PUSH1 0x2 ADD SSTORE PUSH1 0x60 DUP3 ADD MLOAD DUP2 PUSH1 0x3 ADD SSTORE PUSH1 0x80 DUP3 ADD MLOAD DUP2 PUSH1 0x4 ADD SSTORE PUSH1 0xA0 DUP3 ADD MLOAD DUP2 PUSH1 0x5 ADD SSTORE PUSH1 0xC0 DUP3 ADD MLOAD DUP2 PUSH1 0x6 ADD PUSH1 0x0 PUSH2 0x100 EXP DUP2 SLOAD DUP2 PUSH1 0xFF MUL NOT AND SWAP1 DUP4 PUSH1 0x2 DUP2 GT ISZERO PUSH2 0x1091 JUMPI PUSH2 0x1090 PUSH2 0x125E JUMP JUMPDEST JUMPDEST MUL OR SWAP1 SSTORE POP PUSH1 0xE0 DUP3 ADD MLOAD DUP2 PUSH1 0x6 ADD PUSH1 0x1 PUSH2 0x100 EXP DUP2 SLOAD DUP2 PUSH1 0xFF MUL NOT AND SWAP1 DUP4 ISZERO ISZERO MUL OR SWAP1 SSTORE POP POP POP DUP5 PUSH20 0xFFFFFFFFFFFFFFFFFFFFFFFFFFFFFFFFFFFFFFFF AND CALLER PUSH20 0xFFFFFFFFFFFFFFFFFFFFFFFFFFFFFFFFFFFFFFFF AND PUSH32 0x5001B34ECF2DB5B7BBEDDCBBE761EC9ECADCC7638018B98CE3E24995B0E946B6 DUP7 DUP7 DUP7 PUSH1 0x40 MLOAD PUSH2 0x1119 SWAP4 SWAP3 SWAP2 SWAP1 PUSH2 0x18DA JUMP JUMPDEST PUSH1 0x40 MLOAD DUP1 SWAP2 SUB SWAP1 LOG3 POP POP POP POP POP JUMP JUMPDEST PUSH1 0x0 DUP1 REVERT JUMPDEST PUSH1 0x0 PUSH20 0xFFFFFFFFFFFFFFFFFFFFFFFFFFFFFFFFFFFFFFFF DUP3 AND SWAP1 POP SWAP2 SWAP1 POP JUMP JUMPDEST PUSH1 0x0 PUSH2 0x1158 DUP3 PUSH2 0x112D JUMP JUMPDEST SWAP1 POP SWAP2 SWAP1 POP JUMP JUMPDEST PUSH2 0x1168 DUP2 PUSH2 0x114D JUMP JUMPDEST DUP2 EQ PUSH2 0x1173 JUMPI PUSH1 0x0 DUP1 REVERT JUMPDEST POP JUMP JUMPDEST PUSH1 0x0 DUP2 CALLDATALOAD SWAP1 POP PUSH2 0x1185 DUP2 PUSH2 0x115F JUMP JUMPDEST SWAP3 SWAP2 POP POP JUMP JUMPDEST PUSH1 0x0 DUP2 SWAP1 POP SWAP2 SWAP1 POP JUMP JUMPDEST PUSH2 0x119E DUP2 PUSH2 0x118B JUMP JUMPDEST DUP2 EQ PUSH2 0x11A9 JUMPI PUSH1 0x0 DUP1 REVERT JUMPDEST POP JUMP JUMPDEST PUSH1 0x0 DUP2 CALLDATALOAD SWAP1 POP PUSH2 0x11BB DUP2 PUSH2 0x1195 JUMP JUMPDEST SWAP3 SWAP2 POP POP JUMP JUMPDEST PUSH1 0x0 DUP1 PUSH1 0x0 PUSH1 0x60 DUP5 DUP7 SUB SLT ISZERO PUSH2 0x11DA JUMPI PUSH2 0x11D9 PUSH2 0x1128 JUMP JUMPDEST JUMPDEST PUSH1 0x0 PUSH2 0x11E8 DUP7 DUP3 DUP8 ADD PUSH2 0x1176 JUMP JUMPDEST SWAP4 POP POP PUSH1 0x20 PUSH2 0x11F9 DUP7 DUP3 DUP8 ADD PUSH2 0x1176 JUMP JUMPDEST SWAP3 POP POP PUSH1 0x40 PUSH2 0x120A DUP7 DUP3 DUP8 ADD PUSH2 0x11AC JUMP JUMPDEST SWAP2 POP POP SWAP3 POP SWAP3 POP SWAP3 JUMP JUMPDEST PUSH1 0x0 DUP2 MLOAD SWAP1 POP SWAP2 SWAP1 POP JUMP JUMPDEST PUSH1 0x0 DUP3 DUP3 MSTORE PUSH1 0x20 DUP3 ADD SWAP1 POP SWAP3 SWAP2 POP POP JUMP JUMPDEST PUSH1 0x0 DUP2 SWAP1 POP PUSH1 0x20 DUP3 ADD SWAP1 POP SWAP2 SWAP1 POP JUMP JUMPDEST PUSH2 0x1249 DUP2 PUSH2 0x114D JUMP JUMPDEST DUP3 MSTORE POP POP JUMP JUMPDEST PUSH2 0x1258 DUP2 PUSH2 0x118B JUMP JUMPDEST DUP3 MSTORE POP POP JUMP JUMPDEST PUSH32 0x4E487B7100000000000000000000000000000000000000000000000000000000 PUSH1 0x0 MSTORE PUSH1 0x21 PUSH1 0x4 MSTORE PUSH1 0x24 PUSH1 0x0 REVERT JUMPDEST PUSH1 0x3 DUP2 LT PUSH2 0x129E JUMPI PUSH2 0x129D PUSH2 0x125E JUMP JUMPDEST JUMPDEST POP JUMP JUMPDEST PUSH1 0x0 DUP2 SWAP1 POP PUSH2 0x12AF DUP3 PUSH2 0x128D JUMP JUMPDEST SWAP2 SWAP1 POP JUMP JUMPDEST PUSH1 0x0 PUSH2 0x12BF DUP3 PUSH2 0x12A1 JUMP JUMPDEST SWAP1 POP SWAP2 SWAP1 POP JUMP JUMPDEST PUSH2 0x12CF DUP2 PUSH2 0x12B4 JUMP JUMPDEST DUP3 MSTORE POP POP JUMP JUMPDEST PUSH1 0x0 DUP2 ISZERO ISZERO SWAP1 POP SWAP2 SWAP1 POP JUMP JUMPDEST PUSH2 0x12EA DUP2 PUSH2 0x12D5 JUMP JUMPDEST DUP3 MSTORE POP POP JUMP JUMPDEST PUSH2 0x100 DUP3 ADD PUSH1 0x0 DUP3 ADD MLOAD PUSH2 0x1307 PUSH1 0x0 DUP6 ADD DUP3 PUSH2 0x1240 JUMP JUMPDEST POP PUSH1 0x20 DUP3 ADD MLOAD PUSH2 0x131A PUSH1 0x20 DUP6 ADD DUP3 PUSH2 0x1240 JUMP JUMPDEST POP PUSH1 0x40 DUP3 ADD MLOAD PUSH2 0x132D PUSH1 0x40 DUP6 ADD DUP3 PUSH2 0x124F JUMP JUMPDEST POP PUSH1 0x60 DUP3 ADD MLOAD PUSH2 0x1340 PUSH1 0x60 DUP6 ADD DUP3 PUSH2 0x124F JUMP JUMPDEST POP PUSH1 0x80 DUP3 ADD MLOAD PUSH2 0x1353 PUSH1 0x80 DUP6 ADD DUP3 PUSH2 0x124F JUMP JUMPDEST POP PUSH1 0xA0 DUP3 ADD MLOAD PUSH2 0x1366 PUSH1 0xA0 DUP6 ADD DUP3 PUSH2 0x124F JUMP JUMPDEST POP PUSH1 0xC0 DUP3 ADD MLOAD PUSH2 0x1379 PUSH1 0xC0 DUP6 ADD DUP3 PUSH2 0x12C6 JUMP JUMPDEST POP PUSH1 0xE0 DUP3 ADD MLOAD PUSH2 0x138C PUSH1 0xE0 DUP6 ADD DUP3 PUSH2 0x12E1 JUMP JUMPDEST POP POP POP POP JUMP JUMPDEST PUSH1 0x0 PUSH2 0x139E DUP4 DUP4 PUSH2 0x12F0 JUMP JUMPDEST PUSH2 0x100 DUP4 ADD SWAP1 POP SWAP3 SWAP2 POP POP JUMP JUMPDEST PUSH1 0x0 PUSH1 0x20 DUP3 ADD SWAP1 POP SWAP2 SWAP1 POP JUMP JUMPDEST PUSH1 0x0 PUSH2 0x13C3 DUP3 PUSH2 0x1214 JUMP JUMPDEST PUSH2 0x13CD DUP2 DUP6 PUSH2 0x121F JUMP JUMPDEST SWAP4 POP PUSH2 0x13D8 DUP4 PUSH2 0x1230 JUMP JUMPDEST DUP1 PUSH1 0x0 JUMPDEST DUP4 DUP2 LT ISZERO PUSH2 0x1409 JUMPI DUP2 MLOAD PUSH2 0x13F0 DUP9 DUP3 PUSH2 0x1392 JUMP JUMPDEST SWAP8 POP PUSH2 0x13FB DUP4 PUSH2 0x13AB JUMP JUMPDEST SWAP3 POP POP PUSH1 0x1 DUP2 ADD SWAP1 POP PUSH2 0x13DC JUMP JUMPDEST POP DUP6 SWAP4 POP POP POP POP SWAP3 SWAP2 POP POP JUMP JUMPDEST PUSH1 0x0 PUSH1 0x20 DUP3 ADD SWAP1 POP DUP2 DUP2 SUB PUSH1 0x0 DUP4 ADD MSTORE PUSH2 0x1430 DUP2 DUP5 PUSH2 0x13B8 JUMP JUMPDEST SWAP1 POP SWAP3 SWAP2 POP POP JUMP JUMPDEST PUSH1 0x0 DUP1 PUSH1 0x40 DUP4 DUP6 SUB SLT ISZERO PUSH2 0x144F JUMPI PUSH2 0x144E PUSH2 0x1128 JUMP JUMPDEST JUMPDEST PUSH1 0x0 PUSH2 0x145D DUP6 DUP3 DUP7 ADD PUSH2 0x1176 JUMP JUMPDEST SWAP3 POP POP PUSH1 0x20 PUSH2 0x146E DUP6 DUP3 DUP7 ADD PUSH2 0x11AC JUMP JUMPDEST SWAP2 POP POP SWAP3 POP SWAP3 SWAP1 POP JUMP JUMPDEST PUSH2 0x1481 DUP2 PUSH2 0x114D JUMP JUMPDEST DUP3 MSTORE POP POP JUMP JUMPDEST PUSH2 0x1490 DUP2 PUSH2 0x118B JUMP JUMPDEST DUP3 MSTORE POP POP JUMP JUMPDEST PUSH2 0x149F DUP2 PUSH2 0x12B4 JUMP JUMPDEST DUP3 MSTORE POP POP JUMP JUMPDEST PUSH2 0x14AE DUP2 PUSH2 0x12D5 JUMP JUMPDEST DUP3 MSTORE POP POP JUMP JUMPDEST PUSH1 0x0 PUSH2 0x100 DUP3 ADD SWAP1 POP PUSH2 0x14CA PUSH1 0x0 DUP4 ADD DUP12 PUSH2 0x1478 JUMP JUMPDEST PUSH2 0x14D7 PUSH1 0x20 DUP4 ADD DUP11 PUSH2 0x1478 JUMP JUMPDEST PUSH2 0x14E4 PUSH1 0x40 DUP4 ADD DUP10 PUSH2 0x1487 JUMP JUMPDEST PUSH2 0x14F1 PUSH1 0x60 DUP4 ADD DUP9 PUSH2 0x1487 JUMP JUMPDEST PUSH2 0x14FE PUSH1 0x80 DUP4 ADD DUP8 PUSH2 0x1487 JUMP JUMPDEST PUSH2 0x150B PUSH1 0xA0 DUP4 ADD DUP7 PUSH2 0x1487 JUMP JUMPDEST PUSH2 0x1518 PUSH1 0xC0 DUP4 ADD DUP6 PUSH2 0x1496 JUMP JUMPDEST PUSH2 0x1525 PUSH1 0xE0 DUP4 ADD DUP5 PUSH2 0x14A5 JUMP JUMPDEST SWAP10 SWAP9 POP POP POP POP POP POP POP POP POP JUMP JUMPDEST PUSH1 0x0 PUSH1 0x20 DUP3 ADD SWAP1 POP PUSH2 0x1547 PUSH1 0x0 DUP4 ADD DUP5 PUSH2 0x1487 JUMP JUMPDEST SWAP3 SWAP2 POP POP JUMP JUMPDEST PUSH1 0x0 PUSH1 0x20 DUP3 DUP5 SUB SLT ISZERO PUSH2 0x1563 JUMPI PUSH2 0x1562 PUSH2 0x1128 JUMP JUMPDEST JUMPDEST PUSH1 0x0 PUSH2 0x1571 DUP5 DUP3 DUP6 ADD PUSH2 0x1176 JUMP JUMPDEST SWAP2 POP POP SWAP3 SWAP2 POP POP JUMP JUMPDEST PUSH1 0x0 DUP1 PUSH1 0x0 DUP1 PUSH1 0x80 DUP6 DUP8 SUB SLT ISZERO PUSH2 0x1594 JUMPI PUSH2 0x1593 PUSH2 0x1128 JUMP JUMPDEST JUMPDEST PUSH1 0x0 PUSH2 0x15A2 DUP8 DUP3 DUP9 ADD PUSH2 0x1176 JUMP JUMPDEST SWAP5 POP POP PUSH1 0x20 PUSH2 0x15B3 DUP8 DUP3 DUP9 ADD PUSH2 0x11AC JUMP JUMPDEST SWAP4 POP POP PUSH1 0x40 PUSH2 0x15C4 DUP8 DUP3 DUP9 ADD PUSH2 0x11AC JUMP JUMPDEST SWAP3 POP POP PUSH1 0x60 PUSH2 0x15D5 DUP8 DUP3 DUP9 ADD PUSH2 0x11AC JUMP JUMPDEST SWAP2 POP POP SWAP3 SWAP6 SWAP2 SWAP5 POP SWAP3 POP JUMP JUMPDEST PUSH32 0x4E487B7100000000000000000000000000000000000000000000000000000000 PUSH1 0x0 MSTORE PUSH1 0x32 PUSH1 0x4 MSTORE PUSH1 0x24 PUSH1 0x0 REVERT JUMPDEST PUSH1 0x0 DUP3 DUP3 MSTORE PUSH1 0x20 DUP3 ADD SWAP1 POP SWAP3 SWAP2 POP POP JUMP JUMPDEST PUSH32 0x496E76616C69642072656365697665722E000000000000000000000000000000 PUSH1 0x0 DUP3 ADD MSTORE POP JUMP JUMPDEST PUSH1 0x0 PUSH2 0x1657 PUSH1 0x11 DUP4 PUSH2 0x1610 JUMP JUMPDEST SWAP2 POP PUSH2 0x1662 DUP3 PUSH2 0x1621 JUMP JUMPDEST PUSH1 0x20 DUP3 ADD SWAP1 POP SWAP2 SWAP1 POP JUMP JUMPDEST PUSH1 0x0 PUSH1 0x20 DUP3 ADD SWAP1 POP DUP2 DUP2 SUB PUSH1 0x0 DUP4 ADD MSTORE PUSH2 0x1686 DUP2 PUSH2 0x164A JUMP JUMPDEST SWAP1 POP SWAP2 SWAP1 POP JUMP JUMPDEST PUSH32 0x536869706D656E74206E6F7420696E207472616E7369742E0000000000000000 PUSH1 0x0 DUP3 ADD MSTORE POP JUMP JUMPDEST PUSH1 0x0 PUSH2 0x16C3 PUSH1 0x18 DUP4 PUSH2 0x1610 JUMP JUMPDEST SWAP2 POP PUSH2 0x16CE DUP3 PUSH2 0x168D JUMP JUMPDEST PUSH1 0x20 DUP3 ADD SWAP1 POP SWAP2 SWAP1 POP JUMP JUMPDEST PUSH1 0x0 PUSH1 0x20 DUP3 ADD SWAP1 POP DUP2 DUP2 SUB PUSH1 0x0 DUP4 ADD MSTORE PUSH2 0x16F2 DUP2 PUSH2 0x16B6 JUMP JUMPDEST SWAP1 POP SWAP2 SWAP1 POP JUMP JUMPDEST PUSH32 0x536869706D656E7420616C726561647920706169642E00000000000000000000 PUSH1 0x0 DUP3 ADD MSTORE POP JUMP JUMPDEST PUSH1 0x0 PUSH2 0x172F PUSH1 0x16 DUP4 PUSH2 0x1610 JUMP JUMPDEST SWAP2 POP PUSH2 0x173A DUP3 PUSH2 0x16F9 JUMP JUMPDEST PUSH1 0x20 DUP3 ADD SWAP1 POP SWAP2 SWAP1 POP JUMP JUMPDEST PUSH1 0x0 PUSH1 0x20 DUP3 ADD SWAP1 POP DUP2 DUP2 SUB PUSH1 0x0 DUP4 ADD MSTORE PUSH2 0x175E DUP2 PUSH2 0x1722 JUMP JUMPDEST SWAP1 POP SWAP2 SWAP1 POP JUMP JUMPDEST PUSH32 0x536869706D656E7420616C726561647920696E207472616E7369742E00000000 PUSH1 0x0 DUP3 ADD MSTORE POP JUMP JUMPDEST PUSH1 0x0 PUSH2 0x179B PUSH1 0x1C DUP4 PUSH2 0x1610 JUMP JUMPDEST SWAP2 POP PUSH2 0x17A6 DUP3 PUSH2 0x1765 JUMP JUMPDEST PUSH1 0x20 DUP3 ADD SWAP1 POP SWAP2 SWAP1 POP JUMP JUMPDEST PUSH1 0x0 PUSH1 0x20 DUP3 ADD SWAP1 POP DUP2 DUP2 SUB PUSH1 0x0 DUP4 ADD MSTORE PUSH2 0x17CA DUP2 PUSH2 0x178E JUMP JUMPDEST SWAP1 POP SWAP2 SWAP1 POP JUMP JUMPDEST PUSH32 0x5061796D656E7420616D6F756E74206D757374206D6174636820746865207072 PUSH1 0x0 DUP3 ADD MSTORE PUSH32 0x6963652E20000000000000000000000000000000000000000000000000000000 PUSH1 0x20 DUP3 ADD MSTORE POP JUMP JUMPDEST PUSH1 0x0 PUSH2 0x182D PUSH1 0x25 DUP4 PUSH2 0x1610 JUMP JUMPDEST SWAP2 POP PUSH2 0x1838 DUP3 PUSH2 0x17D1 JUMP JUMPDEST PUSH1 0x40 DUP3 ADD SWAP1 POP SWAP2 SWAP1 POP JUMP JUMPDEST PUSH1 0x0 PUSH1 0x20 DUP3 ADD SWAP1 POP DUP2 DUP2 SUB PUSH1 0x0 DUP4 ADD MSTORE PUSH2 0x185C DUP2 PUSH2 0x1820 JUMP JUMPDEST SWAP1 POP SWAP2 SWAP1 POP JUMP JUMPDEST PUSH32 0x4E487B7100000000000000000000000000000000000000000000000000000000 PUSH1 0x0 MSTORE PUSH1 0x11 PUSH1 0x4 MSTORE PUSH1 0x24 PUSH1 0x0 REVERT JUMPDEST PUSH1 0x0 PUSH2 0x189D DUP3 PUSH2 0x118B JUMP JUMPDEST SWAP2 POP PUSH32 0xFFFFFFFFFFFFFFFFFFFFFFFFFFFFFFFFFFFFFFFFFFFFFFFFFFFFFFFFFFFFFFFF DUP3 SUB PUSH2 0x18CF JUMPI PUSH2 0x18CE PUSH2 0x1863 JUMP JUMPDEST JUMPDEST PUSH1 0x1 DUP3 ADD SWAP1 POP SWAP2 SWAP1 POP JUMP JUMPDEST PUSH1 0x0 PUSH1 0x60 DUP3 ADD SWAP1 POP PUSH2 0x18EF PUSH1 0x0 DUP4 ADD DUP7 PUSH2 0x1487 JUMP JUMPDEST PUSH2 0x18FC PUSH1 0x20 DUP4 ADD DUP6 PUSH2 0x1487 JUMP JUMPDEST PUSH2 0x1909 PUSH1 0x40 DUP4 ADD DUP5 PUSH2 0x1487 JUMP JUMPDEST SWAP5 SWAP4 POP POP POP POP JUMP INVALID LOG2 PUSH5 0x6970667358 0x22 SLT KECCAK256 0xBE CREATE2 MULMOD CHAINID PUSH13 0xF78A4B87486CDF5FC287744898 SWAP16 SHL CALLDATALOAD DUP7 SWAP6 PUSH10 0x5EC6F7CB0D1F2D86473 PUSH16 0x6C634300081200330000000000000000 "
				},
				"gasEstimates": {
					"creation": {
						"codeDepositCost": "1294200",
						"executionCost": "6363",
						"totalCost": "1300563"
					},
					"external": {
						"completeShipment(address,address,uint256)": "infinite",
						"createShipment(address,uint256,uint256,uint256)": "infinite",
						"getAllTransactions()": "infinite",
						"getShipment(address,uint256)": "infinite",
						"getShipmentCount(address)": "2893",
						"shipmentCount()": "2451",
						"shipments(address,uint256)": "infinite",
						"startShipment(address,address,uint256)": "infinite"
					}
				},
				"methodIdentifiers": {
					"completeShipment(address,address,uint256)": "179a878c",
					"createShipment(address,uint256,uint256,uint256)": "cbc4b181",
					"getAllTransactions()": "27506f53",
					"getShipment(address,uint256)": "8365da54",
					"getShipmentCount(address)": "b7dfd93d",
					"shipmentCount()": "aace20b7",
					"shipments(address,uint256)": "5667e02f",
					"startShipment(address,address,uint256)": "7ff5265d"
				}
			},
			"storageLayout": {
				"storage": [
					{
						"astId": 29,
						"contract": "Tracking.sol:Tracking",
						"label": "shipments",
						"offset": 0,
						"slot": "0",
						"type": "t_mapping(t_address,t_array(t_struct(Shipment)23_storage)dyn_storage)"
					},
					{
						"astId": 31,
						"contract": "Tracking.sol:Tracking",
						"label": "shipmentCount",
						"offset": 0,
						"slot": "1",
						"type": "t_uint256"
					},
					{
						"astId": 53,
						"contract": "Tracking.sol:Tracking",
						"label": "tyepShipments",
						"offset": 0,
						"slot": "2",
						"type": "t_array(t_struct(TyepShipment)49_storage)dyn_storage"
					}
				],
				"types": {
					"t_address": {
						"encoding": "inplace",
						"label": "address",
						"numberOfBytes": "20"
					},
					"t_array(t_struct(Shipment)23_storage)dyn_storage": {
						"base": "t_struct(Shipment)23_storage",
						"encoding": "dynamic_array",
						"label": "struct Tracking.Shipment[]",
						"numberOfBytes": "32"
					},
					"t_array(t_struct(TyepShipment)49_storage)dyn_storage": {
						"base": "t_struct(TyepShipment)49_storage",
						"encoding": "dynamic_array",
						"label": "struct Tracking.TyepShipment[]",
						"numberOfBytes": "32"
					},
					"t_bool": {
						"encoding": "inplace",
						"label": "bool",
						"numberOfBytes": "1"
					},
					"t_enum(ShipmentStatus)5": {
						"encoding": "inplace",
						"label": "enum Tracking.ShipmentStatus",
						"numberOfBytes": "1"
					},
					"t_mapping(t_address,t_array(t_struct(Shipment)23_storage)dyn_storage)": {
						"encoding": "mapping",
						"key": "t_address",
						"label": "mapping(address => struct Tracking.Shipment[])",
						"numberOfBytes": "32",
						"value": "t_array(t_struct(Shipment)23_storage)dyn_storage"
					},
					"t_struct(Shipment)23_storage": {
						"encoding": "inplace",
						"label": "struct Tracking.Shipment",
						"members": [
							{
								"astId": 7,
								"contract": "Tracking.sol:Tracking",
								"label": "sender",
								"offset": 0,
								"slot": "0",
								"type": "t_address"
							},
							{
								"astId": 9,
								"contract": "Tracking.sol:Tracking",
								"label": "receiver",
								"offset": 0,
								"slot": "1",
								"type": "t_address"
							},
							{
								"astId": 11,
								"contract": "Tracking.sol:Tracking",
								"label": "pickupTime",
								"offset": 0,
								"slot": "2",
								"type": "t_uint256"
							},
							{
								"astId": 13,
								"contract": "Tracking.sol:Tracking",
								"label": "deliveryTime",
								"offset": 0,
								"slot": "3",
								"type": "t_uint256"
							},
							{
								"astId": 15,
								"contract": "Tracking.sol:Tracking",
								"label": "distance",
								"offset": 0,
								"slot": "4",
								"type": "t_uint256"
							},
							{
								"astId": 17,
								"contract": "Tracking.sol:Tracking",
								"label": "price",
								"offset": 0,
								"slot": "5",
								"type": "t_uint256"
							},
							{
								"astId": 20,
								"contract": "Tracking.sol:Tracking",
								"label": "status",
								"offset": 0,
								"slot": "6",
								"type": "t_enum(ShipmentStatus)5"
							},
							{
								"astId": 22,
								"contract": "Tracking.sol:Tracking",
								"label": "isPaid",
								"offset": 1,
								"slot": "6",
								"type": "t_bool"
							}
						],
						"numberOfBytes": "224"
					},
					"t_struct(TyepShipment)49_storage": {
						"encoding": "inplace",
						"label": "struct Tracking.TyepShipment",
						"members": [
							{
								"astId": 33,
								"contract": "Tracking.sol:Tracking",
								"label": "sender",
								"offset": 0,
								"slot": "0",
								"type": "t_address"
							},
							{
								"astId": 35,
								"contract": "Tracking.sol:Tracking",
								"label": "receiver",
								"offset": 0,
								"slot": "1",
								"type": "t_address"
							},
							{
								"astId": 37,
								"contract": "Tracking.sol:Tracking",
								"label": "pickupTime",
								"offset": 0,
								"slot": "2",
								"type": "t_uint256"
							},
							{
								"astId": 39,
								"contract": "Tracking.sol:Tracking",
								"label": "deliveryTime",
								"offset": 0,
								"slot": "3",
								"type": "t_uint256"
							},
							{
								"astId": 41,
								"contract": "Tracking.sol:Tracking",
								"label": "distance",
								"offset": 0,
								"slot": "4",
								"type": "t_uint256"
							},
							{
								"astId": 43,
								"contract": "Tracking.sol:Tracking",
								"label": "price",
								"offset": 0,
								"slot": "5",
								"type": "t_uint256"
							},
							{
								"astId": 46,
								"contract": "Tracking.sol:Tracking",
								"label": "status",
								"offset": 0,
								"slot": "6",
								"type": "t_enum(ShipmentStatus)5"
							},
							{
								"astId": 48,
								"contract": "Tracking.sol:Tracking",
								"label": "isPaid",
								"offset": 1,
								"slot": "6",
								"type": "t_bool"
							}
						],
						"numberOfBytes": "224"
					},
					"t_uint256": {
						"encoding": "inplace",
						"label": "uint256",
						"numberOfBytes": "32"
					}
				}
			},
			"userdoc": {
				"kind": "user",
				"methods": {},
				"version": 1
			}
		}
	}
}