{
	"Campaign.sol": {
		"Campaign": {
			"abi": [
				{
					"inputs": [
						{
							"internalType": "string",
							"name": "campaignTitle",
							"type": "string"
						},
						{
							"internalType": "uint256",
							"name": "requiredCampaignAmount",
							"type": "uint256"
						},
						{
							"internalType": "string",
							"name": "imageURI",
							"type": "string"
						},
						{
							"internalType": "string",
							"name": "storyURI",
							"type": "string"
						}
					],
					"stateMutability": "nonpayable",
					"type": "constructor"
				},
				{
					"anonymous": false,
					"inputs": [
						{
							"indexed": true,
							"internalType": "address",
							"name": "doner",
							"type": "address"
						},
						{
							"indexed": true,
							"internalType": "uint256",
							"name": "amount",
							"type": "uint256"
						},
						{
							"indexed": true,
							"internalType": "uint256",
							"name": "timestamp",
							"type": "uint256"
						}
					],
					"name": "donated",
					"type": "event"
				},
				{
					"inputs": [],
					"name": "donate",
					"outputs": [],
					"stateMutability": "payable",
					"type": "function"
				},
				{
					"inputs": [],
					"name": "image",
					"outputs": [
						{
							"internalType": "string",
							"name": "",
							"type": "string"
						}
					],
					"stateMutability": "view",
					"type": "function"
				},
				{
					"inputs": [],
					"name": "owner",
					"outputs": [
						{
							"internalType": "address payable",
							"name": "",
							"type": "address"
						}
					],
					"stateMutability": "view",
					"type": "function"
				},
				{
					"inputs": [],
					"name": "receivedAmount",
					"outputs": [
						{
							"internalType": "uint256",
							"name": "",
							"type": "uint256"
						}
					],
					"stateMutability": "view",
					"type": "function"
				},
				{
					"inputs": [],
					"name": "requiredAmount",
					"outputs": [
						{
							"internalType": "uint256",
							"name": "",
							"type": "uint256"
						}
					],
					"stateMutability": "view",
					"type": "function"
				},
				{
					"inputs": [],
					"name": "story",
					"outputs": [
						{
							"internalType": "string",
							"name": "",
							"type": "string"
						}
					],
					"stateMutability": "view",
					"type": "function"
				},
				{
					"inputs": [],
					"name": "title",
					"outputs": [
						{
							"internalType": "string",
							"name": "",
							"type": "string"
						}
					],
					"stateMutability": "view",
					"type": "function"
				}
			],
			"devdoc": {
				"kind": "dev",
				"methods": {},
				"version": 1
			},
			"evm": {
				"assembly": "    /* \"Campaign.sol\":543:1455  contract Campaign{\r... */\n  mstore(0x40, 0x80)\n    /* \"Campaign.sol\":838:1179  constructor( string memory campaignTitle,\r... */\n  callvalue\n  dup1\n  iszero\n  tag_1\n  jumpi\n  0x00\n  dup1\n  revert\ntag_1:\n  pop\n  mload(0x40)\n  sub(codesize, bytecodeSize)\n  dup1\n  bytecodeSize\n  dup4\n  codecopy\n  dup2\n  dup2\n  add\n  0x40\n  mstore\n  dup2\n  add\n  swap1\n  tag_2\n  swap2\n  swap1\n  tag_3\n  jump\t// in\ntag_2:\n    /* \"Campaign.sol\":1012:1025  campaignTitle */\n  dup4\n    /* \"Campaign.sol\":1004:1009  title */\n  0x00\n    /* \"Campaign.sol\":1004:1025  title = campaignTitle */\n  swap1\n  dup1\n  mload\n  swap1\n  0x20\n  add\n  swap1\n  tag_6\n  swap3\n  swap2\n  swap1\n  tag_7\n  jump\t// in\ntag_6:\n  pop\n    /* \"Campaign.sol\":1053:1075  requiredCampaignAmount */\n  dup3\n    /* \"Campaign.sol\":1036:1050  requiredAmount */\n  0x01\n    /* \"Campaign.sol\":1036:1075  requiredAmount = requiredCampaignAmount */\n  dup2\n  swap1\n  sstore\n  pop\n    /* \"Campaign.sol\":1094:1102  imageURI */\n  dup2\n    /* \"Campaign.sol\":1086:1091  image */\n  0x02\n    /* \"Campaign.sol\":1086:1102  image = imageURI */\n  swap1\n  dup1\n  mload\n  swap1\n  0x20\n  add\n  swap1\n  tag_8\n  swap3\n  swap2\n  swap1\n  tag_7\n  jump\t// in\ntag_8:\n  pop\n    /* \"Campaign.sol\":1121:1129  storyURI */\n  dup1\n    /* \"Campaign.sol\":1113:1118  story */\n  0x03\n    /* \"Campaign.sol\":1113:1129  story = storyURI */\n  swap1\n  dup1\n  mload\n  swap1\n  0x20\n  add\n  swap1\n  tag_9\n  swap3\n  swap2\n  swap1\n  tag_7\n  jump\t// in\ntag_9:\n  pop\n    /* \"Campaign.sol\":1156:1166  msg.sender */\n  caller\n    /* \"Campaign.sol\":1140:1145  owner */\n  0x04\n  0x00\n    /* \"Campaign.sol\":1140:1167  owner = payable(msg.sender) */\n  0x0100\n  exp\n  dup2\n  sload\n  dup2\n  0xffffffffffffffffffffffffffffffffffffffff\n  mul\n  not\n  and\n  swap1\n  dup4\n  0xffffffffffffffffffffffffffffffffffffffff\n  and\n  mul\n  or\n  swap1\n  sstore\n  pop\n    /* \"Campaign.sol\":838:1179  constructor( string memory campaignTitle,\r... */\n  pop\n  pop\n  pop\n  pop\n    /* \"Campaign.sol\":543:1455  contract Campaign{\r... */\n  jump(tag_10)\ntag_7:\n  dup3\n  dup1\n  sload\n  tag_11\n  swap1\n  tag_12\n  jump\t// in\ntag_11:\n  swap1\n  0x00\n  mstore\n  keccak256(0x00, 0x20)\n  swap1\n  0x1f\n  add\n  0x20\n  swap1\n  div\n  dup2\n  add\n  swap3\n  dup3\n  tag_14\n  jumpi\n  0x00\n  dup6\n  sstore\n  jump(tag_13)\ntag_14:\n  dup3\n  0x1f\n  lt\n  tag_15\n  jumpi\n  dup1\n  mload\n  not(0xff)\n  and\n  dup4\n  dup1\n  add\n  or\n  dup6\n  sstore\n  jump(tag_13)\ntag_15:\n  dup3\n  dup1\n  add\n  0x01\n  add\n  dup6\n  sstore\n  dup3\n  iszero\n  tag_13\n  jumpi\n  swap2\n  dup3\n  add\ntag_16:\n  dup3\n  dup2\n  gt\n  iszero\n  tag_17\n  jumpi\n  dup3\n  mload\n  dup3\n  sstore\n  swap2\n  0x20\n  add\n  swap2\n  swap1\n  0x01\n  add\n  swap1\n  jump(tag_16)\ntag_17:\ntag_13:\n  pop\n  swap1\n  pop\n  tag_18\n  swap2\n  swap1\n  tag_19\n  jump\t// in\ntag_18:\n  pop\n  swap1\n  jump\t// out\ntag_19:\ntag_20:\n  dup1\n  dup3\n  gt\n  iszero\n  tag_21\n  jumpi\n  0x00\n  dup2\n  0x00\n  swap1\n  sstore\n  pop\n  0x01\n  add\n  jump(tag_20)\ntag_21:\n  pop\n  swap1\n  jump\t// out\n    /* \"#utility.yul\":7:428   */\ntag_23:\n    /* \"#utility.yul\":96:101   */\n  0x00\n    /* \"#utility.yul\":121:187   */\n  tag_25\n    /* \"#utility.yul\":137:186   */\n  tag_26\n    /* \"#utility.yul\":179:185   */\n  dup5\n    /* \"#utility.yul\":137:186   */\n  tag_27\n  jump\t// in\ntag_26:\n    /* \"#utility.yul\":121:187   */\n  tag_28\n  jump\t// in\ntag_25:\n    /* \"#utility.yul\":112:187   */\n  swap1\n  pop\n    /* \"#utility.yul\":210:216   */\n  dup3\n    /* \"#utility.yul\":203:208   */\n  dup2\n    /* \"#utility.yul\":196:217   */\n  mstore\n    /* \"#utility.yul\":248:252   */\n  0x20\n    /* \"#utility.yul\":241:246   */\n  dup2\n    /* \"#utility.yul\":237:253   */\n  add\n    /* \"#utility.yul\":286:289   */\n  dup5\n    /* \"#utility.yul\":277:283   */\n  dup5\n    /* \"#utility.yul\":272:275   */\n  dup5\n    /* \"#utility.yul\":268:284   */\n  add\n    /* \"#utility.yul\":265:290   */\n  gt\n    /* \"#utility.yul\":262:374   */\n  iszero\n  tag_29\n  jumpi\n    /* \"#utility.yul\":293:372   */\n  tag_30\n  tag_31\n  jump\t// in\ntag_30:\n    /* \"#utility.yul\":262:374   */\ntag_29:\n    /* \"#utility.yul\":383:422   */\n  tag_32\n    /* \"#utility.yul\":415:421   */\n  dup5\n    /* \"#utility.yul\":410:413   */\n  dup3\n    /* \"#utility.yul\":405:408   */\n  dup6\n    /* \"#utility.yul\":383:422   */\n  tag_33\n  jump\t// in\ntag_32:\n    /* \"#utility.yul\":102:428   */\n  pop\n    /* \"#utility.yul\":7:428   */\n  swap4\n  swap3\n  pop\n  pop\n  pop\n  jump\t// out\n    /* \"#utility.yul\":448:803   */\ntag_34:\n    /* \"#utility.yul\":515:520   */\n  0x00\n    /* \"#utility.yul\":564:567   */\n  dup3\n    /* \"#utility.yul\":557:561   */\n  0x1f\n    /* \"#utility.yul\":549:555   */\n  dup4\n    /* \"#utility.yul\":545:562   */\n  add\n    /* \"#utility.yul\":541:568   */\n  slt\n    /* \"#utility.yul\":531:653   */\n  tag_36\n  jumpi\n    /* \"#utility.yul\":572:651   */\n  tag_37\n  tag_38\n  jump\t// in\ntag_37:\n    /* \"#utility.yul\":531:653   */\ntag_36:\n    /* \"#utility.yul\":682:688   */\n  dup2\n    /* \"#utility.yul\":676:689   */\n  mload\n    /* \"#utility.yul\":707:797   */\n  tag_39\n    /* \"#utility.yul\":793:796   */\n  dup5\n    /* \"#utility.yul\":785:791   */\n  dup3\n    /* \"#utility.yul\":778:782   */\n  0x20\n    /* \"#utility.yul\":770:776   */\n  dup7\n    /* \"#utility.yul\":766:783   */\n  add\n    /* \"#utility.yul\":707:797   */\n  tag_23\n  jump\t// in\ntag_39:\n    /* \"#utility.yul\":698:797   */\n  swap2\n  pop\n    /* \"#utility.yul\":521:803   */\n  pop\n    /* \"#utility.yul\":448:803   */\n  swap3\n  swap2\n  pop\n  pop\n  jump\t// out\n    /* \"#utility.yul\":809:952   */\ntag_40:\n    /* \"#utility.yul\":866:871   */\n  0x00\n    /* \"#utility.yul\":897:903   */\n  dup2\n    /* \"#utility.yul\":891:904   */\n  mload\n    /* \"#utility.yul\":882:904   */\n  swap1\n  pop\n    /* \"#utility.yul\":913:946   */\n  tag_42\n    /* \"#utility.yul\":940:945   */\n  dup2\n    /* \"#utility.yul\":913:946   */\n  tag_43\n  jump\t// in\ntag_42:\n    /* \"#utility.yul\":809:952   */\n  swap3\n  swap2\n  pop\n  pop\n  jump\t// out\n    /* \"#utility.yul\":958:2297   */\ntag_3:\n    /* \"#utility.yul\":1085:1091   */\n  0x00\n    /* \"#utility.yul\":1093:1099   */\n  dup1\n    /* \"#utility.yul\":1101:1107   */\n  0x00\n    /* \"#utility.yul\":1109:1115   */\n  dup1\n    /* \"#utility.yul\":1158:1161   */\n  0x80\n    /* \"#utility.yul\":1146:1155   */\n  dup6\n    /* \"#utility.yul\":1137:1144   */\n  dup8\n    /* \"#utility.yul\":1133:1156   */\n  sub\n    /* \"#utility.yul\":1129:1162   */\n  slt\n    /* \"#utility.yul\":1126:1246   */\n  iszero\n  tag_45\n  jumpi\n    /* \"#utility.yul\":1165:1244   */\n  tag_46\n  tag_47\n  jump\t// in\ntag_46:\n    /* \"#utility.yul\":1126:1246   */\ntag_45:\n    /* \"#utility.yul\":1306:1307   */\n  0x00\n    /* \"#utility.yul\":1295:1304   */\n  dup6\n    /* \"#utility.yul\":1291:1308   */\n  add\n    /* \"#utility.yul\":1285:1309   */\n  mload\n    /* \"#utility.yul\":1336:1354   */\n  0xffffffffffffffff\n    /* \"#utility.yul\":1328:1334   */\n  dup2\n    /* \"#utility.yul\":1325:1355   */\n  gt\n    /* \"#utility.yul\":1322:1439   */\n  iszero\n  tag_48\n  jumpi\n    /* \"#utility.yul\":1358:1437   */\n  tag_49\n  tag_50\n  jump\t// in\ntag_49:\n    /* \"#utility.yul\":1322:1439   */\ntag_48:\n    /* \"#utility.yul\":1463:1537   */\n  tag_51\n    /* \"#utility.yul\":1529:1536   */\n  dup8\n    /* \"#utility.yul\":1520:1526   */\n  dup3\n    /* \"#utility.yul\":1509:1518   */\n  dup9\n    /* \"#utility.yul\":1505:1527   */\n  add\n    /* \"#utility.yul\":1463:1537   */\n  tag_34\n  jump\t// in\ntag_51:\n    /* \"#utility.yul\":1453:1537   */\n  swap5\n  pop\n    /* \"#utility.yul\":1256:1547   */\n  pop\n    /* \"#utility.yul\":1586:1588   */\n  0x20\n    /* \"#utility.yul\":1612:1676   */\n  tag_52\n    /* \"#utility.yul\":1668:1675   */\n  dup8\n    /* \"#utility.yul\":1659:1665   */\n  dup3\n    /* \"#utility.yul\":1648:1657   */\n  dup9\n    /* \"#utility.yul\":1644:1666   */\n  add\n    /* \"#utility.yul\":1612:1676   */\n  tag_40\n  jump\t// in\ntag_52:\n    /* \"#utility.yul\":1602:1676   */\n  swap4\n  pop\n    /* \"#utility.yul\":1557:1686   */\n  pop\n    /* \"#utility.yul\":1746:1748   */\n  0x40\n    /* \"#utility.yul\":1735:1744   */\n  dup6\n    /* \"#utility.yul\":1731:1749   */\n  add\n    /* \"#utility.yul\":1725:1750   */\n  mload\n    /* \"#utility.yul\":1777:1795   */\n  0xffffffffffffffff\n    /* \"#utility.yul\":1769:1775   */\n  dup2\n    /* \"#utility.yul\":1766:1796   */\n  gt\n    /* \"#utility.yul\":1763:1880   */\n  iszero\n  tag_53\n  jumpi\n    /* \"#utility.yul\":1799:1878   */\n  tag_54\n  tag_50\n  jump\t// in\ntag_54:\n    /* \"#utility.yul\":1763:1880   */\ntag_53:\n    /* \"#utility.yul\":1904:1978   */\n  tag_55\n    /* \"#utility.yul\":1970:1977   */\n  dup8\n    /* \"#utility.yul\":1961:1967   */\n  dup3\n    /* \"#utility.yul\":1950:1959   */\n  dup9\n    /* \"#utility.yul\":1946:1968   */\n  add\n    /* \"#utility.yul\":1904:1978   */\n  tag_34\n  jump\t// in\ntag_55:\n    /* \"#utility.yul\":1894:1978   */\n  swap3\n  pop\n    /* \"#utility.yul\":1696:1988   */\n  pop\n    /* \"#utility.yul\":2048:2050   */\n  0x60\n    /* \"#utility.yul\":2037:2046   */\n  dup6\n    /* \"#utility.yul\":2033:2051   */\n  add\n    /* \"#utility.yul\":2027:2052   */\n  mload\n    /* \"#utility.yul\":2079:2097   */\n  0xffffffffffffffff\n    /* \"#utility.yul\":2071:2077   */\n  dup2\n    /* \"#utility.yul\":2068:2098   */\n  gt\n    /* \"#utility.yul\":2065:2182   */\n  iszero\n  tag_56\n  jumpi\n    /* \"#utility.yul\":2101:2180   */\n  tag_57\n  tag_50\n  jump\t// in\ntag_57:\n    /* \"#utility.yul\":2065:2182   */\ntag_56:\n    /* \"#utility.yul\":2206:2280   */\n  tag_58\n    /* \"#utility.yul\":2272:2279   */\n  dup8\n    /* \"#utility.yul\":2263:2269   */\n  dup3\n    /* \"#utility.yul\":2252:2261   */\n  dup9\n    /* \"#utility.yul\":2248:2270   */\n  add\n    /* \"#utility.yul\":2206:2280   */\n  tag_34\n  jump\t// in\ntag_58:\n    /* \"#utility.yul\":2196:2280   */\n  swap2\n  pop\n    /* \"#utility.yul\":1998:2290   */\n  pop\n    /* \"#utility.yul\":958:2297   */\n  swap3\n  swap6\n  swap2\n  swap5\n  pop\n  swap3\n  pop\n  jump\t// out\n    /* \"#utility.yul\":2303:2432   */\ntag_28:\n    /* \"#utility.yul\":2337:2343   */\n  0x00\n    /* \"#utility.yul\":2364:2384   */\n  tag_60\n  tag_61\n  jump\t// in\ntag_60:\n    /* \"#utility.yul\":2354:2384   */\n  swap1\n  pop\n    /* \"#utility.yul\":2393:2426   */\n  tag_62\n    /* \"#utility.yul\":2421:2425   */\n  dup3\n    /* \"#utility.yul\":2413:2419   */\n  dup3\n    /* \"#utility.yul\":2393:2426   */\n  tag_63\n  jump\t// in\ntag_62:\n    /* \"#utility.yul\":2303:2432   */\n  swap2\n  swap1\n  pop\n  jump\t// out\n    /* \"#utility.yul\":2438:2513   */\ntag_61:\n    /* \"#utility.yul\":2471:2477   */\n  0x00\n    /* \"#utility.yul\":2504:2506   */\n  0x40\n    /* \"#utility.yul\":2498:2507   */\n  mload\n    /* \"#utility.yul\":2488:2507   */\n  swap1\n  pop\n    /* \"#utility.yul\":2438:2513   */\n  swap1\n  jump\t// out\n    /* \"#utility.yul\":2519:2827   */\ntag_27:\n    /* \"#utility.yul\":2581:2585   */\n  0x00\n    /* \"#utility.yul\":2671:2689   */\n  0xffffffffffffffff\n    /* \"#utility.yul\":2663:2669   */\n  dup3\n    /* \"#utility.yul\":2660:2690   */\n  gt\n    /* \"#utility.yul\":2657:2713   */\n  iszero\n  tag_66\n  jumpi\n    /* \"#utility.yul\":2693:2711   */\n  tag_67\n  tag_68\n  jump\t// in\ntag_67:\n    /* \"#utility.yul\":2657:2713   */\ntag_66:\n    /* \"#utility.yul\":2731:2760   */\n  tag_69\n    /* \"#utility.yul\":2753:2759   */\n  dup3\n    /* \"#utility.yul\":2731:2760   */\n  tag_70\n  jump\t// in\ntag_69:\n    /* \"#utility.yul\":2723:2760   */\n  swap1\n  pop\n    /* \"#utility.yul\":2815:2819   */\n  0x20\n    /* \"#utility.yul\":2809:2813   */\n  dup2\n    /* \"#utility.yul\":2805:2820   */\n  add\n    /* \"#utility.yul\":2797:2820   */\n  swap1\n  pop\n    /* \"#utility.yul\":2519:2827   */\n  swap2\n  swap1\n  pop\n  jump\t// out\n    /* \"#utility.yul\":2833:2910   */\ntag_71:\n    /* \"#utility.yul\":2870:2877   */\n  0x00\n    /* \"#utility.yul\":2899:2904   */\n  dup2\n    /* \"#utility.yul\":2888:2904   */\n  swap1\n  pop\n    /* \"#utility.yul\":2833:2910   */\n  swap2\n  swap1\n  pop\n  jump\t// out\n    /* \"#utility.yul\":2916:3223   */\ntag_33:\n    /* \"#utility.yul\":2984:2985   */\n  0x00\n    /* \"#utility.yul\":2994:3107   */\ntag_74:\n    /* \"#utility.yul\":3008:3014   */\n  dup4\n    /* \"#utility.yul\":3005:3006   */\n  dup2\n    /* \"#utility.yul\":3002:3015   */\n  lt\n    /* \"#utility.yul\":2994:3107   */\n  iszero\n  tag_76\n  jumpi\n    /* \"#utility.yul\":3093:3094   */\n  dup1\n    /* \"#utility.yul\":3088:3091   */\n  dup3\n    /* \"#utility.yul\":3084:3095   */\n  add\n    /* \"#utility.yul\":3078:3096   */\n  mload\n    /* \"#utility.yul\":3074:3075   */\n  dup2\n    /* \"#utility.yul\":3069:3072   */\n  dup5\n    /* \"#utility.yul\":3065:3076   */\n  add\n    /* \"#utility.yul\":3058:3097   */\n  mstore\n    /* \"#utility.yul\":3030:3032   */\n  0x20\n    /* \"#utility.yul\":3027:3028   */\n  dup2\n    /* \"#utility.yul\":3023:3033   */\n  add\n    /* \"#utility.yul\":3018:3033   */\n  swap1\n  pop\n    /* \"#utility.yul\":2994:3107   */\n  jump(tag_74)\ntag_76:\n    /* \"#utility.yul\":3125:3131   */\n  dup4\n    /* \"#utility.yul\":3122:3123   */\n  dup2\n    /* \"#utility.yul\":3119:3132   */\n  gt\n    /* \"#utility.yul\":3116:3217   */\n  iszero\n  tag_77\n  jumpi\n    /* \"#utility.yul\":3205:3206   */\n  0x00\n    /* \"#utility.yul\":3196:3202   */\n  dup5\n    /* \"#utility.yul\":3191:3194   */\n  dup5\n    /* \"#utility.yul\":3187:3203   */\n  add\n    /* \"#utility.yul\":3180:3207   */\n  mstore\n    /* \"#utility.yul\":3116:3217   */\ntag_77:\n    /* \"#utility.yul\":2965:3223   */\n  pop\n    /* \"#utility.yul\":2916:3223   */\n  pop\n  pop\n  pop\n  jump\t// out\n    /* \"#utility.yul\":3229:3549   */\ntag_12:\n    /* \"#utility.yul\":3273:3279   */\n  0x00\n    /* \"#utility.yul\":3310:3311   */\n  0x02\n    /* \"#utility.yul\":3304:3308   */\n  dup3\n    /* \"#utility.yul\":3300:3312   */\n  div\n    /* \"#utility.yul\":3290:3312   */\n  swap1\n  pop\n    /* \"#utility.yul\":3357:3358   */\n  0x01\n    /* \"#utility.yul\":3351:3355   */\n  dup3\n    /* \"#utility.yul\":3347:3359   */\n  and\n    /* \"#utility.yul\":3378:3396   */\n  dup1\n    /* \"#utility.yul\":3368:3449   */\n  tag_79\n  jumpi\n    /* \"#utility.yul\":3434:3438   */\n  0x7f\n    /* \"#utility.yul\":3426:3432   */\n  dup3\n    /* \"#utility.yul\":3422:3439   */\n  and\n    /* \"#utility.yul\":3412:3439   */\n  swap2\n  pop\n    /* \"#utility.yul\":3368:3449   */\ntag_79:\n    /* \"#utility.yul\":3496:3498   */\n  0x20\n    /* \"#utility.yul\":3488:3494   */\n  dup3\n    /* \"#utility.yul\":3485:3499   */\n  lt\n    /* \"#utility.yul\":3465:3483   */\n  dup2\n    /* \"#utility.yul\":3462:3500   */\n  eq\n    /* \"#utility.yul\":3459:3543   */\n  iszero\n  tag_80\n  jumpi\n    /* \"#utility.yul\":3515:3533   */\n  tag_81\n  tag_82\n  jump\t// in\ntag_81:\n    /* \"#utility.yul\":3459:3543   */\ntag_80:\n    /* \"#utility.yul\":3280:3549   */\n  pop\n    /* \"#utility.yul\":3229:3549   */\n  swap2\n  swap1\n  pop\n  jump\t// out\n    /* \"#utility.yul\":3555:3836   */\ntag_63:\n    /* \"#utility.yul\":3638:3665   */\n  tag_84\n    /* \"#utility.yul\":3660:3664   */\n  dup3\n    /* \"#utility.yul\":3638:3665   */\n  tag_70\n  jump\t// in\ntag_84:\n    /* \"#utility.yul\":3630:3636   */\n  dup2\n    /* \"#utility.yul\":3626:3666   */\n  add\n    /* \"#utility.yul\":3768:3774   */\n  dup2\n    /* \"#utility.yul\":3756:3766   */\n  dup2\n    /* \"#utility.yul\":3753:3775   */\n  lt\n    /* \"#utility.yul\":3732:3750   */\n  0xffffffffffffffff\n    /* \"#utility.yul\":3720:3730   */\n  dup3\n    /* \"#utility.yul\":3717:3751   */\n  gt\n    /* \"#utility.yul\":3714:3776   */\n  or\n    /* \"#utility.yul\":3711:3799   */\n  iszero\n  tag_85\n  jumpi\n    /* \"#utility.yul\":3779:3797   */\n  tag_86\n  tag_68\n  jump\t// in\ntag_86:\n    /* \"#utility.yul\":3711:3799   */\ntag_85:\n    /* \"#utility.yul\":3819:3829   */\n  dup1\n    /* \"#utility.yul\":3815:3817   */\n  0x40\n    /* \"#utility.yul\":3808:3830   */\n  mstore\n    /* \"#utility.yul\":3598:3836   */\n  pop\n    /* \"#utility.yul\":3555:3836   */\n  pop\n  pop\n  jump\t// out\n    /* \"#utility.yul\":3842:4022   */\ntag_82:\n    /* \"#utility.yul\":3890:3967   */\n  0x4e487b7100000000000000000000000000000000000000000000000000000000\n    /* \"#utility.yul\":3887:3888   */\n  0x00\n    /* \"#utility.yul\":3880:3968   */\n  mstore\n    /* \"#utility.yul\":3987:3991   */\n  0x22\n    /* \"#utility.yul\":3984:3985   */\n  0x04\n    /* \"#utility.yul\":3977:3992   */\n  mstore\n    /* \"#utility.yul\":4011:4015   */\n  0x24\n    /* \"#utility.yul\":4008:4009   */\n  0x00\n    /* \"#utility.yul\":4001:4016   */\n  revert\n    /* \"#utility.yul\":4028:4208   */\ntag_68:\n    /* \"#utility.yul\":4076:4153   */\n  0x4e487b7100000000000000000000000000000000000000000000000000000000\n    /* \"#utility.yul\":4073:4074   */\n  0x00\n    /* \"#utility.yul\":4066:4154   */\n  mstore\n    /* \"#utility.yul\":4173:4177   */\n  0x41\n    /* \"#utility.yul\":4170:4171   */\n  0x04\n    /* \"#utility.yul\":4163:4178   */\n  mstore\n    /* \"#utility.yul\":4197:4201   */\n  0x24\n    /* \"#utility.yul\":4194:4195   */\n  0x00\n    /* \"#utility.yul\":4187:4202   */\n  revert\n    /* \"#utility.yul\":4214:4331   */\ntag_38:\n    /* \"#utility.yul\":4323:4324   */\n  0x00\n    /* \"#utility.yul\":4320:4321   */\n  dup1\n    /* \"#utility.yul\":4313:4325   */\n  revert\n    /* \"#utility.yul\":4337:4454   */\ntag_31:\n    /* \"#utility.yul\":4446:4447   */\n  0x00\n    /* \"#utility.yul\":4443:4444   */\n  dup1\n    /* \"#utility.yul\":4436:4448   */\n  revert\n    /* \"#utility.yul\":4460:4577   */\ntag_50:\n    /* \"#utility.yul\":4569:4570   */\n  0x00\n    /* \"#utility.yul\":4566:4567   */\n  dup1\n    /* \"#utility.yul\":4559:4571   */\n  revert\n    /* \"#utility.yul\":4583:4700   */\ntag_47:\n    /* \"#utility.yul\":4692:4693   */\n  0x00\n    /* \"#utility.yul\":4689:4690   */\n  dup1\n    /* \"#utility.yul\":4682:4694   */\n  revert\n    /* \"#utility.yul\":4706:4808   */\ntag_70:\n    /* \"#utility.yul\":4747:4753   */\n  0x00\n    /* \"#utility.yul\":4798:4800   */\n  0x1f\n    /* \"#utility.yul\":4794:4801   */\n  not\n    /* \"#utility.yul\":4789:4791   */\n  0x1f\n    /* \"#utility.yul\":4782:4787   */\n  dup4\n    /* \"#utility.yul\":4778:4792   */\n  add\n    /* \"#utility.yul\":4774:4802   */\n  and\n    /* \"#utility.yul\":4764:4802   */\n  swap1\n  pop\n    /* \"#utility.yul\":4706:4808   */\n  swap2\n  swap1\n  pop\n  jump\t// out\n    /* \"#utility.yul\":4814:4936   */\ntag_43:\n    /* \"#utility.yul\":4887:4911   */\n  tag_95\n    /* \"#utility.yul\":4905:4910   */\n  dup2\n    /* \"#utility.yul\":4887:4911   */\n  tag_71\n  jump\t// in\ntag_95:\n    /* \"#utility.yul\":4880:4885   */\n  dup2\n    /* \"#utility.yul\":4877:4912   */\n  eq\n    /* \"#utility.yul\":4867:4930   */\n  tag_96\n  jumpi\n    /* \"#utility.yul\":4926:4927   */\n  0x00\n    /* \"#utility.yul\":4923:4924   */\n  dup1\n    /* \"#utility.yul\":4916:4928   */\n  revert\n    /* \"#utility.yul\":4867:4930   */\ntag_96:\n    /* \"#utility.yul\":4814:4936   */\n  pop\n  jump\t// out\n    /* \"Campaign.sol\":543:1455  contract Campaign{\r... */\ntag_10:\n  dataSize(sub_0)\n  dup1\n  dataOffset(sub_0)\n  0x00\n  codecopy\n  0x00\n  return\nstop\n\nsub_0: assembly {\n        /* \"Campaign.sol\":543:1455  contract Campaign{\r... */\n      mstore(0x40, 0x80)\n      jumpi(tag_1, lt(calldatasize, 0x04))\n      shr(0xe0, calldataload(0x00))\n      dup1\n      0x8da5cb5b\n      gt\n      tag_9\n      jumpi\n      dup1\n      0x8da5cb5b\n      eq\n      tag_5\n      jumpi\n      dup1\n      0x9632e720\n      eq\n      tag_6\n      jumpi\n      dup1\n      0xed88c68e\n      eq\n      tag_7\n      jumpi\n      dup1\n      0xf3ccaac0\n      eq\n      tag_8\n      jumpi\n      jump(tag_1)\n    tag_9:\n      dup1\n      0x46c922d1\n      eq\n      tag_2\n      jumpi\n      dup1\n      0x48b9ef40\n      eq\n      tag_3\n      jumpi\n      dup1\n      0x4a79d50c\n      eq\n      tag_4\n      jumpi\n    tag_1:\n      0x00\n      dup1\n      revert\n        /* \"Campaign.sol\":652:671  string public story */\n    tag_2:\n      callvalue\n      dup1\n      iszero\n      tag_10\n      jumpi\n      0x00\n      dup1\n      revert\n    tag_10:\n      pop\n      tag_11\n      tag_12\n      jump\t// in\n    tag_11:\n      mload(0x40)\n      tag_13\n      swap2\n      swap1\n      tag_14\n      jump\t// in\n    tag_13:\n      mload(0x40)\n      dup1\n      swap2\n      sub\n      swap1\n      return\n        /* \"Campaign.sol\":593:619  uint public requiredAmount */\n    tag_3:\n      callvalue\n      dup1\n      iszero\n      tag_15\n      jumpi\n      0x00\n      dup1\n      revert\n    tag_15:\n      pop\n      tag_16\n      tag_17\n      jump\t// in\n    tag_16:\n      mload(0x40)\n      tag_18\n      swap2\n      swap1\n      tag_19\n      jump\t// in\n    tag_18:\n      mload(0x40)\n      dup1\n      swap2\n      sub\n      swap1\n      return\n        /* \"Campaign.sol\":567:586  string public title */\n    tag_4:\n      callvalue\n      dup1\n      iszero\n      tag_20\n      jumpi\n      0x00\n      dup1\n      revert\n    tag_20:\n      pop\n      tag_21\n      tag_22\n      jump\t// in\n    tag_21:\n      mload(0x40)\n      tag_23\n      swap2\n      swap1\n      tag_14\n      jump\t// in\n    tag_23:\n      mload(0x40)\n      dup1\n      swap2\n      sub\n      swap1\n      return\n        /* \"Campaign.sol\":678:706  address payable public owner */\n    tag_5:\n      callvalue\n      dup1\n      iszero\n      tag_24\n      jumpi\n      0x00\n      dup1\n      revert\n    tag_24:\n      pop\n      tag_25\n      tag_26\n      jump\t// in\n    tag_25:\n      mload(0x40)\n      tag_27\n      swap2\n      swap1\n      tag_28\n      jump\t// in\n    tag_27:\n      mload(0x40)\n      dup1\n      swap2\n      sub\n      swap1\n      return\n        /* \"Campaign.sol\":713:739  uint public receivedAmount */\n    tag_6:\n      callvalue\n      dup1\n      iszero\n      tag_29\n      jumpi\n      0x00\n      dup1\n      revert\n    tag_29:\n      pop\n      tag_30\n      tag_31\n      jump\t// in\n    tag_30:\n      mload(0x40)\n      tag_32\n      swap2\n      swap1\n      tag_19\n      jump\t// in\n    tag_32:\n      mload(0x40)\n      dup1\n      swap2\n      sub\n      swap1\n      return\n        /* \"Campaign.sol\":1187:1446  function donate() public payable{\r... */\n    tag_7:\n      tag_33\n      tag_34\n      jump\t// in\n    tag_33:\n      stop\n        /* \"Campaign.sol\":626:645  string public image */\n    tag_8:\n      callvalue\n      dup1\n      iszero\n      tag_35\n      jumpi\n      0x00\n      dup1\n      revert\n    tag_35:\n      pop\n      tag_36\n      tag_37\n      jump\t// in\n    tag_36:\n      mload(0x40)\n      tag_38\n      swap2\n      swap1\n      tag_14\n      jump\t// in\n    tag_38:\n      mload(0x40)\n      dup1\n      swap2\n      sub\n      swap1\n      return\n        /* \"Campaign.sol\":652:671  string public story */\n    tag_12:\n      0x03\n      dup1\n      sload\n      tag_39\n      swap1\n      tag_40\n      jump\t// in\n    tag_39:\n      dup1\n      0x1f\n      add\n      0x20\n      dup1\n      swap2\n      div\n      mul\n      0x20\n      add\n      mload(0x40)\n      swap1\n      dup2\n      add\n      0x40\n      mstore\n      dup1\n      swap3\n      swap2\n      swap1\n      dup2\n      dup2\n      mstore\n      0x20\n      add\n      dup3\n      dup1\n      sload\n      tag_41\n      swap1\n      tag_40\n      jump\t// in\n    tag_41:\n      dup1\n      iszero\n      tag_42\n      jumpi\n      dup1\n      0x1f\n      lt\n      tag_43\n      jumpi\n      0x0100\n      dup1\n      dup4\n      sload\n      div\n      mul\n      dup4\n      mstore\n      swap2\n      0x20\n      add\n      swap2\n      jump(tag_42)\n    tag_43:\n      dup3\n      add\n      swap2\n      swap1\n      0x00\n      mstore\n      keccak256(0x00, 0x20)\n      swap1\n    tag_44:\n      dup2\n      sload\n      dup2\n      mstore\n      swap1\n      0x01\n      add\n      swap1\n      0x20\n      add\n      dup1\n      dup4\n      gt\n      tag_44\n      jumpi\n      dup3\n      swap1\n      sub\n      0x1f\n      and\n      dup3\n      add\n      swap2\n    tag_42:\n      pop\n      pop\n      pop\n      pop\n      pop\n      dup2\n      jump\t// out\n        /* \"Campaign.sol\":593:619  uint public requiredAmount */\n    tag_17:\n      sload(0x01)\n      dup2\n      jump\t// out\n        /* \"Campaign.sol\":567:586  string public title */\n    tag_22:\n      0x00\n      dup1\n      sload\n      tag_45\n      swap1\n      tag_40\n      jump\t// in\n    tag_45:\n      dup1\n      0x1f\n      add\n      0x20\n      dup1\n      swap2\n      div\n      mul\n      0x20\n      add\n      mload(0x40)\n      swap1\n      dup2\n      add\n      0x40\n      mstore\n      dup1\n      swap3\n      swap2\n      swap1\n      dup2\n      dup2\n      mstore\n      0x20\n      add\n      dup3\n      dup1\n      sload\n      tag_46\n      swap1\n      tag_40\n      jump\t// in\n    tag_46:\n      dup1\n      iszero\n      tag_47\n      jumpi\n      dup1\n      0x1f\n      lt\n      tag_48\n      jumpi\n      0x0100\n      dup1\n      dup4\n      sload\n      div\n      mul\n      dup4\n      mstore\n      swap2\n      0x20\n      add\n      swap2\n      jump(tag_47)\n    tag_48:\n      dup3\n      add\n      swap2\n      swap1\n      0x00\n      mstore\n      keccak256(0x00, 0x20)\n      swap1\n    tag_49:\n      dup2\n      sload\n      dup2\n      mstore\n      swap1\n      0x01\n      add\n      swap1\n      0x20\n      add\n      dup1\n      dup4\n      gt\n      tag_49\n      jumpi\n      dup3\n      swap1\n      sub\n      0x1f\n      and\n      dup3\n      add\n      swap2\n    tag_47:\n      pop\n      pop\n      pop\n      pop\n      pop\n      dup2\n      jump\t// out\n        /* \"Campaign.sol\":678:706  address payable public owner */\n    tag_26:\n      0x04\n      0x00\n      swap1\n      sload\n      swap1\n      0x0100\n      exp\n      swap1\n      div\n      0xffffffffffffffffffffffffffffffffffffffff\n      and\n      dup2\n      jump\t// out\n        /* \"Campaign.sol\":713:739  uint public receivedAmount */\n    tag_31:\n      sload(0x05)\n      dup2\n      jump\t// out\n        /* \"Campaign.sol\":1187:1446  function donate() public payable{\r... */\n    tag_34:\n        /* \"Campaign.sol\":1255:1269  receivedAmount */\n      sload(0x05)\n        /* \"Campaign.sol\":1238:1252  requiredAmount */\n      sload(0x01)\n        /* \"Campaign.sol\":1238:1269  requiredAmount > receivedAmount */\n      gt\n        /* \"Campaign.sol\":1230:1300  require(requiredAmount > receivedAmount, \"required amount fullfilled\") */\n      tag_51\n      jumpi\n      mload(0x40)\n      0x08c379a000000000000000000000000000000000000000000000000000000000\n      dup2\n      mstore\n      0x04\n      add\n      tag_52\n      swap1\n      tag_53\n      jump\t// in\n    tag_52:\n      mload(0x40)\n      dup1\n      swap2\n      sub\n      swap1\n      revert\n    tag_51:\n        /* \"Campaign.sol\":1311:1316  owner */\n      0x04\n      0x00\n      swap1\n      sload\n      swap1\n      0x0100\n      exp\n      swap1\n      div\n      0xffffffffffffffffffffffffffffffffffffffff\n      and\n        /* \"Campaign.sol\":1311:1325  owner.transfer */\n      0xffffffffffffffffffffffffffffffffffffffff\n      and\n        /* \"Campaign.sol\":1311:1336  owner.transfer(msg.value) */\n      0x08fc\n        /* \"Campaign.sol\":1326:1335  msg.value */\n      callvalue\n        /* \"Campaign.sol\":1311:1336  owner.transfer(msg.value) */\n      swap1\n      dup2\n      iszero\n      mul\n      swap1\n      mload(0x40)\n      0x00\n      mload(0x40)\n      dup1\n      dup4\n      sub\n      dup2\n      dup6\n      dup9\n      dup9\n      call\n      swap4\n      pop\n      pop\n      pop\n      pop\n      iszero\n      dup1\n      iszero\n      tag_55\n      jumpi\n      returndatasize\n      0x00\n      dup1\n      returndatacopy\n      revert(0x00, returndatasize)\n    tag_55:\n      pop\n        /* \"Campaign.sol\":1365:1374  msg.value */\n      callvalue\n        /* \"Campaign.sol\":1347:1361  receivedAmount */\n      0x05\n      0x00\n        /* \"Campaign.sol\":1347:1374  receivedAmount += msg.value */\n      dup3\n      dup3\n      sload\n      tag_56\n      swap2\n      swap1\n      tag_57\n      jump\t// in\n    tag_56:\n      swap3\n      pop\n      pop\n      dup2\n      swap1\n      sstore\n      pop\n        /* \"Campaign.sol\":1422:1437  block.timestamp */\n      timestamp\n        /* \"Campaign.sol\":1411:1420  msg.value */\n      callvalue\n        /* \"Campaign.sol\":1399:1409  msg.sender */\n      caller\n        /* \"Campaign.sol\":1390:1438  donated (msg.sender, msg.value, block.timestamp) */\n      0xffffffffffffffffffffffffffffffffffffffff\n      and\n      0xe6add99d06d9ad7fc456e746aa162eed6211c5002ef2dacdd67b8d2016822fba\n      mload(0x40)\n      mload(0x40)\n      dup1\n      swap2\n      sub\n      swap1\n      log4\n        /* \"Campaign.sol\":1187:1446  function donate() public payable{\r... */\n      jump\t// out\n        /* \"Campaign.sol\":626:645  string public image */\n    tag_37:\n      0x02\n      dup1\n      sload\n      tag_58\n      swap1\n      tag_40\n      jump\t// in\n    tag_58:\n      dup1\n      0x1f\n      add\n      0x20\n      dup1\n      swap2\n      div\n      mul\n      0x20\n      add\n      mload(0x40)\n      swap1\n      dup2\n      add\n      0x40\n      mstore\n      dup1\n      swap3\n      swap2\n      swap1\n      dup2\n      dup2\n      mstore\n      0x20\n      add\n      dup3\n      dup1\n      sload\n      tag_59\n      swap1\n      tag_40\n      jump\t// in\n    tag_59:\n      dup1\n      iszero\n      tag_60\n      jumpi\n      dup1\n      0x1f\n      lt\n      tag_61\n      jumpi\n      0x0100\n      dup1\n      dup4\n      sload\n      div\n      mul\n      dup4\n      mstore\n      swap2\n      0x20\n      add\n      swap2\n      jump(tag_60)\n    tag_61:\n      dup3\n      add\n      swap2\n      swap1\n      0x00\n      mstore\n      keccak256(0x00, 0x20)\n      swap1\n    tag_62:\n      dup2\n      sload\n      dup2\n      mstore\n      swap1\n      0x01\n      add\n      swap1\n      0x20\n      add\n      dup1\n      dup4\n      gt\n      tag_62\n      jumpi\n      dup3\n      swap1\n      sub\n      0x1f\n      and\n      dup3\n      add\n      swap2\n    tag_60:\n      pop\n      pop\n      pop\n      pop\n      pop\n      dup2\n      jump\t// out\n        /* \"#utility.yul\":7:149   */\n    tag_64:\n        /* \"#utility.yul\":110:142   */\n      tag_66\n        /* \"#utility.yul\":136:141   */\n      dup2\n        /* \"#utility.yul\":110:142   */\n      tag_67\n      jump\t// in\n    tag_66:\n        /* \"#utility.yul\":105:108   */\n      dup3\n        /* \"#utility.yul\":98:143   */\n      mstore\n        /* \"#utility.yul\":7:149   */\n      pop\n      pop\n      jump\t// out\n        /* \"#utility.yul\":155:519   */\n    tag_68:\n        /* \"#utility.yul\":243:246   */\n      0x00\n        /* \"#utility.yul\":271:310   */\n      tag_70\n        /* \"#utility.yul\":304:309   */\n      dup3\n        /* \"#utility.yul\":271:310   */\n      tag_71\n      jump\t// in\n    tag_70:\n        /* \"#utility.yul\":326:397   */\n      tag_72\n        /* \"#utility.yul\":390:396   */\n      dup2\n        /* \"#utility.yul\":385:388   */\n      dup6\n        /* \"#utility.yul\":326:397   */\n      tag_73\n      jump\t// in\n    tag_72:\n        /* \"#utility.yul\":319:397   */\n      swap4\n      pop\n        /* \"#utility.yul\":406:458   */\n      tag_74\n        /* \"#utility.yul\":451:457   */\n      dup2\n        /* \"#utility.yul\":446:449   */\n      dup6\n        /* \"#utility.yul\":439:443   */\n      0x20\n        /* \"#utility.yul\":432:437   */\n      dup7\n        /* \"#utility.yul\":428:444   */\n      add\n        /* \"#utility.yul\":406:458   */\n      tag_75\n      jump\t// in\n    tag_74:\n        /* \"#utility.yul\":483:512   */\n      tag_76\n        /* \"#utility.yul\":505:511   */\n      dup2\n        /* \"#utility.yul\":483:512   */\n      tag_77\n      jump\t// in\n    tag_76:\n        /* \"#utility.yul\":478:481   */\n      dup5\n        /* \"#utility.yul\":474:513   */\n      add\n        /* \"#utility.yul\":467:513   */\n      swap2\n      pop\n        /* \"#utility.yul\":247:519   */\n      pop\n        /* \"#utility.yul\":155:519   */\n      swap3\n      swap2\n      pop\n      pop\n      jump\t// out\n        /* \"#utility.yul\":525:891   */\n    tag_78:\n        /* \"#utility.yul\":667:670   */\n      0x00\n        /* \"#utility.yul\":688:755   */\n      tag_80\n        /* \"#utility.yul\":752:754   */\n      0x1a\n        /* \"#utility.yul\":747:750   */\n      dup4\n        /* \"#utility.yul\":688:755   */\n      tag_73\n      jump\t// in\n    tag_80:\n        /* \"#utility.yul\":681:755   */\n      swap2\n      pop\n        /* \"#utility.yul\":764:857   */\n      tag_81\n        /* \"#utility.yul\":853:856   */\n      dup3\n        /* \"#utility.yul\":764:857   */\n      tag_82\n      jump\t// in\n    tag_81:\n        /* \"#utility.yul\":882:884   */\n      0x20\n        /* \"#utility.yul\":877:880   */\n      dup3\n        /* \"#utility.yul\":873:885   */\n      add\n        /* \"#utility.yul\":866:885   */\n      swap1\n      pop\n        /* \"#utility.yul\":525:891   */\n      swap2\n      swap1\n      pop\n      jump\t// out\n        /* \"#utility.yul\":897:1015   */\n    tag_83:\n        /* \"#utility.yul\":984:1008   */\n      tag_85\n        /* \"#utility.yul\":1002:1007   */\n      dup2\n        /* \"#utility.yul\":984:1008   */\n      tag_86\n      jump\t// in\n    tag_85:\n        /* \"#utility.yul\":979:982   */\n      dup3\n        /* \"#utility.yul\":972:1009   */\n      mstore\n        /* \"#utility.yul\":897:1015   */\n      pop\n      pop\n      jump\t// out\n        /* \"#utility.yul\":1021:1275   */\n    tag_28:\n        /* \"#utility.yul\":1130:1134   */\n      0x00\n        /* \"#utility.yul\":1168:1170   */\n      0x20\n        /* \"#utility.yul\":1157:1166   */\n      dup3\n        /* \"#utility.yul\":1153:1171   */\n      add\n        /* \"#utility.yul\":1145:1171   */\n      swap1\n      pop\n        /* \"#utility.yul\":1181:1268   */\n      tag_88\n        /* \"#utility.yul\":1265:1266   */\n      0x00\n        /* \"#utility.yul\":1254:1263   */\n      dup4\n        /* \"#utility.yul\":1250:1267   */\n      add\n        /* \"#utility.yul\":1241:1247   */\n      dup5\n        /* \"#utility.yul\":1181:1268   */\n      tag_64\n      jump\t// in\n    tag_88:\n        /* \"#utility.yul\":1021:1275   */\n      swap3\n      swap2\n      pop\n      pop\n      jump\t// out\n        /* \"#utility.yul\":1281:1594   */\n    tag_14:\n        /* \"#utility.yul\":1394:1398   */\n      0x00\n        /* \"#utility.yul\":1432:1434   */\n      0x20\n        /* \"#utility.yul\":1421:1430   */\n      dup3\n        /* \"#utility.yul\":1417:1435   */\n      add\n        /* \"#utility.yul\":1409:1435   */\n      swap1\n      pop\n        /* \"#utility.yul\":1481:1490   */\n      dup2\n        /* \"#utility.yul\":1475:1479   */\n      dup2\n        /* \"#utility.yul\":1471:1491   */\n      sub\n        /* \"#utility.yul\":1467:1468   */\n      0x00\n        /* \"#utility.yul\":1456:1465   */\n      dup4\n        /* \"#utility.yul\":1452:1469   */\n      add\n        /* \"#utility.yul\":1445:1492   */\n      mstore\n        /* \"#utility.yul\":1509:1587   */\n      tag_90\n        /* \"#utility.yul\":1582:1586   */\n      dup2\n        /* \"#utility.yul\":1573:1579   */\n      dup5\n        /* \"#utility.yul\":1509:1587   */\n      tag_68\n      jump\t// in\n    tag_90:\n        /* \"#utility.yul\":1501:1587   */\n      swap1\n      pop\n        /* \"#utility.yul\":1281:1594   */\n      swap3\n      swap2\n      pop\n      pop\n      jump\t// out\n        /* \"#utility.yul\":1600:2019   */\n    tag_53:\n        /* \"#utility.yul\":1766:1770   */\n      0x00\n        /* \"#utility.yul\":1804:1806   */\n      0x20\n        /* \"#utility.yul\":1793:1802   */\n      dup3\n        /* \"#utility.yul\":1789:1807   */\n      add\n        /* \"#utility.yul\":1781:1807   */\n      swap1\n      pop\n        /* \"#utility.yul\":1853:1862   */\n      dup2\n        /* \"#utility.yul\":1847:1851   */\n      dup2\n        /* \"#utility.yul\":1843:1863   */\n      sub\n        /* \"#utility.yul\":1839:1840   */\n      0x00\n        /* \"#utility.yul\":1828:1837   */\n      dup4\n        /* \"#utility.yul\":1824:1841   */\n      add\n        /* \"#utility.yul\":1817:1864   */\n      mstore\n        /* \"#utility.yul\":1881:2012   */\n      tag_92\n        /* \"#utility.yul\":2007:2011   */\n      dup2\n        /* \"#utility.yul\":1881:2012   */\n      tag_78\n      jump\t// in\n    tag_92:\n        /* \"#utility.yul\":1873:2012   */\n      swap1\n      pop\n        /* \"#utility.yul\":1600:2019   */\n      swap2\n      swap1\n      pop\n      jump\t// out\n        /* \"#utility.yul\":2025:2247   */\n    tag_19:\n        /* \"#utility.yul\":2118:2122   */\n      0x00\n        /* \"#utility.yul\":2156:2158   */\n      0x20\n        /* \"#utility.yul\":2145:2154   */\n      dup3\n        /* \"#utility.yul\":2141:2159   */\n      add\n        /* \"#utility.yul\":2133:2159   */\n      swap1\n      pop\n        /* \"#utility.yul\":2169:2240   */\n      tag_94\n        /* \"#utility.yul\":2237:2238   */\n      0x00\n        /* \"#utility.yul\":2226:2235   */\n      dup4\n        /* \"#utility.yul\":2222:2239   */\n      add\n        /* \"#utility.yul\":2213:2219   */\n      dup5\n        /* \"#utility.yul\":2169:2240   */\n      tag_83\n      jump\t// in\n    tag_94:\n        /* \"#utility.yul\":2025:2247   */\n      swap3\n      swap2\n      pop\n      pop\n      jump\t// out\n        /* \"#utility.yul\":2253:2352   */\n    tag_71:\n        /* \"#utility.yul\":2305:2311   */\n      0x00\n        /* \"#utility.yul\":2339:2344   */\n      dup2\n        /* \"#utility.yul\":2333:2345   */\n      mload\n        /* \"#utility.yul\":2323:2345   */\n      swap1\n      pop\n        /* \"#utility.yul\":2253:2352   */\n      swap2\n      swap1\n      pop\n      jump\t// out\n        /* \"#utility.yul\":2358:2527   */\n    tag_73:\n        /* \"#utility.yul\":2442:2453   */\n      0x00\n        /* \"#utility.yul\":2476:2482   */\n      dup3\n        /* \"#utility.yul\":2471:2474   */\n      dup3\n        /* \"#utility.yul\":2464:2483   */\n      mstore\n        /* \"#utility.yul\":2516:2520   */\n      0x20\n        /* \"#utility.yul\":2511:2514   */\n      dup3\n        /* \"#utility.yul\":2507:2521   */\n      add\n        /* \"#utility.yul\":2492:2521   */\n      swap1\n      pop\n        /* \"#utility.yul\":2358:2527   */\n      swap3\n      swap2\n      pop\n      pop\n      jump\t// out\n        /* \"#utility.yul\":2533:2838   */\n    tag_57:\n        /* \"#utility.yul\":2573:2576   */\n      0x00\n        /* \"#utility.yul\":2592:2612   */\n      tag_98\n        /* \"#utility.yul\":2610:2611   */\n      dup3\n        /* \"#utility.yul\":2592:2612   */\n      tag_86\n      jump\t// in\n    tag_98:\n        /* \"#utility.yul\":2587:2612   */\n      swap2\n      pop\n        /* \"#utility.yul\":2626:2646   */\n      tag_99\n        /* \"#utility.yul\":2644:2645   */\n      dup4\n        /* \"#utility.yul\":2626:2646   */\n      tag_86\n      jump\t// in\n    tag_99:\n        /* \"#utility.yul\":2621:2646   */\n      swap3\n      pop\n        /* \"#utility.yul\":2780:2781   */\n      dup3\n        /* \"#utility.yul\":2712:2778   */\n      0xffffffffffffffffffffffffffffffffffffffffffffffffffffffffffffffff\n        /* \"#utility.yul\":2708:2782   */\n      sub\n        /* \"#utility.yul\":2705:2706   */\n      dup3\n        /* \"#utility.yul\":2702:2783   */\n      gt\n        /* \"#utility.yul\":2699:2806   */\n      iszero\n      tag_100\n      jumpi\n        /* \"#utility.yul\":2786:2804   */\n      tag_101\n      tag_102\n      jump\t// in\n    tag_101:\n        /* \"#utility.yul\":2699:2806   */\n    tag_100:\n        /* \"#utility.yul\":2830:2831   */\n      dup3\n        /* \"#utility.yul\":2827:2828   */\n      dup3\n        /* \"#utility.yul\":2823:2832   */\n      add\n        /* \"#utility.yul\":2816:2832   */\n      swap1\n      pop\n        /* \"#utility.yul\":2533:2838   */\n      swap3\n      swap2\n      pop\n      pop\n      jump\t// out\n        /* \"#utility.yul\":2844:2948   */\n    tag_67:\n        /* \"#utility.yul\":2889:2896   */\n      0x00\n        /* \"#utility.yul\":2918:2942   */\n      tag_104\n        /* \"#utility.yul\":2936:2941   */\n      dup3\n        /* \"#utility.yul\":2918:2942   */\n      tag_105\n      jump\t// in\n    tag_104:\n        /* \"#utility.yul\":2907:2942   */\n      swap1\n      pop\n        /* \"#utility.yul\":2844:2948   */\n      swap2\n      swap1\n      pop\n      jump\t// out\n        /* \"#utility.yul\":2954:3080   */\n    tag_105:\n        /* \"#utility.yul\":2991:2998   */\n      0x00\n        /* \"#utility.yul\":3031:3073   */\n      0xffffffffffffffffffffffffffffffffffffffff\n        /* \"#utility.yul\":3024:3029   */\n      dup3\n        /* \"#utility.yul\":3020:3074   */\n      and\n        /* \"#utility.yul\":3009:3074   */\n      swap1\n      pop\n        /* \"#utility.yul\":2954:3080   */\n      swap2\n      swap1\n      pop\n      jump\t// out\n        /* \"#utility.yul\":3086:3163   */\n    tag_86:\n        /* \"#utility.yul\":3123:3130   */\n      0x00\n        /* \"#utility.yul\":3152:3157   */\n      dup2\n        /* \"#utility.yul\":3141:3157   */\n      swap1\n      pop\n        /* \"#utility.yul\":3086:3163   */\n      swap2\n      swap1\n      pop\n      jump\t// out\n        /* \"#utility.yul\":3169:3476   */\n    tag_75:\n        /* \"#utility.yul\":3237:3238   */\n      0x00\n        /* \"#utility.yul\":3247:3360   */\n    tag_109:\n        /* \"#utility.yul\":3261:3267   */\n      dup4\n        /* \"#utility.yul\":3258:3259   */\n      dup2\n        /* \"#utility.yul\":3255:3268   */\n      lt\n        /* \"#utility.yul\":3247:3360   */\n      iszero\n      tag_111\n      jumpi\n        /* \"#utility.yul\":3346:3347   */\n      dup1\n        /* \"#utility.yul\":3341:3344   */\n      dup3\n        /* \"#utility.yul\":3337:3348   */\n      add\n        /* \"#utility.yul\":3331:3349   */\n      mload\n        /* \"#utility.yul\":3327:3328   */\n      dup2\n        /* \"#utility.yul\":3322:3325   */\n      dup5\n        /* \"#utility.yul\":3318:3329   */\n      add\n        /* \"#utility.yul\":3311:3350   */\n      mstore\n        /* \"#utility.yul\":3283:3285   */\n      0x20\n        /* \"#utility.yul\":3280:3281   */\n      dup2\n        /* \"#utility.yul\":3276:3286   */\n      add\n        /* \"#utility.yul\":3271:3286   */\n      swap1\n      pop\n        /* \"#utility.yul\":3247:3360   */\n      jump(tag_109)\n    tag_111:\n        /* \"#utility.yul\":3378:3384   */\n      dup4\n        /* \"#utility.yul\":3375:3376   */\n      dup2\n        /* \"#utility.yul\":3372:3385   */\n      gt\n        /* \"#utility.yul\":3369:3470   */\n      iszero\n      tag_112\n      jumpi\n        /* \"#utility.yul\":3458:3459   */\n      0x00\n        /* \"#utility.yul\":3449:3455   */\n      dup5\n        /* \"#utility.yul\":3444:3447   */\n      dup5\n        /* \"#utility.yul\":3440:3456   */\n      add\n        /* \"#utility.yul\":3433:3460   */\n      mstore\n        /* \"#utility.yul\":3369:3470   */\n    tag_112:\n        /* \"#utility.yul\":3218:3476   */\n      pop\n        /* \"#utility.yul\":3169:3476   */\n      pop\n      pop\n      pop\n      jump\t// out\n        /* \"#utility.yul\":3482:3802   */\n    tag_40:\n        /* \"#utility.yul\":3526:3532   */\n      0x00\n        /* \"#utility.yul\":3563:3564   */\n      0x02\n        /* \"#utility.yul\":3557:3561   */\n      dup3\n        /* \"#utility.yul\":3553:3565   */\n      div\n        /* \"#utility.yul\":3543:3565   */\n      swap1\n      pop\n        /* \"#utility.yul\":3610:3611   */\n      0x01\n        /* \"#utility.yul\":3604:3608   */\n      dup3\n        /* \"#utility.yul\":3600:3612   */\n      and\n        /* \"#utility.yul\":3631:3649   */\n      dup1\n        /* \"#utility.yul\":3621:3702   */\n      tag_114\n      jumpi\n        /* \"#utility.yul\":3687:3691   */\n      0x7f\n        /* \"#utility.yul\":3679:3685   */\n      dup3\n        /* \"#utility.yul\":3675:3692   */\n      and\n        /* \"#utility.yul\":3665:3692   */\n      swap2\n      pop\n        /* \"#utility.yul\":3621:3702   */\n    tag_114:\n        /* \"#utility.yul\":3749:3751   */\n      0x20\n        /* \"#utility.yul\":3741:3747   */\n      dup3\n        /* \"#utility.yul\":3738:3752   */\n      lt\n        /* \"#utility.yul\":3718:3736   */\n      dup2\n        /* \"#utility.yul\":3715:3753   */\n      eq\n        /* \"#utility.yul\":3712:3796   */\n      iszero\n      tag_115\n      jumpi\n        /* \"#utility.yul\":3768:3786   */\n      tag_116\n      tag_117\n      jump\t// in\n    tag_116:\n        /* \"#utility.yul\":3712:3796   */\n    tag_115:\n        /* \"#utility.yul\":3533:3802   */\n      pop\n        /* \"#utility.yul\":3482:3802   */\n      swap2\n      swap1\n      pop\n      jump\t// out\n        /* \"#utility.yul\":3808:3988   */\n    tag_102:\n        /* \"#utility.yul\":3856:3933   */\n      0x4e487b7100000000000000000000000000000000000000000000000000000000\n        /* \"#utility.yul\":3853:3854   */\n      0x00\n        /* \"#utility.yul\":3846:3934   */\n      mstore\n        /* \"#utility.yul\":3953:3957   */\n      0x11\n        /* \"#utility.yul\":3950:3951   */\n      0x04\n        /* \"#utility.yul\":3943:3958   */\n      mstore\n        /* \"#utility.yul\":3977:3981   */\n      0x24\n        /* \"#utility.yul\":3974:3975   */\n      0x00\n        /* \"#utility.yul\":3967:3982   */\n      revert\n        /* \"#utility.yul\":3994:4174   */\n    tag_117:\n        /* \"#utility.yul\":4042:4119   */\n      0x4e487b7100000000000000000000000000000000000000000000000000000000\n        /* \"#utility.yul\":4039:4040   */\n      0x00\n        /* \"#utility.yul\":4032:4120   */\n      mstore\n        /* \"#utility.yul\":4139:4143   */\n      0x22\n        /* \"#utility.yul\":4136:4137   */\n      0x04\n        /* \"#utility.yul\":4129:4144   */\n      mstore\n        /* \"#utility.yul\":4163:4167   */\n      0x24\n        /* \"#utility.yul\":4160:4161   */\n      0x00\n        /* \"#utility.yul\":4153:4168   */\n      revert\n        /* \"#utility.yul\":4180:4282   */\n    tag_77:\n        /* \"#utility.yul\":4221:4227   */\n      0x00\n        /* \"#utility.yul\":4272:4274   */\n      0x1f\n        /* \"#utility.yul\":4268:4275   */\n      not\n        /* \"#utility.yul\":4263:4265   */\n      0x1f\n        /* \"#utility.yul\":4256:4261   */\n      dup4\n        /* \"#utility.yul\":4252:4266   */\n      add\n        /* \"#utility.yul\":4248:4276   */\n      and\n        /* \"#utility.yul\":4238:4276   */\n      swap1\n      pop\n        /* \"#utility.yul\":4180:4282   */\n      swap2\n      swap1\n      pop\n      jump\t// out\n        /* \"#utility.yul\":4288:4464   */\n    tag_82:\n        /* \"#utility.yul\":4428:4456   */\n      0x726571756972656420616d6f756e742066756c6c66696c6c6564000000000000\n        /* \"#utility.yul\":4424:4425   */\n      0x00\n        /* \"#utility.yul\":4416:4422   */\n      dup3\n        /* \"#utility.yul\":4412:4426   */\n      add\n        /* \"#utility.yul\":4405:4457   */\n      mstore\n        /* \"#utility.yul\":4288:4464   */\n      pop\n      jump\t// out\n\n    auxdata: 0xa26469706673582212209a7855670d7c7dbebe520f500907abed227faeee6f1e831674403aa5d8f25cd964736f6c63430008070033\n}\n",
				"bytecode": {
					"linkReferences": {},
					"object": "60806040523480156200001157600080fd5b5060405162000bdf38038062000bdf833981810160405281019062000037919062000219565b83600090805190602001906200004f929190620000d4565b508260018190555081600290805190602001906200006f929190620000d4565b50806003908051906020019062000088929190620000d4565b5033600460006101000a81548173ffffffffffffffffffffffffffffffffffffffff021916908373ffffffffffffffffffffffffffffffffffffffff1602179055505050505062000490565b828054620000e29062000387565b90600052602060002090601f01602090048101928262000106576000855562000152565b82601f106200012157805160ff191683800117855562000152565b8280016001018555821562000152579182015b828111156200015157825182559160200191906001019062000134565b5b50905062000161919062000165565b5090565b5b808211156200018057600081600090555060010162000166565b5090565b60006200019b620001958462000311565b620002e8565b905082815260208101848484011115620001ba57620001b962000456565b5b620001c784828562000351565b509392505050565b600082601f830112620001e757620001e662000451565b5b8151620001f984826020860162000184565b91505092915050565b600081519050620002138162000476565b92915050565b6000806000806080858703121562000236576200023562000460565b5b600085015167ffffffffffffffff8111156200025757620002566200045b565b5b6200026587828801620001cf565b9450506020620002788782880162000202565b935050604085015167ffffffffffffffff8111156200029c576200029b6200045b565b5b620002aa87828801620001cf565b925050606085015167ffffffffffffffff811115620002ce57620002cd6200045b565b5b620002dc87828801620001cf565b91505092959194509250565b6000620002f462000307565b9050620003028282620003bd565b919050565b6000604051905090565b600067ffffffffffffffff8211156200032f576200032e62000422565b5b6200033a8262000465565b9050602081019050919050565b6000819050919050565b60005b838110156200037157808201518184015260208101905062000354565b8381111562000381576000848401525b50505050565b60006002820490506001821680620003a057607f821691505b60208210811415620003b757620003b6620003f3565b5b50919050565b620003c88262000465565b810181811067ffffffffffffffff82111715620003ea57620003e962000422565b5b80604052505050565b7f4e487b7100000000000000000000000000000000000000000000000000000000600052602260045260246000fd5b7f4e487b7100000000000000000000000000000000000000000000000000000000600052604160045260246000fd5b600080fd5b600080fd5b600080fd5b600080fd5b6000601f19601f8301169050919050565b620004818162000347565b81146200048d57600080fd5b50565b61073f80620004a06000396000f3fe6080604052600436106100705760003560e01c80638da5cb5b1161004e5780638da5cb5b146100f65780639632e72014610121578063ed88c68e1461014c578063f3ccaac01461015657610070565b806346c922d11461007557806348b9ef40146100a05780634a79d50c146100cb575b600080fd5b34801561008157600080fd5b5061008a610181565b6040516100979190610501565b60405180910390f35b3480156100ac57600080fd5b506100b561020f565b6040516100c29190610543565b60405180910390f35b3480156100d757600080fd5b506100e0610215565b6040516100ed9190610501565b60405180910390f35b34801561010257600080fd5b5061010b6102a3565b60405161011891906104e6565b60405180910390f35b34801561012d57600080fd5b506101366102c9565b6040516101439190610543565b60405180910390f35b6101546102cf565b005b34801561016257600080fd5b5061016b6103de565b6040516101789190610501565b60405180910390f35b6003805461018e9061063f565b80601f01602080910402602001604051908101604052809291908181526020018280546101ba9061063f565b80156102075780601f106101dc57610100808354040283529160200191610207565b820191906000526020600020905b8154815290600101906020018083116101ea57829003601f168201915b505050505081565b60015481565b600080546102229061063f565b80601f016020809104026020016040519081016040528092919081815260200182805461024e9061063f565b801561029b5780601f106102705761010080835404028352916020019161029b565b820191906000526020600020905b81548152906001019060200180831161027e57829003601f168201915b505050505081565b600460009054906101000a900473ffffffffffffffffffffffffffffffffffffffff1681565b60055481565b60055460015411610315576040517f08c379a000000000000000000000000000000000000000000000000000000000815260040161030c90610523565b60405180910390fd5b600460009054906101000a900473ffffffffffffffffffffffffffffffffffffffff1673ffffffffffffffffffffffffffffffffffffffff166108fc349081150290604051600060405180830381858888f1935050505015801561037d573d6000803e3d6000fd5b503460056000828254610390919061057a565b9250508190555042343373ffffffffffffffffffffffffffffffffffffffff167fe6add99d06d9ad7fc456e746aa162eed6211c5002ef2dacdd67b8d2016822fba60405160405180910390a4565b600280546103eb9061063f565b80601f01602080910402602001604051908101604052809291908181526020018280546104179061063f565b80156104645780601f1061043957610100808354040283529160200191610464565b820191906000526020600020905b81548152906001019060200180831161044757829003601f168201915b505050505081565b610475816105d0565b82525050565b60006104868261055e565b6104908185610569565b93506104a081856020860161060c565b6104a9816106cf565b840191505092915050565b60006104c1601a83610569565b91506104cc826106e0565b602082019050919050565b6104e081610602565b82525050565b60006020820190506104fb600083018461046c565b92915050565b6000602082019050818103600083015261051b818461047b565b905092915050565b6000602082019050818103600083015261053c816104b4565b9050919050565b600060208201905061055860008301846104d7565b92915050565b600081519050919050565b600082825260208201905092915050565b600061058582610602565b915061059083610602565b9250827fffffffffffffffffffffffffffffffffffffffffffffffffffffffffffffffff038211156105c5576105c4610671565b5b828201905092915050565b60006105db826105e2565b9050919050565b600073ffffffffffffffffffffffffffffffffffffffff82169050919050565b6000819050919050565b60005b8381101561062a57808201518184015260208101905061060f565b83811115610639576000848401525b50505050565b6000600282049050600182168061065757607f821691505b6020821081141561066b5761066a6106a0565b5b50919050565b7f4e487b7100000000000000000000000000000000000000000000000000000000600052601160045260246000fd5b7f4e487b7100000000000000000000000000000000000000000000000000000000600052602260045260246000fd5b6000601f19601f8301169050919050565b7f726571756972656420616d6f756e742066756c6c66696c6c656400000000000060008201525056fea26469706673582212209a7855670d7c7dbebe520f500907abed227faeee6f1e831674403aa5d8f25cd964736f6c63430008070033",
					"opcodes": "PUSH1 0x80 PUSH1 0x40 MSTORE CALLVALUE DUP1 ISZERO PUSH3 0x11 JUMPI PUSH1 0x0 DUP1 REVERT JUMPDEST POP PUSH1 0x40 MLOAD PUSH3 0xBDF CODESIZE SUB DUP1 PUSH3 0xBDF DUP4 CODECOPY DUP2 DUP2 ADD PUSH1 0x40 MSTORE DUP2 ADD SWAP1 PUSH3 0x37 SWAP2 SWAP1 PUSH3 0x219 JUMP JUMPDEST DUP4 PUSH1 0x0 SWAP1 DUP1 MLOAD SWAP1 PUSH1 0x20 ADD SWAP1 PUSH3 0x4F SWAP3 SWAP2 SWAP1 PUSH3 0xD4 JUMP JUMPDEST POP DUP3 PUSH1 0x1 DUP2 SWAP1 SSTORE POP DUP2 PUSH1 0x2 SWAP1 DUP1 MLOAD SWAP1 PUSH1 0x20 ADD SWAP1 PUSH3 0x6F SWAP3 SWAP2 SWAP1 PUSH3 0xD4 JUMP JUMPDEST POP DUP1 PUSH1 0x3 SWAP1 DUP1 MLOAD SWAP1 PUSH1 0x20 ADD SWAP1 PUSH3 0x88 SWAP3 SWAP2 SWAP1 PUSH3 0xD4 JUMP JUMPDEST POP CALLER PUSH1 0x4 PUSH1 0x0 PUSH2 0x100 EXP DUP2 SLOAD DUP2 PUSH20 0xFFFFFFFFFFFFFFFFFFFFFFFFFFFFFFFFFFFFFFFF MUL NOT AND SWAP1 DUP4 PUSH20 0xFFFFFFFFFFFFFFFFFFFFFFFFFFFFFFFFFFFFFFFF AND MUL OR SWAP1 SSTORE POP POP POP POP POP PUSH3 0x490 JUMP JUMPDEST DUP3 DUP1 SLOAD PUSH3 0xE2 SWAP1 PUSH3 0x387 JUMP JUMPDEST SWAP1 PUSH1 0x0 MSTORE PUSH1 0x20 PUSH1 0x0 KECCAK256 SWAP1 PUSH1 0x1F ADD PUSH1 0x20 SWAP1 DIV DUP2 ADD SWAP3 DUP3 PUSH3 0x106 JUMPI PUSH1 0x0 DUP6 SSTORE PUSH3 0x152 JUMP JUMPDEST DUP3 PUSH1 0x1F LT PUSH3 0x121 JUMPI DUP1 MLOAD PUSH1 0xFF NOT AND DUP4 DUP1 ADD OR DUP6 SSTORE PUSH3 0x152 JUMP JUMPDEST DUP3 DUP1 ADD PUSH1 0x1 ADD DUP6 SSTORE DUP3 ISZERO PUSH3 0x152 JUMPI SWAP2 DUP3 ADD JUMPDEST DUP3 DUP2 GT ISZERO PUSH3 0x151 JUMPI DUP3 MLOAD DUP3 SSTORE SWAP2 PUSH1 0x20 ADD SWAP2 SWAP1 PUSH1 0x1 ADD SWAP1 PUSH3 0x134 JUMP JUMPDEST JUMPDEST POP SWAP1 POP PUSH3 0x161 SWAP2 SWAP1 PUSH3 0x165 JUMP JUMPDEST POP SWAP1 JUMP JUMPDEST JUMPDEST DUP1 DUP3 GT ISZERO PUSH3 0x180 JUMPI PUSH1 0x0 DUP2 PUSH1 0x0 SWAP1 SSTORE POP PUSH1 0x1 ADD PUSH3 0x166 JUMP JUMPDEST POP SWAP1 JUMP JUMPDEST PUSH1 0x0 PUSH3 0x19B PUSH3 0x195 DUP5 PUSH3 0x311 JUMP JUMPDEST PUSH3 0x2E8 JUMP JUMPDEST SWAP1 POP DUP3 DUP2 MSTORE PUSH1 0x20 DUP2 ADD DUP5 DUP5 DUP5 ADD GT ISZERO PUSH3 0x1BA JUMPI PUSH3 0x1B9 PUSH3 0x456 JUMP JUMPDEST JUMPDEST PUSH3 0x1C7 DUP5 DUP3 DUP6 PUSH3 0x351 JUMP JUMPDEST POP SWAP4 SWAP3 POP POP POP JUMP JUMPDEST PUSH1 0x0 DUP3 PUSH1 0x1F DUP4 ADD SLT PUSH3 0x1E7 JUMPI PUSH3 0x1E6 PUSH3 0x451 JUMP JUMPDEST JUMPDEST DUP2 MLOAD PUSH3 0x1F9 DUP5 DUP3 PUSH1 0x20 DUP7 ADD PUSH3 0x184 JUMP JUMPDEST SWAP2 POP POP SWAP3 SWAP2 POP POP JUMP JUMPDEST PUSH1 0x0 DUP2 MLOAD SWAP1 POP PUSH3 0x213 DUP2 PUSH3 0x476 JUMP JUMPDEST SWAP3 SWAP2 POP POP JUMP JUMPDEST PUSH1 0x0 DUP1 PUSH1 0x0 DUP1 PUSH1 0x80 DUP6 DUP8 SUB SLT ISZERO PUSH3 0x236 JUMPI PUSH3 0x235 PUSH3 0x460 JUMP JUMPDEST JUMPDEST PUSH1 0x0 DUP6 ADD MLOAD PUSH8 0xFFFFFFFFFFFFFFFF DUP2 GT ISZERO PUSH3 0x257 JUMPI PUSH3 0x256 PUSH3 0x45B JUMP JUMPDEST JUMPDEST PUSH3 0x265 DUP8 DUP3 DUP9 ADD PUSH3 0x1CF JUMP JUMPDEST SWAP5 POP POP PUSH1 0x20 PUSH3 0x278 DUP8 DUP3 DUP9 ADD PUSH3 0x202 JUMP JUMPDEST SWAP4 POP POP PUSH1 0x40 DUP6 ADD MLOAD PUSH8 0xFFFFFFFFFFFFFFFF DUP2 GT ISZERO PUSH3 0x29C JUMPI PUSH3 0x29B PUSH3 0x45B JUMP JUMPDEST JUMPDEST PUSH3 0x2AA DUP8 DUP3 DUP9 ADD PUSH3 0x1CF JUMP JUMPDEST SWAP3 POP POP PUSH1 0x60 DUP6 ADD MLOAD PUSH8 0xFFFFFFFFFFFFFFFF DUP2 GT ISZERO PUSH3 0x2CE JUMPI PUSH3 0x2CD PUSH3 0x45B JUMP JUMPDEST JUMPDEST PUSH3 0x2DC DUP8 DUP3 DUP9 ADD PUSH3 0x1CF JUMP JUMPDEST SWAP2 POP POP SWAP3 SWAP6 SWAP2 SWAP5 POP SWAP3 POP JUMP JUMPDEST PUSH1 0x0 PUSH3 0x2F4 PUSH3 0x307 JUMP JUMPDEST SWAP1 POP PUSH3 0x302 DUP3 DUP3 PUSH3 0x3BD JUMP JUMPDEST SWAP2 SWAP1 POP JUMP JUMPDEST PUSH1 0x0 PUSH1 0x40 MLOAD SWAP1 POP SWAP1 JUMP JUMPDEST PUSH1 0x0 PUSH8 0xFFFFFFFFFFFFFFFF DUP3 GT ISZERO PUSH3 0x32F JUMPI PUSH3 0x32E PUSH3 0x422 JUMP JUMPDEST JUMPDEST PUSH3 0x33A DUP3 PUSH3 0x465 JUMP JUMPDEST SWAP1 POP PUSH1 0x20 DUP2 ADD SWAP1 POP SWAP2 SWAP1 POP JUMP JUMPDEST PUSH1 0x0 DUP2 SWAP1 POP SWAP2 SWAP1 POP JUMP JUMPDEST PUSH1 0x0 JUMPDEST DUP4 DUP2 LT ISZERO PUSH3 0x371 JUMPI DUP1 DUP3 ADD MLOAD DUP2 DUP5 ADD MSTORE PUSH1 0x20 DUP2 ADD SWAP1 POP PUSH3 0x354 JUMP JUMPDEST DUP4 DUP2 GT ISZERO PUSH3 0x381 JUMPI PUSH1 0x0 DUP5 DUP5 ADD MSTORE JUMPDEST POP POP POP POP JUMP JUMPDEST PUSH1 0x0 PUSH1 0x2 DUP3 DIV SWAP1 POP PUSH1 0x1 DUP3 AND DUP1 PUSH3 0x3A0 JUMPI PUSH1 0x7F DUP3 AND SWAP2 POP JUMPDEST PUSH1 0x20 DUP3 LT DUP2 EQ ISZERO PUSH3 0x3B7 JUMPI PUSH3 0x3B6 PUSH3 0x3F3 JUMP JUMPDEST JUMPDEST POP SWAP2 SWAP1 POP JUMP JUMPDEST PUSH3 0x3C8 DUP3 PUSH3 0x465 JUMP JUMPDEST DUP2 ADD DUP2 DUP2 LT PUSH8 0xFFFFFFFFFFFFFFFF DUP3 GT OR ISZERO PUSH3 0x3EA JUMPI PUSH3 0x3E9 PUSH3 0x422 JUMP JUMPDEST JUMPDEST DUP1 PUSH1 0x40 MSTORE POP POP POP JUMP JUMPDEST PUSH32 0x4E487B7100000000000000000000000000000000000000000000000000000000 PUSH1 0x0 MSTORE PUSH1 0x22 PUSH1 0x4 MSTORE PUSH1 0x24 PUSH1 0x0 REVERT JUMPDEST PUSH32 0x4E487B7100000000000000000000000000000000000000000000000000000000 PUSH1 0x0 MSTORE PUSH1 0x41 PUSH1 0x4 MSTORE PUSH1 0x24 PUSH1 0x0 REVERT JUMPDEST PUSH1 0x0 DUP1 REVERT JUMPDEST PUSH1 0x0 DUP1 REVERT JUMPDEST PUSH1 0x0 DUP1 REVERT JUMPDEST PUSH1 0x0 DUP1 REVERT JUMPDEST PUSH1 0x0 PUSH1 0x1F NOT PUSH1 0x1F DUP4 ADD AND SWAP1 POP SWAP2 SWAP1 POP JUMP JUMPDEST PUSH3 0x481 DUP2 PUSH3 0x347 JUMP JUMPDEST DUP2 EQ PUSH3 0x48D JUMPI PUSH1 0x0 DUP1 REVERT JUMPDEST POP JUMP JUMPDEST PUSH2 0x73F DUP1 PUSH3 0x4A0 PUSH1 0x0 CODECOPY PUSH1 0x0 RETURN INVALID PUSH1 0x80 PUSH1 0x40 MSTORE PUSH1 0x4 CALLDATASIZE LT PUSH2 0x70 JUMPI PUSH1 0x0 CALLDATALOAD PUSH1 0xE0 SHR DUP1 PUSH4 0x8DA5CB5B GT PUSH2 0x4E JUMPI DUP1 PUSH4 0x8DA5CB5B EQ PUSH2 0xF6 JUMPI DUP1 PUSH4 0x9632E720 EQ PUSH2 0x121 JUMPI DUP1 PUSH4 0xED88C68E EQ PUSH2 0x14C JUMPI DUP1 PUSH4 0xF3CCAAC0 EQ PUSH2 0x156 JUMPI PUSH2 0x70 JUMP JUMPDEST DUP1 PUSH4 0x46C922D1 EQ PUSH2 0x75 JUMPI DUP1 PUSH4 0x48B9EF40 EQ PUSH2 0xA0 JUMPI DUP1 PUSH4 0x4A79D50C EQ PUSH2 0xCB JUMPI JUMPDEST PUSH1 0x0 DUP1 REVERT JUMPDEST CALLVALUE DUP1 ISZERO PUSH2 0x81 JUMPI PUSH1 0x0 DUP1 REVERT JUMPDEST POP PUSH2 0x8A PUSH2 0x181 JUMP JUMPDEST PUSH1 0x40 MLOAD PUSH2 0x97 SWAP2 SWAP1 PUSH2 0x501 JUMP JUMPDEST PUSH1 0x40 MLOAD DUP1 SWAP2 SUB SWAP1 RETURN JUMPDEST CALLVALUE DUP1 ISZERO PUSH2 0xAC JUMPI PUSH1 0x0 DUP1 REVERT JUMPDEST POP PUSH2 0xB5 PUSH2 0x20F JUMP JUMPDEST PUSH1 0x40 MLOAD PUSH2 0xC2 SWAP2 SWAP1 PUSH2 0x543 JUMP JUMPDEST PUSH1 0x40 MLOAD DUP1 SWAP2 SUB SWAP1 RETURN JUMPDEST CALLVALUE DUP1 ISZERO PUSH2 0xD7 JUMPI PUSH1 0x0 DUP1 REVERT JUMPDEST POP PUSH2 0xE0 PUSH2 0x215 JUMP JUMPDEST PUSH1 0x40 MLOAD PUSH2 0xED SWAP2 SWAP1 PUSH2 0x501 JUMP JUMPDEST PUSH1 0x40 MLOAD DUP1 SWAP2 SUB SWAP1 RETURN JUMPDEST CALLVALUE DUP1 ISZERO PUSH2 0x102 JUMPI PUSH1 0x0 DUP1 REVERT JUMPDEST POP PUSH2 0x10B PUSH2 0x2A3 JUMP JUMPDEST PUSH1 0x40 MLOAD PUSH2 0x118 SWAP2 SWAP1 PUSH2 0x4E6 JUMP JUMPDEST PUSH1 0x40 MLOAD DUP1 SWAP2 SUB SWAP1 RETURN JUMPDEST CALLVALUE DUP1 ISZERO PUSH2 0x12D JUMPI PUSH1 0x0 DUP1 REVERT JUMPDEST POP PUSH2 0x136 PUSH2 0x2C9 JUMP JUMPDEST PUSH1 0x40 MLOAD PUSH2 0x143 SWAP2 SWAP1 PUSH2 0x543 JUMP JUMPDEST PUSH1 0x40 MLOAD DUP1 SWAP2 SUB SWAP1 RETURN JUMPDEST PUSH2 0x154 PUSH2 0x2CF JUMP JUMPDEST STOP JUMPDEST CALLVALUE DUP1 ISZERO PUSH2 0x162 JUMPI PUSH1 0x0 DUP1 REVERT JUMPDEST POP PUSH2 0x16B PUSH2 0x3DE JUMP JUMPDEST PUSH1 0x40 MLOAD PUSH2 0x178 SWAP2 SWAP1 PUSH2 0x501 JUMP JUMPDEST PUSH1 0x40 MLOAD DUP1 SWAP2 SUB SWAP1 RETURN JUMPDEST PUSH1 0x3 DUP1 SLOAD PUSH2 0x18E SWAP1 PUSH2 0x63F JUMP JUMPDEST DUP1 PUSH1 0x1F ADD PUSH1 0x20 DUP1 SWAP2 DIV MUL PUSH1 0x20 ADD PUSH1 0x40 MLOAD SWAP1 DUP2 ADD PUSH1 0x40 MSTORE DUP1 SWAP3 SWAP2 SWAP1 DUP2 DUP2 MSTORE PUSH1 0x20 ADD DUP3 DUP1 SLOAD PUSH2 0x1BA SWAP1 PUSH2 0x63F JUMP JUMPDEST DUP1 ISZERO PUSH2 0x207 JUMPI DUP1 PUSH1 0x1F LT PUSH2 0x1DC JUMPI PUSH2 0x100 DUP1 DUP4 SLOAD DIV MUL DUP4 MSTORE SWAP2 PUSH1 0x20 ADD SWAP2 PUSH2 0x207 JUMP JUMPDEST DUP3 ADD SWAP2 SWAP1 PUSH1 0x0 MSTORE PUSH1 0x20 PUSH1 0x0 KECCAK256 SWAP1 JUMPDEST DUP2 SLOAD DUP2 MSTORE SWAP1 PUSH1 0x1 ADD SWAP1 PUSH1 0x20 ADD DUP1 DUP4 GT PUSH2 0x1EA JUMPI DUP3 SWAP1 SUB PUSH1 0x1F AND DUP3 ADD SWAP2 JUMPDEST POP POP POP POP POP DUP2 JUMP JUMPDEST PUSH1 0x1 SLOAD DUP2 JUMP JUMPDEST PUSH1 0x0 DUP1 SLOAD PUSH2 0x222 SWAP1 PUSH2 0x63F JUMP JUMPDEST DUP1 PUSH1 0x1F ADD PUSH1 0x20 DUP1 SWAP2 DIV MUL PUSH1 0x20 ADD PUSH1 0x40 MLOAD SWAP1 DUP2 ADD PUSH1 0x40 MSTORE DUP1 SWAP3 SWAP2 SWAP1 DUP2 DUP2 MSTORE PUSH1 0x20 ADD DUP3 DUP1 SLOAD PUSH2 0x24E SWAP1 PUSH2 0x63F JUMP JUMPDEST DUP1 ISZERO PUSH2 0x29B JUMPI DUP1 PUSH1 0x1F LT PUSH2 0x270 JUMPI PUSH2 0x100 DUP1 DUP4 SLOAD DIV MUL DUP4 MSTORE SWAP2 PUSH1 0x20 ADD SWAP2 PUSH2 0x29B JUMP JUMPDEST DUP3 ADD SWAP2 SWAP1 PUSH1 0x0 MSTORE PUSH1 0x20 PUSH1 0x0 KECCAK256 SWAP1 JUMPDEST DUP2 SLOAD DUP2 MSTORE SWAP1 PUSH1 0x1 ADD SWAP1 PUSH1 0x20 ADD DUP1 DUP4 GT PUSH2 0x27E JUMPI DUP3 SWAP1 SUB PUSH1 0x1F AND DUP3 ADD SWAP2 JUMPDEST POP POP POP POP POP DUP2 JUMP JUMPDEST PUSH1 0x4 PUSH1 0x0 SWAP1 SLOAD SWAP1 PUSH2 0x100 EXP SWAP1 DIV PUSH20 0xFFFFFFFFFFFFFFFFFFFFFFFFFFFFFFFFFFFFFFFF AND DUP2 JUMP JUMPDEST PUSH1 0x5 SLOAD DUP2 JUMP JUMPDEST PUSH1 0x5 SLOAD PUSH1 0x1 SLOAD GT PUSH2 0x315 JUMPI PUSH1 0x40 MLOAD PUSH32 0x8C379A000000000000000000000000000000000000000000000000000000000 DUP2 MSTORE PUSH1 0x4 ADD PUSH2 0x30C SWAP1 PUSH2 0x523 JUMP JUMPDEST PUSH1 0x40 MLOAD DUP1 SWAP2 SUB SWAP1 REVERT JUMPDEST PUSH1 0x4 PUSH1 0x0 SWAP1 SLOAD SWAP1 PUSH2 0x100 EXP SWAP1 DIV PUSH20 0xFFFFFFFFFFFFFFFFFFFFFFFFFFFFFFFFFFFFFFFF AND PUSH20 0xFFFFFFFFFFFFFFFFFFFFFFFFFFFFFFFFFFFFFFFF AND PUSH2 0x8FC CALLVALUE SWAP1 DUP2 ISZERO MUL SWAP1 PUSH1 0x40 MLOAD PUSH1 0x0 PUSH1 0x40 MLOAD DUP1 DUP4 SUB DUP2 DUP6 DUP9 DUP9 CALL SWAP4 POP POP POP POP ISZERO DUP1 ISZERO PUSH2 0x37D JUMPI RETURNDATASIZE PUSH1 0x0 DUP1 RETURNDATACOPY RETURNDATASIZE PUSH1 0x0 REVERT JUMPDEST POP CALLVALUE PUSH1 0x5 PUSH1 0x0 DUP3 DUP3 SLOAD PUSH2 0x390 SWAP2 SWAP1 PUSH2 0x57A JUMP JUMPDEST SWAP3 POP POP DUP2 SWAP1 SSTORE POP TIMESTAMP CALLVALUE CALLER PUSH20 0xFFFFFFFFFFFFFFFFFFFFFFFFFFFFFFFFFFFFFFFF AND PUSH32 0xE6ADD99D06D9AD7FC456E746AA162EED6211C5002EF2DACDD67B8D2016822FBA PUSH1 0x40 MLOAD PUSH1 0x40 MLOAD DUP1 SWAP2 SUB SWAP1 LOG4 JUMP JUMPDEST PUSH1 0x2 DUP1 SLOAD PUSH2 0x3EB SWAP1 PUSH2 0x63F JUMP JUMPDEST DUP1 PUSH1 0x1F ADD PUSH1 0x20 DUP1 SWAP2 DIV MUL PUSH1 0x20 ADD PUSH1 0x40 MLOAD SWAP1 DUP2 ADD PUSH1 0x40 MSTORE DUP1 SWAP3 SWAP2 SWAP1 DUP2 DUP2 MSTORE PUSH1 0x20 ADD DUP3 DUP1 SLOAD PUSH2 0x417 SWAP1 PUSH2 0x63F JUMP JUMPDEST DUP1 ISZERO PUSH2 0x464 JUMPI DUP1 PUSH1 0x1F LT PUSH2 0x439 JUMPI PUSH2 0x100 DUP1 DUP4 SLOAD DIV MUL DUP4 MSTORE SWAP2 PUSH1 0x20 ADD SWAP2 PUSH2 0x464 JUMP JUMPDEST DUP3 ADD SWAP2 SWAP1 PUSH1 0x0 MSTORE PUSH1 0x20 PUSH1 0x0 KECCAK256 SWAP1 JUMPDEST DUP2 SLOAD DUP2 MSTORE SWAP1 PUSH1 0x1 ADD SWAP1 PUSH1 0x20 ADD DUP1 DUP4 GT PUSH2 0x447 JUMPI DUP3 SWAP1 SUB PUSH1 0x1F AND DUP3 ADD SWAP2 JUMPDEST POP POP POP POP POP DUP2 JUMP JUMPDEST PUSH2 0x475 DUP2 PUSH2 0x5D0 JUMP JUMPDEST DUP3 MSTORE POP POP JUMP JUMPDEST PUSH1 0x0 PUSH2 0x486 DUP3 PUSH2 0x55E JUMP JUMPDEST PUSH2 0x490 DUP2 DUP6 PUSH2 0x569 JUMP JUMPDEST SWAP4 POP PUSH2 0x4A0 DUP2 DUP6 PUSH1 0x20 DUP7 ADD PUSH2 0x60C JUMP JUMPDEST PUSH2 0x4A9 DUP2 PUSH2 0x6CF JUMP JUMPDEST DUP5 ADD SWAP2 POP POP SWAP3 SWAP2 POP POP JUMP JUMPDEST PUSH1 0x0 PUSH2 0x4C1 PUSH1 0x1A DUP4 PUSH2 0x569 JUMP JUMPDEST SWAP2 POP PUSH2 0x4CC DUP3 PUSH2 0x6E0 JUMP JUMPDEST PUSH1 0x20 DUP3 ADD SWAP1 POP SWAP2 SWAP1 POP JUMP JUMPDEST PUSH2 0x4E0 DUP2 PUSH2 0x602 JUMP JUMPDEST DUP3 MSTORE POP POP JUMP JUMPDEST PUSH1 0x0 PUSH1 0x20 DUP3 ADD SWAP1 POP PUSH2 0x4FB PUSH1 0x0 DUP4 ADD DUP5 PUSH2 0x46C JUMP JUMPDEST SWAP3 SWAP2 POP POP JUMP JUMPDEST PUSH1 0x0 PUSH1 0x20 DUP3 ADD SWAP1 POP DUP2 DUP2 SUB PUSH1 0x0 DUP4 ADD MSTORE PUSH2 0x51B DUP2 DUP5 PUSH2 0x47B JUMP JUMPDEST SWAP1 POP SWAP3 SWAP2 POP POP JUMP JUMPDEST PUSH1 0x0 PUSH1 0x20 DUP3 ADD SWAP1 POP DUP2 DUP2 SUB PUSH1 0x0 DUP4 ADD MSTORE PUSH2 0x53C DUP2 PUSH2 0x4B4 JUMP JUMPDEST SWAP1 POP SWAP2 SWAP1 POP JUMP JUMPDEST PUSH1 0x0 PUSH1 0x20 DUP3 ADD SWAP1 POP PUSH2 0x558 PUSH1 0x0 DUP4 ADD DUP5 PUSH2 0x4D7 JUMP JUMPDEST SWAP3 SWAP2 POP POP JUMP JUMPDEST PUSH1 0x0 DUP2 MLOAD SWAP1 POP SWAP2 SWAP1 POP JUMP JUMPDEST PUSH1 0x0 DUP3 DUP3 MSTORE PUSH1 0x20 DUP3 ADD SWAP1 POP SWAP3 SWAP2 POP POP JUMP JUMPDEST PUSH1 0x0 PUSH2 0x585 DUP3 PUSH2 0x602 JUMP JUMPDEST SWAP2 POP PUSH2 0x590 DUP4 PUSH2 0x602 JUMP JUMPDEST SWAP3 POP DUP3 PUSH32 0xFFFFFFFFFFFFFFFFFFFFFFFFFFFFFFFFFFFFFFFFFFFFFFFFFFFFFFFFFFFFFFFF SUB DUP3 GT ISZERO PUSH2 0x5C5 JUMPI PUSH2 0x5C4 PUSH2 0x671 JUMP JUMPDEST JUMPDEST DUP3 DUP3 ADD SWAP1 POP SWAP3 SWAP2 POP POP JUMP JUMPDEST PUSH1 0x0 PUSH2 0x5DB DUP3 PUSH2 0x5E2 JUMP JUMPDEST SWAP1 POP SWAP2 SWAP1 POP JUMP JUMPDEST PUSH1 0x0 PUSH20 0xFFFFFFFFFFFFFFFFFFFFFFFFFFFFFFFFFFFFFFFF DUP3 AND SWAP1 POP SWAP2 SWAP1 POP JUMP JUMPDEST PUSH1 0x0 DUP2 SWAP1 POP SWAP2 SWAP1 POP JUMP JUMPDEST PUSH1 0x0 JUMPDEST DUP4 DUP2 LT ISZERO PUSH2 0x62A JUMPI DUP1 DUP3 ADD MLOAD DUP2 DUP5 ADD MSTORE PUSH1 0x20 DUP2 ADD SWAP1 POP PUSH2 0x60F JUMP JUMPDEST DUP4 DUP2 GT ISZERO PUSH2 0x639 JUMPI PUSH1 0x0 DUP5 DUP5 ADD MSTORE JUMPDEST POP POP POP POP JUMP JUMPDEST PUSH1 0x0 PUSH1 0x2 DUP3 DIV SWAP1 POP PUSH1 0x1 DUP3 AND DUP1 PUSH2 0x657 JUMPI PUSH1 0x7F DUP3 AND SWAP2 POP JUMPDEST PUSH1 0x20 DUP3 LT DUP2 EQ ISZERO PUSH2 0x66B JUMPI PUSH2 0x66A PUSH2 0x6A0 JUMP JUMPDEST JUMPDEST POP SWAP2 SWAP1 POP JUMP JUMPDEST PUSH32 0x4E487B7100000000000000000000000000000000000000000000000000000000 PUSH1 0x0 MSTORE PUSH1 0x11 PUSH1 0x4 MSTORE PUSH1 0x24 PUSH1 0x0 REVERT JUMPDEST PUSH32 0x4E487B7100000000000000000000000000000000000000000000000000000000 PUSH1 0x0 MSTORE PUSH1 0x22 PUSH1 0x4 MSTORE PUSH1 0x24 PUSH1 0x0 REVERT JUMPDEST PUSH1 0x0 PUSH1 0x1F NOT PUSH1 0x1F DUP4 ADD AND SWAP1 POP SWAP2 SWAP1 POP JUMP JUMPDEST PUSH32 0x726571756972656420616D6F756E742066756C6C66696C6C6564000000000000 PUSH1 0x0 DUP3 ADD MSTORE POP JUMP INVALID LOG2 PUSH5 0x6970667358 0x22 SLT KECCAK256 SWAP11 PUSH25 0x55670D7C7DBEBE520F500907ABED227FAEEE6F1E831674403A 0xA5 0xD8 CALLCODE 0x5C 0xD9 PUSH5 0x736F6C6343 STOP ADDMOD SMOD STOP CALLER "
				},
				"gasEstimates": {
					"creation": {
						"codeDepositCost": "371000",
						"executionCost": "infinite",
						"totalCost": "infinite"
					},
					"external": {
						"donate()": "infinite",
						"image()": "infinite",
						"owner()": "2514",
						"receivedAmount()": "2451",
						"requiredAmount()": "2452",
						"story()": "infinite",
						"title()": "infinite"
					}
				},
				"methodIdentifiers": {
					"donate()": "ed88c68e",
					"image()": "f3ccaac0",
					"owner()": "8da5cb5b",
					"receivedAmount()": "9632e720",
					"requiredAmount()": "48b9ef40",
					"story()": "46c922d1",
					"title()": "4a79d50c"
				}
			},
			"storageLayout": {
				"storage": [
					{
						"astId": 40,
						"contract": "Campaign.sol:Campaign",
						"label": "title",
						"offset": 0,
						"slot": "0",
						"type": "t_string_storage"
					},
					{
						"astId": 42,
						"contract": "Campaign.sol:Campaign",
						"label": "requiredAmount",
						"offset": 0,
						"slot": "1",
						"type": "t_uint256"
					},
					{
						"astId": 44,
						"contract": "Campaign.sol:Campaign",
						"label": "image",
						"offset": 0,
						"slot": "2",
						"type": "t_string_storage"
					},
					{
						"astId": 46,
						"contract": "Campaign.sol:Campaign",
						"label": "story",
						"offset": 0,
						"slot": "3",
						"type": "t_string_storage"
					},
					{
						"astId": 48,
						"contract": "Campaign.sol:Campaign",
						"label": "owner",
						"offset": 0,
						"slot": "4",
						"type": "t_address_payable"
					},
					{
						"astId": 50,
						"contract": "Campaign.sol:Campaign",
						"label": "receivedAmount",
						"offset": 0,
						"slot": "5",
						"type": "t_uint256"
					}
				],
				"types": {
					"t_address_payable": {
						"encoding": "inplace",
						"label": "address payable",
						"numberOfBytes": "20"
					},
					"t_string_storage": {
						"encoding": "bytes",
						"label": "string",
						"numberOfBytes": "32"
					},
					"t_uint256": {
						"encoding": "inplace",
						"label": "uint256",
						"numberOfBytes": "32"
					}
				}
			},
			"userdoc": {
				"kind": "user",
				"methods": {},
				"version": 1
			}
		}
	}
}