{
	"data": {
		"bytecode": {
			"linkReferences": {},
			"object": "608060405234801561001057600080fd5b5061131a806100206000396000f3fe60806040523480156200001157600080fd5b50600436106200003a5760003560e01c8063339d50a5146200003f578063c658857d1462000075575b600080fd5b6200005d600480360381019062000057919062000399565b62000095565b6040516200006c91906200047e565b60405180910390f35b6200009360048036038101906200008d919062000295565b620000d5565b005b60008181548110620000a657600080fd5b906000526020600020016000915054906101000a900473ffffffffffffffffffffffffffffffffffffffff1681565b600085858584604051620000e990620001f2565b620000f89493929190620004f6565b604051809103906000f08015801562000115573d6000803e3d6000fd5b5090506000819080600181540180825580915050600190039060005260206000200160009091909190916101000a81548173ffffffffffffffffffffffffffffffffffffffff021916908373ffffffffffffffffffffffffffffffffffffffff160217905550826040516200018b919062000465565b6040518091039020423373ffffffffffffffffffffffffffffffffffffffff167ff932d905365211c7f19fda44bcb55b1adbe63365f7cdae1c35ddcb3e38ed1d468989868a604051620001e294939291906200049b565b60405180910390a4505050505050565b610bdf806200070683390190565b600062000217620002118462000581565b62000558565b905082815260208101848484011115620002365762000235620006cb565b5b620002438482856200061c565b509392505050565b600082601f830112620002635762000262620006c6565b5b81356200027584826020860162000200565b91505092915050565b6000813590506200028f81620006eb565b92915050565b600080600080600060a08688031215620002b457620002b3620006d5565b5b600086013567ffffffffffffffff811115620002d557620002d4620006d0565b5b620002e3888289016200024b565b9550506020620002f6888289016200027e565b945050604086013567ffffffffffffffff8111156200031a5762000319620006d0565b5b62000328888289016200024b565b935050606086013567ffffffffffffffff8111156200034c576200034b620006d0565b5b6200035a888289016200024b565b925050608086013567ffffffffffffffff8111156200037e576200037d620006d0565b5b6200038c888289016200024b565b9150509295509295909350565b600060208284031215620003b257620003b1620006d5565b5b6000620003c2848285016200027e565b91505092915050565b620003d681620005de565b82525050565b6000620003e982620005b7565b620003f58185620005c2565b9350620004078185602086016200062b565b6200041281620006da565b840191505092915050565b60006200042a82620005b7565b620004368185620005d3565b9350620004488185602086016200062b565b80840191505092915050565b6200045f8162000612565b82525050565b60006200047382846200041d565b915081905092915050565b6000602082019050620004956000830184620003cb565b92915050565b60006080820190508181036000830152620004b78187620003dc565b9050620004c8602083018662000454565b620004d76040830185620003cb565b8181036060830152620004eb8184620003dc565b905095945050505050565b60006080820190508181036000830152620005128187620003dc565b905062000523602083018662000454565b8181036040830152620005378185620003dc565b905081810360608301526200054d8184620003dc565b905095945050505050565b60006200056462000577565b905062000572828262000661565b919050565b6000604051905090565b600067ffffffffffffffff8211156200059f576200059e62000697565b5b620005aa82620006da565b9050602081019050919050565b600081519050919050565b600082825260208201905092915050565b600081905092915050565b6000620005eb82620005f2565b9050919050565b600073ffffffffffffffffffffffffffffffffffffffff82169050919050565b6000819050919050565b82818337600083830152505050565b60005b838110156200064b5780820151818401526020810190506200062e565b838111156200065b576000848401525b50505050565b6200066c82620006da565b810181811067ffffffffffffffff821117156200068e576200068d62000697565b5b80604052505050565b7f4e487b7100000000000000000000000000000000000000000000000000000000600052604160045260246000fd5b600080fd5b600080fd5b600080fd5b600080fd5b6000601f19601f8301169050919050565b620006f68162000612565b81146200070257600080fd5b5056fe60806040523480156200001157600080fd5b5060405162000bdf38038062000bdf833981810160405281019062000037919062000219565b83600090805190602001906200004f929190620000d4565b508260018190555081600290805190602001906200006f929190620000d4565b50806003908051906020019062000088929190620000d4565b5033600460006101000a81548173ffffffffffffffffffffffffffffffffffffffff021916908373ffffffffffffffffffffffffffffffffffffffff1602179055505050505062000490565b828054620000e29062000387565b90600052602060002090601f01602090048101928262000106576000855562000152565b82601f106200012157805160ff191683800117855562000152565b8280016001018555821562000152579182015b828111156200015157825182559160200191906001019062000134565b5b50905062000161919062000165565b5090565b5b808211156200018057600081600090555060010162000166565b5090565b60006200019b620001958462000311565b620002e8565b905082815260208101848484011115620001ba57620001b962000456565b5b620001c784828562000351565b509392505050565b600082601f830112620001e757620001e662000451565b5b8151620001f984826020860162000184565b91505092915050565b600081519050620002138162000476565b92915050565b6000806000806080858703121562000236576200023562000460565b5b600085015167ffffffffffffffff8111156200025757620002566200045b565b5b6200026587828801620001cf565b9450506020620002788782880162000202565b935050604085015167ffffffffffffffff8111156200029c576200029b6200045b565b5b620002aa87828801620001cf565b925050606085015167ffffffffffffffff811115620002ce57620002cd6200045b565b5b620002dc87828801620001cf565b91505092959194509250565b6000620002f462000307565b9050620003028282620003bd565b919050565b6000604051905090565b600067ffffffffffffffff8211156200032f576200032e62000422565b5b6200033a8262000465565b9050602081019050919050565b6000819050919050565b60005b838110156200037157808201518184015260208101905062000354565b8381111562000381576000848401525b50505050565b60006002820490506001821680620003a057607f821691505b60208210811415620003b757620003b6620003f3565b5b50919050565b620003c88262000465565b810181811067ffffffffffffffff82111715620003ea57620003e962000422565b5b80604052505050565b7f4e487b7100000000000000000000000000000000000000000000000000000000600052602260045260246000fd5b7f4e487b7100000000000000000000000000000000000000000000000000000000600052604160045260246000fd5b600080fd5b600080fd5b600080fd5b600080fd5b6000601f19601f8301169050919050565b620004818162000347565b81146200048d57600080fd5b50565b61073f80620004a06000396000f3fe6080604052600436106100705760003560e01c80638da5cb5b1161004e5780638da5cb5b146100f65780639632e72014610121578063ed88c68e1461014c578063f3ccaac01461015657610070565b806346c922d11461007557806348b9ef40146100a05780634a79d50c146100cb575b600080fd5b34801561008157600080fd5b5061008a610181565b6040516100979190610501565b60405180910390f35b3480156100ac57600080fd5b506100b561020f565b6040516100c29190610543565b60405180910390f35b3480156100d757600080fd5b506100e0610215565b6040516100ed9190610501565b60405180910390f35b34801561010257600080fd5b5061010b6102a3565b60405161011891906104e6565b60405180910390f35b34801561012d57600080fd5b506101366102c9565b6040516101439190610543565b60405180910390f35b6101546102cf565b005b34801561016257600080fd5b5061016b6103de565b6040516101789190610501565b60405180910390f35b6003805461018e9061063f565b80601f01602080910402602001604051908101604052809291908181526020018280546101ba9061063f565b80156102075780601f106101dc57610100808354040283529160200191610207565b820191906000526020600020905b8154815290600101906020018083116101ea57829003601f168201915b505050505081565b60015481565b600080546102229061063f565b80601f016020809104026020016040519081016040528092919081815260200182805461024e9061063f565b801561029b5780601f106102705761010080835404028352916020019161029b565b820191906000526020600020905b81548152906001019060200180831161027e57829003601f168201915b505050505081565b600460009054906101000a900473ffffffffffffffffffffffffffffffffffffffff1681565b60055481565b60055460015411610315576040517f08c379a000000000000000000000000000000000000000000000000000000000815260040161030c90610523565b60405180910390fd5b600460009054906101000a900473ffffffffffffffffffffffffffffffffffffffff1673ffffffffffffffffffffffffffffffffffffffff166108fc349081150290604051600060405180830381858888f1935050505015801561037d573d6000803e3d6000fd5b503460056000828254610390919061057a565b9250508190555042343373ffffffffffffffffffffffffffffffffffffffff167fe6add99d06d9ad7fc456e746aa162eed6211c5002ef2dacdd67b8d2016822fba60405160405180910390a4565b600280546103eb9061063f565b80601f01602080910402602001604051908101604052809291908181526020018280546104179061063f565b80156104645780601f1061043957610100808354040283529160200191610464565b820191906000526020600020905b81548152906001019060200180831161044757829003601f168201915b505050505081565b610475816105d0565b82525050565b60006104868261055e565b6104908185610569565b93506104a081856020860161060c565b6104a9816106cf565b840191505092915050565b60006104c1601a83610569565b91506104cc826106e0565b602082019050919050565b6104e081610602565b82525050565b60006020820190506104fb600083018461046c565b92915050565b6000602082019050818103600083015261051b818461047b565b905092915050565b6000602082019050818103600083015261053c816104b4565b9050919050565b600060208201905061055860008301846104d7565b92915050565b600081519050919050565b600082825260208201905092915050565b600061058582610602565b915061059083610602565b9250827fffffffffffffffffffffffffffffffffffffffffffffffffffffffffffffffff038211156105c5576105c4610671565b5b828201905092915050565b60006105db826105e2565b9050919050565b600073ffffffffffffffffffffffffffffffffffffffff82169050919050565b6000819050919050565b60005b8381101561062a57808201518184015260208101905061060f565b83811115610639576000848401525b50505050565b6000600282049050600182168061065757607f821691505b6020821081141561066b5761066a6106a0565b5b50919050565b7f4e487b7100000000000000000000000000000000000000000000000000000000600052601160045260246000fd5b7f4e487b7100000000000000000000000000000000000000000000000000000000600052602260045260246000fd5b6000601f19601f8301169050919050565b7f726571756972656420616d6f756e742066756c6c66696c6c656400000000000060008201525056fea264697066735822122014a76c487edd12eb3307a633df8aedbf858d36693f62ba3f9085d2b41236ddb964736f6c63430008070033a26469706673582212206969e8b98992fa360603f7f3efece6f7f90b3154f2a367e4941870f0c93e142b64736f6c63430008070033",
			"opcodes": "PUSH1 0x80 PUSH1 0x40 MSTORE CALLVALUE DUP1 ISZERO PUSH2 0x10 JUMPI PUSH1 0x0 DUP1 REVERT JUMPDEST POP PUSH2 0x131A DUP1 PUSH2 0x20 PUSH1 0x0 CODECOPY PUSH1 0x0 RETURN INVALID PUSH1 0x80 PUSH1 0x40 MSTORE CALLVALUE DUP1 ISZERO PUSH3 0x11 JUMPI PUSH1 0x0 DUP1 REVERT JUMPDEST POP PUSH1 0x4 CALLDATASIZE LT PUSH3 0x3A JUMPI PUSH1 0x0 CALLDATALOAD PUSH1 0xE0 SHR DUP1 PUSH4 0x339D50A5 EQ PUSH3 0x3F JUMPI DUP1 PUSH4 0xC658857D EQ PUSH3 0x75 JUMPI JUMPDEST PUSH1 0x0 DUP1 REVERT JUMPDEST PUSH3 0x5D PUSH1 0x4 DUP1 CALLDATASIZE SUB DUP2 ADD SWAP1 PUSH3 0x57 SWAP2 SWAP1 PUSH3 0x399 JUMP JUMPDEST PUSH3 0x95 JUMP JUMPDEST PUSH1 0x40 MLOAD PUSH3 0x6C SWAP2 SWAP1 PUSH3 0x47E JUMP JUMPDEST PUSH1 0x40 MLOAD DUP1 SWAP2 SUB SWAP1 RETURN JUMPDEST PUSH3 0x93 PUSH1 0x4 DUP1 CALLDATASIZE SUB DUP2 ADD SWAP1 PUSH3 0x8D SWAP2 SWAP1 PUSH3 0x295 JUMP JUMPDEST PUSH3 0xD5 JUMP JUMPDEST STOP JUMPDEST PUSH1 0x0 DUP2 DUP2 SLOAD DUP2 LT PUSH3 0xA6 JUMPI PUSH1 0x0 DUP1 REVERT JUMPDEST SWAP1 PUSH1 0x0 MSTORE PUSH1 0x20 PUSH1 0x0 KECCAK256 ADD PUSH1 0x0 SWAP2 POP SLOAD SWAP1 PUSH2 0x100 EXP SWAP1 DIV PUSH20 0xFFFFFFFFFFFFFFFFFFFFFFFFFFFFFFFFFFFFFFFF AND DUP2 JUMP JUMPDEST PUSH1 0x0 DUP6 DUP6 DUP6 DUP5 PUSH1 0x40 MLOAD PUSH3 0xE9 SWAP1 PUSH3 0x1F2 JUMP JUMPDEST PUSH3 0xF8 SWAP5 SWAP4 SWAP3 SWAP2 SWAP1 PUSH3 0x4F6 JUMP JUMPDEST PUSH1 0x40 MLOAD DUP1 SWAP2 SUB SWAP1 PUSH1 0x0 CREATE DUP1 ISZERO DUP1 ISZERO PUSH3 0x115 JUMPI RETURNDATASIZE PUSH1 0x0 DUP1 RETURNDATACOPY RETURNDATASIZE PUSH1 0x0 REVERT JUMPDEST POP SWAP1 POP PUSH1 0x0 DUP2 SWAP1 DUP1 PUSH1 0x1 DUP2 SLOAD ADD DUP1 DUP3 SSTORE DUP1 SWAP2 POP POP PUSH1 0x1 SWAP1 SUB SWAP1 PUSH1 0x0 MSTORE PUSH1 0x20 PUSH1 0x0 KECCAK256 ADD PUSH1 0x0 SWAP1 SWAP2 SWAP1 SWAP2 SWAP1 SWAP2 PUSH2 0x100 EXP DUP2 SLOAD DUP2 PUSH20 0xFFFFFFFFFFFFFFFFFFFFFFFFFFFFFFFFFFFFFFFF MUL NOT AND SWAP1 DUP4 PUSH20 0xFFFFFFFFFFFFFFFFFFFFFFFFFFFFFFFFFFFFFFFF AND MUL OR SWAP1 SSTORE POP DUP3 PUSH1 0x40 MLOAD PUSH3 0x18B SWAP2 SWAP1 PUSH3 0x465 JUMP JUMPDEST PUSH1 0x40 MLOAD DUP1 SWAP2 SUB SWAP1 KECCAK256 TIMESTAMP CALLER PUSH20 0xFFFFFFFFFFFFFFFFFFFFFFFFFFFFFFFFFFFFFFFF AND PUSH32 0xF932D905365211C7F19FDA44BCB55B1ADBE63365F7CDAE1C35DDCB3E38ED1D46 DUP10 DUP10 DUP7 DUP11 PUSH1 0x40 MLOAD PUSH3 0x1E2 SWAP5 SWAP4 SWAP3 SWAP2 SWAP1 PUSH3 0x49B JUMP JUMPDEST PUSH1 0x40 MLOAD DUP1 SWAP2 SUB SWAP1 LOG4 POP POP POP POP POP POP JUMP JUMPDEST PUSH2 0xBDF DUP1 PUSH3 0x706 DUP4 CODECOPY ADD SWAP1 JUMP JUMPDEST PUSH1 0x0 PUSH3 0x217 PUSH3 0x211 DUP5 PUSH3 0x581 JUMP JUMPDEST PUSH3 0x558 JUMP JUMPDEST SWAP1 POP DUP3 DUP2 MSTORE PUSH1 0x20 DUP2 ADD DUP5 DUP5 DUP5 ADD GT ISZERO PUSH3 0x236 JUMPI PUSH3 0x235 PUSH3 0x6CB JUMP JUMPDEST JUMPDEST PUSH3 0x243 DUP5 DUP3 DUP6 PUSH3 0x61C JUMP JUMPDEST POP SWAP4 SWAP3 POP POP POP JUMP JUMPDEST PUSH1 0x0 DUP3 PUSH1 0x1F DUP4 ADD SLT PUSH3 0x263 JUMPI PUSH3 0x262 PUSH3 0x6C6 JUMP JUMPDEST JUMPDEST DUP2 CALLDATALOAD PUSH3 0x275 DUP5 DUP3 PUSH1 0x20 DUP7 ADD PUSH3 0x200 JUMP JUMPDEST SWAP2 POP POP SWAP3 SWAP2 POP POP JUMP JUMPDEST PUSH1 0x0 DUP2 CALLDATALOAD SWAP1 POP PUSH3 0x28F DUP2 PUSH3 0x6EB JUMP JUMPDEST SWAP3 SWAP2 POP POP JUMP JUMPDEST PUSH1 0x0 DUP1 PUSH1 0x0 DUP1 PUSH1 0x0 PUSH1 0xA0 DUP7 DUP9 SUB SLT ISZERO PUSH3 0x2B4 JUMPI PUSH3 0x2B3 PUSH3 0x6D5 JUMP JUMPDEST JUMPDEST PUSH1 0x0 DUP7 ADD CALLDATALOAD PUSH8 0xFFFFFFFFFFFFFFFF DUP2 GT ISZERO PUSH3 0x2D5 JUMPI PUSH3 0x2D4 PUSH3 0x6D0 JUMP JUMPDEST JUMPDEST PUSH3 0x2E3 DUP9 DUP3 DUP10 ADD PUSH3 0x24B JUMP JUMPDEST SWAP6 POP POP PUSH1 0x20 PUSH3 0x2F6 DUP9 DUP3 DUP10 ADD PUSH3 0x27E JUMP JUMPDEST SWAP5 POP POP PUSH1 0x40 DUP7 ADD CALLDATALOAD PUSH8 0xFFFFFFFFFFFFFFFF DUP2 GT ISZERO PUSH3 0x31A JUMPI PUSH3 0x319 PUSH3 0x6D0 JUMP JUMPDEST JUMPDEST PUSH3 0x328 DUP9 DUP3 DUP10 ADD PUSH3 0x24B JUMP JUMPDEST SWAP4 POP POP PUSH1 0x60 DUP7 ADD CALLDATALOAD PUSH8 0xFFFFFFFFFFFFFFFF DUP2 GT ISZERO PUSH3 0x34C JUMPI PUSH3 0x34B PUSH3 0x6D0 JUMP JUMPDEST JUMPDEST PUSH3 0x35A DUP9 DUP3 DUP10 ADD PUSH3 0x24B JUMP JUMPDEST SWAP3 POP POP PUSH1 0x80 DUP7 ADD CALLDATALOAD PUSH8 0xFFFFFFFFFFFFFFFF DUP2 GT ISZERO PUSH3 0x37E JUMPI PUSH3 0x37D PUSH3 0x6D0 JUMP JUMPDEST JUMPDEST PUSH3 0x38C DUP9 DUP3 DUP10 ADD PUSH3 0x24B JUMP JUMPDEST SWAP2 POP POP SWAP3 SWAP6 POP SWAP3 SWAP6 SWAP1 SWAP4 POP JUMP JUMPDEST PUSH1 0x0 PUSH1 0x20 DUP3 DUP5 SUB SLT ISZERO PUSH3 0x3B2 JUMPI PUSH3 0x3B1 PUSH3 0x6D5 JUMP JUMPDEST JUMPDEST PUSH1 0x0 PUSH3 0x3C2 DUP5 DUP3 DUP6 ADD PUSH3 0x27E JUMP JUMPDEST SWAP2 POP POP SWAP3 SWAP2 POP POP JUMP JUMPDEST PUSH3 0x3D6 DUP2 PUSH3 0x5DE JUMP JUMPDEST DUP3 MSTORE POP POP JUMP JUMPDEST PUSH1 0x0 PUSH3 0x3E9 DUP3 PUSH3 0x5B7 JUMP JUMPDEST PUSH3 0x3F5 DUP2 DUP6 PUSH3 0x5C2 JUMP JUMPDEST SWAP4 POP PUSH3 0x407 DUP2 DUP6 PUSH1 0x20 DUP7 ADD PUSH3 0x62B JUMP JUMPDEST PUSH3 0x412 DUP2 PUSH3 0x6DA JUMP JUMPDEST DUP5 ADD SWAP2 POP POP SWAP3 SWAP2 POP POP JUMP JUMPDEST PUSH1 0x0 PUSH3 0x42A DUP3 PUSH3 0x5B7 JUMP JUMPDEST PUSH3 0x436 DUP2 DUP6 PUSH3 0x5D3 JUMP JUMPDEST SWAP4 POP PUSH3 0x448 DUP2 DUP6 PUSH1 0x20 DUP7 ADD PUSH3 0x62B JUMP JUMPDEST DUP1 DUP5 ADD SWAP2 POP POP SWAP3 SWAP2 POP POP JUMP JUMPDEST PUSH3 0x45F DUP2 PUSH3 0x612 JUMP JUMPDEST DUP3 MSTORE POP POP JUMP JUMPDEST PUSH1 0x0 PUSH3 0x473 DUP3 DUP5 PUSH3 0x41D JUMP JUMPDEST SWAP2 POP DUP2 SWAP1 POP SWAP3 SWAP2 POP POP JUMP JUMPDEST PUSH1 0x0 PUSH1 0x20 DUP3 ADD SWAP1 POP PUSH3 0x495 PUSH1 0x0 DUP4 ADD DUP5 PUSH3 0x3CB JUMP JUMPDEST SWAP3 SWAP2 POP POP JUMP JUMPDEST PUSH1 0x0 PUSH1 0x80 DUP3 ADD SWAP1 POP DUP2 DUP2 SUB PUSH1 0x0 DUP4 ADD MSTORE PUSH3 0x4B7 DUP2 DUP8 PUSH3 0x3DC JUMP JUMPDEST SWAP1 POP PUSH3 0x4C8 PUSH1 0x20 DUP4 ADD DUP7 PUSH3 0x454 JUMP JUMPDEST PUSH3 0x4D7 PUSH1 0x40 DUP4 ADD DUP6 PUSH3 0x3CB JUMP JUMPDEST DUP2 DUP2 SUB PUSH1 0x60 DUP4 ADD MSTORE PUSH3 0x4EB DUP2 DUP5 PUSH3 0x3DC JUMP JUMPDEST SWAP1 POP SWAP6 SWAP5 POP POP POP POP POP JUMP JUMPDEST PUSH1 0x0 PUSH1 0x80 DUP3 ADD SWAP1 POP DUP2 DUP2 SUB PUSH1 0x0 DUP4 ADD MSTORE PUSH3 0x512 DUP2 DUP8 PUSH3 0x3DC JUMP JUMPDEST SWAP1 POP PUSH3 0x523 PUSH1 0x20 DUP4 ADD DUP7 PUSH3 0x454 JUMP JUMPDEST DUP2 DUP2 SUB PUSH1 0x40 DUP4 ADD MSTORE PUSH3 0x537 DUP2 DUP6 PUSH3 0x3DC JUMP JUMPDEST SWAP1 POP DUP2 DUP2 SUB PUSH1 0x60 DUP4 ADD MSTORE PUSH3 0x54D DUP2 DUP5 PUSH3 0x3DC JUMP JUMPDEST SWAP1 POP SWAP6 SWAP5 POP POP POP POP POP JUMP JUMPDEST PUSH1 0x0 PUSH3 0x564 PUSH3 0x577 JUMP JUMPDEST SWAP1 POP PUSH3 0x572 DUP3 DUP3 PUSH3 0x661 JUMP JUMPDEST SWAP2 SWAP1 POP JUMP JUMPDEST PUSH1 0x0 PUSH1 0x40 MLOAD SWAP1 POP SWAP1 JUMP JUMPDEST PUSH1 0x0 PUSH8 0xFFFFFFFFFFFFFFFF DUP3 GT ISZERO PUSH3 0x59F JUMPI PUSH3 0x59E PUSH3 0x697 JUMP JUMPDEST JUMPDEST PUSH3 0x5AA DUP3 PUSH3 0x6DA JUMP JUMPDEST SWAP1 POP PUSH1 0x20 DUP2 ADD SWAP1 POP SWAP2 SWAP1 POP JUMP JUMPDEST PUSH1 0x0 DUP2 MLOAD SWAP1 POP SWAP2 SWAP1 POP JUMP JUMPDEST PUSH1 0x0 DUP3 DUP3 MSTORE PUSH1 0x20 DUP3 ADD SWAP1 POP SWAP3 SWAP2 POP POP JUMP JUMPDEST PUSH1 0x0 DUP2 SWAP1 POP SWAP3 SWAP2 POP POP JUMP JUMPDEST PUSH1 0x0 PUSH3 0x5EB DUP3 PUSH3 0x5F2 JUMP JUMPDEST SWAP1 POP SWAP2 SWAP1 POP JUMP JUMPDEST PUSH1 0x0 PUSH20 0xFFFFFFFFFFFFFFFFFFFFFFFFFFFFFFFFFFFFFFFF DUP3 AND SWAP1 POP SWAP2 SWAP1 POP JUMP JUMPDEST PUSH1 0x0 DUP2 SWAP1 POP SWAP2 SWAP1 POP JUMP JUMPDEST DUP3 DUP2 DUP4 CALLDATACOPY PUSH1 0x0 DUP4 DUP4 ADD MSTORE POP POP POP JUMP JUMPDEST PUSH1 0x0 JUMPDEST DUP4 DUP2 LT ISZERO PUSH3 0x64B JUMPI DUP1 DUP3 ADD MLOAD DUP2 DUP5 ADD MSTORE PUSH1 0x20 DUP2 ADD SWAP1 POP PUSH3 0x62E JUMP JUMPDEST DUP4 DUP2 GT ISZERO PUSH3 0x65B JUMPI PUSH1 0x0 DUP5 DUP5 ADD MSTORE JUMPDEST POP POP POP POP JUMP JUMPDEST PUSH3 0x66C DUP3 PUSH3 0x6DA JUMP JUMPDEST DUP2 ADD DUP2 DUP2 LT PUSH8 0xFFFFFFFFFFFFFFFF DUP3 GT OR ISZERO PUSH3 0x68E JUMPI PUSH3 0x68D PUSH3 0x697 JUMP JUMPDEST JUMPDEST DUP1 PUSH1 0x40 MSTORE POP POP POP JUMP JUMPDEST PUSH32 0x4E487B7100000000000000000000000000000000000000000000000000000000 PUSH1 0x0 MSTORE PUSH1 0x41 PUSH1 0x4 MSTORE PUSH1 0x24 PUSH1 0x0 REVERT JUMPDEST PUSH1 0x0 DUP1 REVERT JUMPDEST PUSH1 0x0 DUP1 REVERT JUMPDEST PUSH1 0x0 DUP1 REVERT JUMPDEST PUSH1 0x0 DUP1 REVERT JUMPDEST PUSH1 0x0 PUSH1 0x1F NOT PUSH1 0x1F DUP4 ADD AND SWAP1 POP SWAP2 SWAP1 POP JUMP JUMPDEST PUSH3 0x6F6 DUP2 PUSH3 0x612 JUMP JUMPDEST DUP2 EQ PUSH3 0x702 JUMPI PUSH1 0x0 DUP1 REVERT JUMPDEST POP JUMP INVALID PUSH1 0x80 PUSH1 0x40 MSTORE CALLVALUE DUP1 ISZERO PUSH3 0x11 JUMPI PUSH1 0x0 DUP1 REVERT JUMPDEST POP PUSH1 0x40 MLOAD PUSH3 0xBDF CODESIZE SUB DUP1 PUSH3 0xBDF DUP4 CODECOPY DUP2 DUP2 ADD PUSH1 0x40 MSTORE DUP2 ADD SWAP1 PUSH3 0x37 SWAP2 SWAP1 PUSH3 0x219 JUMP JUMPDEST DUP4 PUSH1 0x0 SWAP1 DUP1 MLOAD SWAP1 PUSH1 0x20 ADD SWAP1 PUSH3 0x4F SWAP3 SWAP2 SWAP1 PUSH3 0xD4 JUMP JUMPDEST POP DUP3 PUSH1 0x1 DUP2 SWAP1 SSTORE POP DUP2 PUSH1 0x2 SWAP1 DUP1 MLOAD SWAP1 PUSH1 0x20 ADD SWAP1 PUSH3 0x6F SWAP3 SWAP2 SWAP1 PUSH3 0xD4 JUMP JUMPDEST POP DUP1 PUSH1 0x3 SWAP1 DUP1 MLOAD SWAP1 PUSH1 0x20 ADD SWAP1 PUSH3 0x88 SWAP3 SWAP2 SWAP1 PUSH3 0xD4 JUMP JUMPDEST POP CALLER PUSH1 0x4 PUSH1 0x0 PUSH2 0x100 EXP DUP2 SLOAD DUP2 PUSH20 0xFFFFFFFFFFFFFFFFFFFFFFFFFFFFFFFFFFFFFFFF MUL NOT AND SWAP1 DUP4 PUSH20 0xFFFFFFFFFFFFFFFFFFFFFFFFFFFFFFFFFFFFFFFF AND MUL OR SWAP1 SSTORE POP POP POP POP POP PUSH3 0x490 JUMP JUMPDEST DUP3 DUP1 SLOAD PUSH3 0xE2 SWAP1 PUSH3 0x387 JUMP JUMPDEST SWAP1 PUSH1 0x0 MSTORE PUSH1 0x20 PUSH1 0x0 KECCAK256 SWAP1 PUSH1 0x1F ADD PUSH1 0x20 SWAP1 DIV DUP2 ADD SWAP3 DUP3 PUSH3 0x106 JUMPI PUSH1 0x0 DUP6 SSTORE PUSH3 0x152 JUMP JUMPDEST DUP3 PUSH1 0x1F LT PUSH3 0x121 JUMPI DUP1 MLOAD PUSH1 0xFF NOT AND DUP4 DUP1 ADD OR DUP6 SSTORE PUSH3 0x152 JUMP JUMPDEST DUP3 DUP1 ADD PUSH1 0x1 ADD DUP6 SSTORE DUP3 ISZERO PUSH3 0x152 JUMPI SWAP2 DUP3 ADD JUMPDEST DUP3 DUP2 GT ISZERO PUSH3 0x151 JUMPI DUP3 MLOAD DUP3 SSTORE SWAP2 PUSH1 0x20 ADD SWAP2 SWAP1 PUSH1 0x1 ADD SWAP1 PUSH3 0x134 JUMP JUMPDEST JUMPDEST POP SWAP1 POP PUSH3 0x161 SWAP2 SWAP1 PUSH3 0x165 JUMP JUMPDEST POP SWAP1 JUMP JUMPDEST JUMPDEST DUP1 DUP3 GT ISZERO PUSH3 0x180 JUMPI PUSH1 0x0 DUP2 PUSH1 0x0 SWAP1 SSTORE POP PUSH1 0x1 ADD PUSH3 0x166 JUMP JUMPDEST POP SWAP1 JUMP JUMPDEST PUSH1 0x0 PUSH3 0x19B PUSH3 0x195 DUP5 PUSH3 0x311 JUMP JUMPDEST PUSH3 0x2E8 JUMP JUMPDEST SWAP1 POP DUP3 DUP2 MSTORE PUSH1 0x20 DUP2 ADD DUP5 DUP5 DUP5 ADD GT ISZERO PUSH3 0x1BA JUMPI PUSH3 0x1B9 PUSH3 0x456 JUMP JUMPDEST JUMPDEST PUSH3 0x1C7 DUP5 DUP3 DUP6 PUSH3 0x351 JUMP JUMPDEST POP SWAP4 SWAP3 POP POP POP JUMP JUMPDEST PUSH1 0x0 DUP3 PUSH1 0x1F DUP4 ADD SLT PUSH3 0x1E7 JUMPI PUSH3 0x1E6 PUSH3 0x451 JUMP JUMPDEST JUMPDEST DUP2 MLOAD PUSH3 0x1F9 DUP5 DUP3 PUSH1 0x20 DUP7 ADD PUSH3 0x184 JUMP JUMPDEST SWAP2 POP POP SWAP3 SWAP2 POP POP JUMP JUMPDEST PUSH1 0x0 DUP2 MLOAD SWAP1 POP PUSH3 0x213 DUP2 PUSH3 0x476 JUMP JUMPDEST SWAP3 SWAP2 POP POP JUMP JUMPDEST PUSH1 0x0 DUP1 PUSH1 0x0 DUP1 PUSH1 0x80 DUP6 DUP8 SUB SLT ISZERO PUSH3 0x236 JUMPI PUSH3 0x235 PUSH3 0x460 JUMP JUMPDEST JUMPDEST PUSH1 0x0 DUP6 ADD MLOAD PUSH8 0xFFFFFFFFFFFFFFFF DUP2 GT ISZERO PUSH3 0x257 JUMPI PUSH3 0x256 PUSH3 0x45B JUMP JUMPDEST JUMPDEST PUSH3 0x265 DUP8 DUP3 DUP9 ADD PUSH3 0x1CF JUMP JUMPDEST SWAP5 POP POP PUSH1 0x20 PUSH3 0x278 DUP8 DUP3 DUP9 ADD PUSH3 0x202 JUMP JUMPDEST SWAP4 POP POP PUSH1 0x40 DUP6 ADD MLOAD PUSH8 0xFFFFFFFFFFFFFFFF DUP2 GT ISZERO PUSH3 0x29C JUMPI PUSH3 0x29B PUSH3 0x45B JUMP JUMPDEST JUMPDEST PUSH3 0x2AA DUP8 DUP3 DUP9 ADD PUSH3 0x1CF JUMP JUMPDEST SWAP3 POP POP PUSH1 0x60 DUP6 ADD MLOAD PUSH8 0xFFFFFFFFFFFFFFFF DUP2 GT ISZERO PUSH3 0x2CE JUMPI PUSH3 0x2CD PUSH3 0x45B JUMP JUMPDEST JUMPDEST PUSH3 0x2DC DUP8 DUP3 DUP9 ADD PUSH3 0x1CF JUMP JUMPDEST SWAP2 POP POP SWAP3 SWAP6 SWAP2 SWAP5 POP SWAP3 POP JUMP JUMPDEST PUSH1 0x0 PUSH3 0x2F4 PUSH3 0x307 JUMP JUMPDEST SWAP1 POP PUSH3 0x302 DUP3 DUP3 PUSH3 0x3BD JUMP JUMPDEST SWAP2 SWAP1 POP JUMP JUMPDEST PUSH1 0x0 PUSH1 0x40 MLOAD SWAP1 POP SWAP1 JUMP JUMPDEST PUSH1 0x0 PUSH8 0xFFFFFFFFFFFFFFFF DUP3 GT ISZERO PUSH3 0x32F JUMPI PUSH3 0x32E PUSH3 0x422 JUMP JUMPDEST JUMPDEST PUSH3 0x33A DUP3 PUSH3 0x465 JUMP JUMPDEST SWAP1 POP PUSH1 0x20 DUP2 ADD SWAP1 POP SWAP2 SWAP1 POP JUMP JUMPDEST PUSH1 0x0 DUP2 SWAP1 POP SWAP2 SWAP1 POP JUMP JUMPDEST PUSH1 0x0 JUMPDEST DUP4 DUP2 LT ISZERO PUSH3 0x371 JUMPI DUP1 DUP3 ADD MLOAD DUP2 DUP5 ADD MSTORE PUSH1 0x20 DUP2 ADD SWAP1 POP PUSH3 0x354 JUMP JUMPDEST DUP4 DUP2 GT ISZERO PUSH3 0x381 JUMPI PUSH1 0x0 DUP5 DUP5 ADD MSTORE JUMPDEST POP POP POP POP JUMP JUMPDEST PUSH1 0x0 PUSH1 0x2 DUP3 DIV SWAP1 POP PUSH1 0x1 DUP3 AND DUP1 PUSH3 0x3A0 JUMPI PUSH1 0x7F DUP3 AND SWAP2 POP JUMPDEST PUSH1 0x20 DUP3 LT DUP2 EQ ISZERO PUSH3 0x3B7 JUMPI PUSH3 0x3B6 PUSH3 0x3F3 JUMP JUMPDEST JUMPDEST POP SWAP2 SWAP1 POP JUMP JUMPDEST PUSH3 0x3C8 DUP3 PUSH3 0x465 JUMP JUMPDEST DUP2 ADD DUP2 DUP2 LT PUSH8 0xFFFFFFFFFFFFFFFF DUP3 GT OR ISZERO PUSH3 0x3EA JUMPI PUSH3 0x3E9 PUSH3 0x422 JUMP JUMPDEST JUMPDEST DUP1 PUSH1 0x40 MSTORE POP POP POP JUMP JUMPDEST PUSH32 0x4E487B7100000000000000000000000000000000000000000000000000000000 PUSH1 0x0 MSTORE PUSH1 0x22 PUSH1 0x4 MSTORE PUSH1 0x24 PUSH1 0x0 REVERT JUMPDEST PUSH32 0x4E487B7100000000000000000000000000000000000000000000000000000000 PUSH1 0x0 MSTORE PUSH1 0x41 PUSH1 0x4 MSTORE PUSH1 0x24 PUSH1 0x0 REVERT JUMPDEST PUSH1 0x0 DUP1 REVERT JUMPDEST PUSH1 0x0 DUP1 REVERT JUMPDEST PUSH1 0x0 DUP1 REVERT JUMPDEST PUSH1 0x0 DUP1 REVERT JUMPDEST PUSH1 0x0 PUSH1 0x1F NOT PUSH1 0x1F DUP4 ADD AND SWAP1 POP SWAP2 SWAP1 POP JUMP JUMPDEST PUSH3 0x481 DUP2 PUSH3 0x347 JUMP JUMPDEST DUP2 EQ PUSH3 0x48D JUMPI PUSH1 0x0 DUP1 REVERT JUMPDEST POP JUMP JUMPDEST PUSH2 0x73F DUP1 PUSH3 0x4A0 PUSH1 0x0 CODECOPY PUSH1 0x0 RETURN INVALID PUSH1 0x80 PUSH1 0x40 MSTORE PUSH1 0x4 CALLDATASIZE LT PUSH2 0x70 JUMPI PUSH1 0x0 CALLDATALOAD PUSH1 0xE0 SHR DUP1 PUSH4 0x8DA5CB5B GT PUSH2 0x4E JUMPI DUP1 PUSH4 0x8DA5CB5B EQ PUSH2 0xF6 JUMPI DUP1 PUSH4 0x9632E720 EQ PUSH2 0x121 JUMPI DUP1 PUSH4 0xED88C68E EQ PUSH2 0x14C JUMPI DUP1 PUSH4 0xF3CCAAC0 EQ PUSH2 0x156 JUMPI PUSH2 0x70 JUMP JUMPDEST DUP1 PUSH4 0x46C922D1 EQ PUSH2 0x75 JUMPI DUP1 PUSH4 0x48B9EF40 EQ PUSH2 0xA0 JUMPI DUP1 PUSH4 0x4A79D50C EQ PUSH2 0xCB JUMPI JUMPDEST PUSH1 0x0 DUP1 REVERT JUMPDEST CALLVALUE DUP1 ISZERO PUSH2 0x81 JUMPI PUSH1 0x0 DUP1 REVERT JUMPDEST POP PUSH2 0x8A PUSH2 0x181 JUMP JUMPDEST PUSH1 0x40 MLOAD PUSH2 0x97 SWAP2 SWAP1 PUSH2 0x501 JUMP JUMPDEST PUSH1 0x40 MLOAD DUP1 SWAP2 SUB SWAP1 RETURN JUMPDEST CALLVALUE DUP1 ISZERO PUSH2 0xAC JUMPI PUSH1 0x0 DUP1 REVERT JUMPDEST POP PUSH2 0xB5 PUSH2 0x20F JUMP JUMPDEST PUSH1 0x40 MLOAD PUSH2 0xC2 SWAP2 SWAP1 PUSH2 0x543 JUMP JUMPDEST PUSH1 0x40 MLOAD DUP1 SWAP2 SUB SWAP1 RETURN JUMPDEST CALLVALUE DUP1 ISZERO PUSH2 0xD7 JUMPI PUSH1 0x0 DUP1 REVERT JUMPDEST POP PUSH2 0xE0 PUSH2 0x215 JUMP JUMPDEST PUSH1 0x40 MLOAD PUSH2 0xED SWAP2 SWAP1 PUSH2 0x501 JUMP JUMPDEST PUSH1 0x40 MLOAD DUP1 SWAP2 SUB SWAP1 RETURN JUMPDEST CALLVALUE DUP1 ISZERO PUSH2 0x102 JUMPI PUSH1 0x0 DUP1 REVERT JUMPDEST POP PUSH2 0x10B PUSH2 0x2A3 JUMP JUMPDEST PUSH1 0x40 MLOAD PUSH2 0x118 SWAP2 SWAP1 PUSH2 0x4E6 JUMP JUMPDEST PUSH1 0x40 MLOAD DUP1 SWAP2 SUB SWAP1 RETURN JUMPDEST CALLVALUE DUP1 ISZERO PUSH2 0x12D JUMPI PUSH1 0x0 DUP1 REVERT JUMPDEST POP PUSH2 0x136 PUSH2 0x2C9 JUMP JUMPDEST PUSH1 0x40 MLOAD PUSH2 0x143 SWAP2 SWAP1 PUSH2 0x543 JUMP JUMPDEST PUSH1 0x40 MLOAD DUP1 SWAP2 SUB SWAP1 RETURN JUMPDEST PUSH2 0x154 PUSH2 0x2CF JUMP JUMPDEST STOP JUMPDEST CALLVALUE DUP1 ISZERO PUSH2 0x162 JUMPI PUSH1 0x0 DUP1 REVERT JUMPDEST POP PUSH2 0x16B PUSH2 0x3DE JUMP JUMPDEST PUSH1 0x40 MLOAD PUSH2 0x178 SWAP2 SWAP1 PUSH2 0x501 JUMP JUMPDEST PUSH1 0x40 MLOAD DUP1 SWAP2 SUB SWAP1 RETURN JUMPDEST PUSH1 0x3 DUP1 SLOAD PUSH2 0x18E SWAP1 PUSH2 0x63F JUMP JUMPDEST DUP1 PUSH1 0x1F ADD PUSH1 0x20 DUP1 SWAP2 DIV MUL PUSH1 0x20 ADD PUSH1 0x40 MLOAD SWAP1 DUP2 ADD PUSH1 0x40 MSTORE DUP1 SWAP3 SWAP2 SWAP1 DUP2 DUP2 MSTORE PUSH1 0x20 ADD DUP3 DUP1 SLOAD PUSH2 0x1BA SWAP1 PUSH2 0x63F JUMP JUMPDEST DUP1 ISZERO PUSH2 0x207 JUMPI DUP1 PUSH1 0x1F LT PUSH2 0x1DC JUMPI PUSH2 0x100 DUP1 DUP4 SLOAD DIV MUL DUP4 MSTORE SWAP2 PUSH1 0x20 ADD SWAP2 PUSH2 0x207 JUMP JUMPDEST DUP3 ADD SWAP2 SWAP1 PUSH1 0x0 MSTORE PUSH1 0x20 PUSH1 0x0 KECCAK256 SWAP1 JUMPDEST DUP2 SLOAD DUP2 MSTORE SWAP1 PUSH1 0x1 ADD SWAP1 PUSH1 0x20 ADD DUP1 DUP4 GT PUSH2 0x1EA JUMPI DUP3 SWAP1 SUB PUSH1 0x1F AND DUP3 ADD SWAP2 JUMPDEST POP POP POP POP POP DUP2 JUMP JUMPDEST PUSH1 0x1 SLOAD DUP2 JUMP JUMPDEST PUSH1 0x0 DUP1 SLOAD PUSH2 0x222 SWAP1 PUSH2 0x63F JUMP JUMPDEST DUP1 PUSH1 0x1F ADD PUSH1 0x20 DUP1 SWAP2 DIV MUL PUSH1 0x20 ADD PUSH1 0x40 MLOAD SWAP1 DUP2 ADD PUSH1 0x40 MSTORE DUP1 SWAP3 SWAP2 SWAP1 DUP2 DUP2 MSTORE PUSH1 0x20 ADD DUP3 DUP1 SLOAD PUSH2 0x24E SWAP1 PUSH2 0x63F JUMP JUMPDEST DUP1 ISZERO PUSH2 0x29B JUMPI DUP1 PUSH1 0x1F LT PUSH2 0x270 JUMPI PUSH2 0x100 DUP1 DUP4 SLOAD DIV MUL DUP4 MSTORE SWAP2 PUSH1 0x20 ADD SWAP2 PUSH2 0x29B JUMP JUMPDEST DUP3 ADD SWAP2 SWAP1 PUSH1 0x0 MSTORE PUSH1 0x20 PUSH1 0x0 KECCAK256 SWAP1 JUMPDEST DUP2 SLOAD DUP2 MSTORE SWAP1 PUSH1 0x1 ADD SWAP1 PUSH1 0x20 ADD DUP1 DUP4 GT PUSH2 0x27E JUMPI DUP3 SWAP1 SUB PUSH1 0x1F AND DUP3 ADD SWAP2 JUMPDEST POP POP POP POP POP DUP2 JUMP JUMPDEST PUSH1 0x4 PUSH1 0x0 SWAP1 SLOAD SWAP1 PUSH2 0x100 EXP SWAP1 DIV PUSH20 0xFFFFFFFFFFFFFFFFFFFFFFFFFFFFFFFFFFFFFFFF AND DUP2 JUMP JUMPDEST PUSH1 0x5 SLOAD DUP2 JUMP JUMPDEST PUSH1 0x5 SLOAD PUSH1 0x1 SLOAD GT PUSH2 0x315 JUMPI PUSH1 0x40 MLOAD PUSH32 0x8C379A000000000000000000000000000000000000000000000000000000000 DUP2 MSTORE PUSH1 0x4 ADD PUSH2 0x30C SWAP1 PUSH2 0x523 JUMP JUMPDEST PUSH1 0x40 MLOAD DUP1 SWAP2 SUB SWAP1 REVERT JUMPDEST PUSH1 0x4 PUSH1 0x0 SWAP1 SLOAD SWAP1 PUSH2 0x100 EXP SWAP1 DIV PUSH20 0xFFFFFFFFFFFFFFFFFFFFFFFFFFFFFFFFFFFFFFFF AND PUSH20 0xFFFFFFFFFFFFFFFFFFFFFFFFFFFFFFFFFFFFFFFF AND PUSH2 0x8FC CALLVALUE SWAP1 DUP2 ISZERO MUL SWAP1 PUSH1 0x40 MLOAD PUSH1 0x0 PUSH1 0x40 MLOAD DUP1 DUP4 SUB DUP2 DUP6 DUP9 DUP9 CALL SWAP4 POP POP POP POP ISZERO DUP1 ISZERO PUSH2 0x37D JUMPI RETURNDATASIZE PUSH1 0x0 DUP1 RETURNDATACOPY RETURNDATASIZE PUSH1 0x0 REVERT JUMPDEST POP CALLVALUE PUSH1 0x5 PUSH1 0x0 DUP3 DUP3 SLOAD PUSH2 0x390 SWAP2 SWAP1 PUSH2 0x57A JUMP JUMPDEST SWAP3 POP POP DUP2 SWAP1 SSTORE POP TIMESTAMP CALLVALUE CALLER PUSH20 0xFFFFFFFFFFFFFFFFFFFFFFFFFFFFFFFFFFFFFFFF AND PUSH32 0xE6ADD99D06D9AD7FC456E746AA162EED6211C5002EF2DACDD67B8D2016822FBA PUSH1 0x40 MLOAD PUSH1 0x40 MLOAD DUP1 SWAP2 SUB SWAP1 LOG4 JUMP JUMPDEST PUSH1 0x2 DUP1 SLOAD PUSH2 0x3EB SWAP1 PUSH2 0x63F JUMP JUMPDEST DUP1 PUSH1 0x1F ADD PUSH1 0x20 DUP1 SWAP2 DIV MUL PUSH1 0x20 ADD PUSH1 0x40 MLOAD SWAP1 DUP2 ADD PUSH1 0x40 MSTORE DUP1 SWAP3 SWAP2 SWAP1 DUP2 DUP2 MSTORE PUSH1 0x20 ADD DUP3 DUP1 SLOAD PUSH2 0x417 SWAP1 PUSH2 0x63F JUMP JUMPDEST DUP1 ISZERO PUSH2 0x464 JUMPI DUP1 PUSH1 0x1F LT PUSH2 0x439 JUMPI PUSH2 0x100 DUP1 DUP4 SLOAD DIV MUL DUP4 MSTORE SWAP2 PUSH1 0x20 ADD SWAP2 PUSH2 0x464 JUMP JUMPDEST DUP3 ADD SWAP2 SWAP1 PUSH1 0x0 MSTORE PUSH1 0x20 PUSH1 0x0 KECCAK256 SWAP1 JUMPDEST DUP2 SLOAD DUP2 MSTORE SWAP1 PUSH1 0x1 ADD SWAP1 PUSH1 0x20 ADD DUP1 DUP4 GT PUSH2 0x447 JUMPI DUP3 SWAP1 SUB PUSH1 0x1F AND DUP3 ADD SWAP2 JUMPDEST POP POP POP POP POP DUP2 JUMP JUMPDEST PUSH2 0x475 DUP2 PUSH2 0x5D0 JUMP JUMPDEST DUP3 MSTORE POP POP JUMP JUMPDEST PUSH1 0x0 PUSH2 0x486 DUP3 PUSH2 0x55E JUMP JUMPDEST PUSH2 0x490 DUP2 DUP6 PUSH2 0x569 JUMP JUMPDEST SWAP4 POP PUSH2 0x4A0 DUP2 DUP6 PUSH1 0x20 DUP7 ADD PUSH2 0x60C JUMP JUMPDEST PUSH2 0x4A9 DUP2 PUSH2 0x6CF JUMP JUMPDEST DUP5 ADD SWAP2 POP POP SWAP3 SWAP2 POP POP JUMP JUMPDEST PUSH1 0x0 PUSH2 0x4C1 PUSH1 0x1A DUP4 PUSH2 0x569 JUMP JUMPDEST SWAP2 POP PUSH2 0x4CC DUP3 PUSH2 0x6E0 JUMP JUMPDEST PUSH1 0x20 DUP3 ADD SWAP1 POP SWAP2 SWAP1 POP JUMP JUMPDEST PUSH2 0x4E0 DUP2 PUSH2 0x602 JUMP JUMPDEST DUP3 MSTORE POP POP JUMP JUMPDEST PUSH1 0x0 PUSH1 0x20 DUP3 ADD SWAP1 POP PUSH2 0x4FB PUSH1 0x0 DUP4 ADD DUP5 PUSH2 0x46C JUMP JUMPDEST SWAP3 SWAP2 POP POP JUMP JUMPDEST PUSH1 0x0 PUSH1 0x20 DUP3 ADD SWAP1 POP DUP2 DUP2 SUB PUSH1 0x0 DUP4 ADD MSTORE PUSH2 0x51B DUP2 DUP5 PUSH2 0x47B JUMP JUMPDEST SWAP1 POP SWAP3 SWAP2 POP POP JUMP JUMPDEST PUSH1 0x0 PUSH1 0x20 DUP3 ADD SWAP1 POP DUP2 DUP2 SUB PUSH1 0x0 DUP4 ADD MSTORE PUSH2 0x53C DUP2 PUSH2 0x4B4 JUMP JUMPDEST SWAP1 POP SWAP2 SWAP1 POP JUMP JUMPDEST PUSH1 0x0 PUSH1 0x20 DUP3 ADD SWAP1 POP PUSH2 0x558 PUSH1 0x0 DUP4 ADD DUP5 PUSH2 0x4D7 JUMP JUMPDEST SWAP3 SWAP2 POP POP JUMP JUMPDEST PUSH1 0x0 DUP2 MLOAD SWAP1 POP SWAP2 SWAP1 POP JUMP JUMPDEST PUSH1 0x0 DUP3 DUP3 MSTORE PUSH1 0x20 DUP3 ADD SWAP1 POP SWAP3 SWAP2 POP POP JUMP JUMPDEST PUSH1 0x0 PUSH2 0x585 DUP3 PUSH2 0x602 JUMP JUMPDEST SWAP2 POP PUSH2 0x590 DUP4 PUSH2 0x602 JUMP JUMPDEST SWAP3 POP DUP3 PUSH32 0xFFFFFFFFFFFFFFFFFFFFFFFFFFFFFFFFFFFFFFFFFFFFFFFFFFFFFFFFFFFFFFFF SUB DUP3 GT ISZERO PUSH2 0x5C5 JUMPI PUSH2 0x5C4 PUSH2 0x671 JUMP JUMPDEST JUMPDEST DUP3 DUP3 ADD SWAP1 POP SWAP3 SWAP2 POP POP JUMP JUMPDEST PUSH1 0x0 PUSH2 0x5DB DUP3 PUSH2 0x5E2 JUMP JUMPDEST SWAP1 POP SWAP2 SWAP1 POP JUMP JUMPDEST PUSH1 0x0 PUSH20 0xFFFFFFFFFFFFFFFFFFFFFFFFFFFFFFFFFFFFFFFF DUP3 AND SWAP1 POP SWAP2 SWAP1 POP JUMP JUMPDEST PUSH1 0x0 DUP2 SWAP1 POP SWAP2 SWAP1 POP JUMP JUMPDEST PUSH1 0x0 JUMPDEST DUP4 DUP2 LT ISZERO PUSH2 0x62A JUMPI DUP1 DUP3 ADD MLOAD DUP2 DUP5 ADD MSTORE PUSH1 0x20 DUP2 ADD SWAP1 POP PUSH2 0x60F JUMP JUMPDEST DUP4 DUP2 GT ISZERO PUSH2 0x639 JUMPI PUSH1 0x0 DUP5 DUP5 ADD MSTORE JUMPDEST POP POP POP POP JUMP JUMPDEST PUSH1 0x0 PUSH1 0x2 DUP3 DIV SWAP1 POP PUSH1 0x1 DUP3 AND DUP1 PUSH2 0x657 JUMPI PUSH1 0x7F DUP3 AND SWAP2 POP JUMPDEST PUSH1 0x20 DUP3 LT DUP2 EQ ISZERO PUSH2 0x66B JUMPI PUSH2 0x66A PUSH2 0x6A0 JUMP JUMPDEST JUMPDEST POP SWAP2 SWAP1 POP JUMP JUMPDEST PUSH32 0x4E487B7100000000000000000000000000000000000000000000000000000000 PUSH1 0x0 MSTORE PUSH1 0x11 PUSH1 0x4 MSTORE PUSH1 0x24 PUSH1 0x0 REVERT JUMPDEST PUSH32 0x4E487B7100000000000000000000000000000000000000000000000000000000 PUSH1 0x0 MSTORE PUSH1 0x22 PUSH1 0x4 MSTORE PUSH1 0x24 PUSH1 0x0 REVERT JUMPDEST PUSH1 0x0 PUSH1 0x1F NOT PUSH1 0x1F DUP4 ADD AND SWAP1 POP SWAP2 SWAP1 POP JUMP JUMPDEST PUSH32 0x726571756972656420616D6F756E742066756C6C66696C6C6564000000000000 PUSH1 0x0 DUP3 ADD MSTORE POP JUMP INVALID LOG2 PUSH5 0x6970667358 0x22 SLT KECCAK256 EQ 0xA7 PUSH13 0x487EDD12EB3307A633DF8AEDBF DUP6 DUP14 CALLDATASIZE PUSH10 0x3F62BA3F9085D2B41236 0xDD 0xB9 PUSH5 0x736F6C6343 STOP ADDMOD SMOD STOP CALLER LOG2 PUSH5 0x6970667358 0x22 SLT KECCAK256 PUSH10 0x69E8B98992FA360603F7 RETURN 0xEF 0xEC 0xE6 0xF7 0xF9 SIGNEXTEND BALANCE SLOAD CALLCODE LOG3 PUSH8 0xE4941870F0C93E14 0x2B PUSH5 0x736F6C6343 STOP ADDMOD SMOD STOP CALLER "
		},
		"gasEstimates": {
			"creation": {
				"codeDepositCost": "978000",
				"executionCost": "1014",
				"totalCost": "979014"
			},
			"external": {
				"createCampaign(string,uint256,string,string,string)": "infinite",
				"deployedCampaigns(uint256)": "4934"
			}
		},
		"methodIdentifiers": {
			"createCampaign(string,uint256,string,string,string)": "c658857d",
			"deployedCampaigns(uint256)": "339d50a5"
		}
	},
	"abi": [
		{
			"anonymous": false,
			"inputs": [
				{
					"indexed": false,
					"internalType": "string",
					"name": "title",
					"type": "string"
				},
				{
					"indexed": false,
					"internalType": "uint256",
					"name": "requiredAmount",
					"type": "uint256"
				},
				{
					"indexed": true,
					"internalType": "address",
					"name": "owner",
					"type": "address"
				},
				{
					"indexed": false,
					"internalType": "address",
					"name": "campaignAddress",
					"type": "address"
				},
				{
					"indexed": false,
					"internalType": "string",
					"name": "imgURI",
					"type": "string"
				},
				{
					"indexed": true,
					"internalType": "uint256",
					"name": "timestamp",
					"type": "uint256"
				},
				{
					"indexed": true,
					"internalType": "string",
					"name": "category",
					"type": "string"
				}
			],
			"name": "campaignCreated",
			"type": "event"
		},
		{
			"inputs": [
				{
					"internalType": "string",
					"name": "campaignTitle",
					"type": "string"
				},
				{
					"internalType": "uint256",
					"name": "requiredCampaignAmount",
					"type": "uint256"
				},
				{
					"internalType": "string",
					"name": "imgURI",
					"type": "string"
				},
				{
					"internalType": "string",
					"name": "category",
					"type": "string"
				},
				{
					"internalType": "string",
					"name": "storyURI",
					"type": "string"
				}
			],
			"name": "createCampaign",
			"outputs": [],
			"stateMutability": "nonpayable",
			"type": "function"
		},
		{
			"inputs": [
				{
					"internalType": "uint256",
					"name": "",
					"type": "uint256"
				}
			],
			"name": "deployedCampaigns",
			"outputs": [
				{
					"internalType": "address",
					"name": "",
					"type": "address"
				}
			],
			"stateMutability": "view",
			"type": "function"
		}
	]
}